{
  "_format": "hh-sol-artifact-1",
  "contractName": "VotingOption",
  "sourceName": "contracts/VotingOption.sol",
  "abi": [
    {
      "inputs": [
        {
          "internalType": "address",
          "name": "_mainContract",
          "type": "address"
        },
        {
          "internalType": "string",
          "name": "_name",
          "type": "string"
        },
        {
          "internalType": "uint256",
          "name": "_endTime",
          "type": "uint256"
        },
        {
          "internalType": "uint256",
          "name": "_pollIndex",
          "type": "uint256"
        },
        {
          "internalType": "uint256",
          "name": "_option_index",
          "type": "uint256"
        }
      ],
      "stateMutability": "nonpayable",
      "type": "constructor"
    },
    {
      "stateMutability": "payable",
      "type": "fallback"
    },
    {
      "inputs": [
        {
          "internalType": "bytes",
          "name": "signature",
          "type": "bytes"
        },
        {
          "internalType": "string",
          "name": "message",
          "type": "string"
        }
      ],
      "name": "castVote",
      "outputs": [],
      "stateMutability": "nonpayable",
      "type": "function"
    },
    {
      "inputs": [],
      "name": "endTime",
      "outputs": [
        {
          "internalType": "uint256",
          "name": "",
          "type": "uint256"
        }
      ],
      "stateMutability": "view",
      "type": "function"
    },
    {
      "inputs": [],
      "name": "getVotersCount",
      "outputs": [
        {
          "internalType": "uint256",
          "name": "",
          "type": "uint256"
        }
      ],
      "stateMutability": "view",
      "type": "function"
    },
    {
      "inputs": [],
      "name": "mainContract",
      "outputs": [
        {
          "internalType": "address",
          "name": "",
          "type": "address"
        }
      ],
      "stateMutability": "view",
      "type": "function"
    },
    {
      "inputs": [],
      "name": "name",
      "outputs": [
        {
          "internalType": "string",
          "name": "",
          "type": "string"
        }
      ],
      "stateMutability": "view",
      "type": "function"
    },
    {
      "inputs": [],
      "name": "option_index",
      "outputs": [
        {
          "internalType": "uint256",
          "name": "",
          "type": "uint256"
        }
      ],
      "stateMutability": "view",
      "type": "function"
    },
    {
      "inputs": [],
      "name": "pollIndex",
      "outputs": [
        {
          "internalType": "uint256",
          "name": "",
          "type": "uint256"
        }
      ],
      "stateMutability": "view",
      "type": "function"
    },
    {
      "inputs": [
        {
          "internalType": "address",
          "name": "voter",
          "type": "address"
        }
      ],
      "name": "removeVote",
      "outputs": [],
      "stateMutability": "nonpayable",
      "type": "function"
    },
    {
      "inputs": [
        {
          "internalType": "uint256",
          "name": "",
          "type": "uint256"
        }
      ],
      "name": "voters",
      "outputs": [
        {
          "internalType": "address",
          "name": "",
          "type": "address"
        }
      ],
      "stateMutability": "view",
      "type": "function"
    },
    {
      "stateMutability": "payable",
      "type": "receive"
    }
  ],
  "bytecode": "0x60806040523480156200001157600080fd5b5060405162001a6338038062001a638339818101604052810190620000379190620002dc565b846000806101000a81548173ffffffffffffffffffffffffffffffffffffffff021916908373ffffffffffffffffffffffffffffffffffffffff1602179055508360019081620000889190620005c4565b508260028190555081600381905550806004819055505050505050620006ab565b6000604051905090565b600080fd5b600080fd5b600073ffffffffffffffffffffffffffffffffffffffff82169050919050565b6000620000ea82620000bd565b9050919050565b620000fc81620000dd565b81146200010857600080fd5b50565b6000815190506200011c81620000f1565b92915050565b600080fd5b600080fd5b6000601f19601f8301169050919050565b7f4e487b7100000000000000000000000000000000000000000000000000000000600052604160045260246000fd5b62000177826200012c565b810181811067ffffffffffffffff821117156200019957620001986200013d565b5b80604052505050565b6000620001ae620000a9565b9050620001bc82826200016c565b919050565b600067ffffffffffffffff821115620001df57620001de6200013d565b5b620001ea826200012c565b9050602081019050919050565b60005b8381101562000217578082015181840152602081019050620001fa565b60008484015250505050565b60006200023a6200023484620001c1565b620001a2565b90508281526020810184848401111562000259576200025862000127565b5b62000266848285620001f7565b509392505050565b600082601f83011262000286576200028562000122565b5b81516200029884826020860162000223565b91505092915050565b6000819050919050565b620002b681620002a1565b8114620002c257600080fd5b50565b600081519050620002d681620002ab565b92915050565b600080600080600060a08688031215620002fb57620002fa620000b3565b5b60006200030b888289016200010b565b955050602086015167ffffffffffffffff8111156200032f576200032e620000b8565b5b6200033d888289016200026e565b94505060406200035088828901620002c5565b93505060606200036388828901620002c5565b92505060806200037688828901620002c5565b9150509295509295909350565b600081519050919050565b7f4e487b7100000000000000000000000000000000000000000000000000000000600052602260045260246000fd5b60006002820490506001821680620003d657607f821691505b602082108103620003ec57620003eb6200038e565b5b50919050565b60008190508160005260206000209050919050565b60006020601f8301049050919050565b600082821b905092915050565b600060088302620004567fffffffffffffffffffffffffffffffffffffffffffffffffffffffffffffffff8262000417565b62000462868362000417565b95508019841693508086168417925050509392505050565b6000819050919050565b6000620004a56200049f6200049984620002a1565b6200047a565b620002a1565b9050919050565b6000819050919050565b620004c18362000484565b620004d9620004d082620004ac565b84845462000424565b825550505050565b600090565b620004f0620004e1565b620004fd818484620004b6565b505050565b5b81811015620005255762000519600082620004e6565b60018101905062000503565b5050565b601f82111562000574576200053e81620003f2565b620005498462000407565b8101602085101562000559578190505b62000571620005688562000407565b83018262000502565b50505b505050565b600082821c905092915050565b6000620005996000198460080262000579565b1980831691505092915050565b6000620005b4838362000586565b9150826002028217905092915050565b620005cf8262000383565b67ffffffffffffffff811115620005eb57620005ea6200013d565b5b620005f78254620003bd565b6200060482828562000529565b600060209050601f8311600181146200063c576000841562000627578287015190505b620006338582620005a6565b865550620006a3565b601f1984166200064c86620003f2565b60005b8281101562000676578489015182556001820191506020850194506020810190506200064f565b8683101562000696578489015162000692601f89168262000586565b8355505b6001600288020188555050505b505050505050565b6113a880620006bb6000396000f3fe60806040526004361061008a5760003560e01c806399100fa51161005957806399100fa5146101df578063bfa9afdf1461020a578063c0f2a77714610233578063d270e7ab1461025e578063da58c7d91461028957610091565b806306fdde03146101355780633197cbb6146101605780633ccc1f531461018b578063769e2da5146101b457610091565b3661009157005b600034146100d4576040517f08c379a00000000000000000000000000000000000000000000000000000000081526004016100cb90610a2e565b60405180910390fd5b6000806101256000368080601f016020809104026020016040519081016040528093929190818152602001838380828437600081840152601f19601f820116905080830192505050505050506102c6565b9150915061013381836102f1565b005b34801561014157600080fd5b5061014a610532565b6040516101579190610acd565b60405180910390f35b34801561016c57600080fd5b506101756105c0565b6040516101829190610b08565b60405180910390f35b34801561019757600080fd5b506101b260048036038101906101ad9190610b95565b6105c6565b005b3480156101c057600080fd5b506101c9610955565b6040516101d69190610b08565b60405180910390f35b3480156101eb57600080fd5b506101f461095b565b6040516102019190610b08565b60405180910390f35b34801561021657600080fd5b50610231600480360381019061022c9190610d98565b6102f1565b005b34801561023f57600080fd5b50610248610961565b6040516102559190610b08565b60405180910390f35b34801561026a57600080fd5b5061027361096e565b6040516102809190610e1f565b60405180910390f35b34801561029557600080fd5b506102b060048036038101906102ab9190610e66565b610992565b6040516102bd9190610e1f565b60405180910390f35b606080600080848060200190518101906102e09190610f73565b915091508181935093505050915091565b6002544210610335576040517f08c379a000000000000000000000000000000000000000000000000000000000815260040161032c90611037565b60405180910390fd5b60008054906101000a900473ffffffffffffffffffffffffffffffffffffffff1673ffffffffffffffffffffffffffffffffffffffff166316b752f03360035460045486866040518663ffffffff1660e01b815260040161039a9594939291906110ac565b600060405180830381600087803b1580156103b457600080fd5b505af11580156103c8573d6000803e3d6000fd5b50505050600760003373ffffffffffffffffffffffffffffffffffffffff1673ffffffffffffffffffffffffffffffffffffffff16815260200190815260200160002060009054906101000a900460ff166104d6576005339080600181540180825580915050600190039060005260206000200160009091909190916101000a81548173ffffffffffffffffffffffffffffffffffffffff021916908373ffffffffffffffffffffffffffffffffffffffff1602179055506001600580549050610492919061113c565b600660003373ffffffffffffffffffffffffffffffffffffffff1673ffffffffffffffffffffffffffffffffffffffff168152602001908152602001600020819055505b6001600760003373ffffffffffffffffffffffffffffffffffffffff1673ffffffffffffffffffffffffffffffffffffffff16815260200190815260200160002060006101000a81548160ff0219169083151502179055505050565b6001805461053f9061119f565b80601f016020809104026020016040519081016040528092919081815260200182805461056b9061119f565b80156105b85780601f1061058d576101008083540402835291602001916105b8565b820191906000526020600020905b81548152906001019060200180831161059b57829003601f168201915b505050505081565b60025481565b60008054906101000a900473ffffffffffffffffffffffffffffffffffffffff1673ffffffffffffffffffffffffffffffffffffffff163373ffffffffffffffffffffffffffffffffffffffff1614610654576040517f08c379a000000000000000000000000000000000000000000000000000000000815260040161064b9061121c565b60405180910390fd5b600760008273ffffffffffffffffffffffffffffffffffffffff1673ffffffffffffffffffffffffffffffffffffffff16815260200190815260200160002060009054906101000a900460ff166106e0576040517f08c379a00000000000000000000000000000000000000000000000000000000081526004016106d790611288565b60405180910390fd5b6000600660008373ffffffffffffffffffffffffffffffffffffffff1673ffffffffffffffffffffffffffffffffffffffff168152602001908152602001600020549050600580549050811061076b576040517f08c379a0000000000000000000000000000000000000000000000000000000008152600401610762906112f4565b60405180910390fd5b6000600160058054905061077f919061113c565b905080821461086e5760006005828154811061079e5761079d611314565b5b9060005260206000200160009054906101000a900473ffffffffffffffffffffffffffffffffffffffff16905080600584815481106107e0576107df611314565b5b9060005260206000200160006101000a81548173ffffffffffffffffffffffffffffffffffffffff021916908373ffffffffffffffffffffffffffffffffffffffff16021790555082600660008373ffffffffffffffffffffffffffffffffffffffff1673ffffffffffffffffffffffffffffffffffffffff16815260200190815260200160002081905550505b60058054806108805761087f611343565b5b6001900381819060005260206000200160006101000a81549073ffffffffffffffffffffffffffffffffffffffff02191690559055600660008473ffffffffffffffffffffffffffffffffffffffff1673ffffffffffffffffffffffffffffffffffffffff168152602001908152602001600020600090556000600760008573ffffffffffffffffffffffffffffffffffffffff1673ffffffffffffffffffffffffffffffffffffffff16815260200190815260200160002060006101000a81548160ff021916908315150217905550505050565b60045481565b60035481565b6000600580549050905090565b60008054906101000a900473ffffffffffffffffffffffffffffffffffffffff1681565b600581815481106109a257600080fd5b906000526020600020016000915054906101000a900473ffffffffffffffffffffffffffffffffffffffff1681565b600082825260208201905092915050565b7f43616e6e6f742073656e6420455448207769746820766f746500000000000000600082015250565b6000610a186019836109d1565b9150610a23826109e2565b602082019050919050565b60006020820190508181036000830152610a4781610a0b565b9050919050565b600081519050919050565b60005b83811015610a77578082015181840152602081019050610a5c565b60008484015250505050565b6000601f19601f8301169050919050565b6000610a9f82610a4e565b610aa981856109d1565b9350610ab9818560208601610a59565b610ac281610a83565b840191505092915050565b60006020820190508181036000830152610ae78184610a94565b905092915050565b6000819050919050565b610b0281610aef565b82525050565b6000602082019050610b1d6000830184610af9565b92915050565b6000604051905090565b600080fd5b600080fd5b600073ffffffffffffffffffffffffffffffffffffffff82169050919050565b6000610b6282610b37565b9050919050565b610b7281610b57565b8114610b7d57600080fd5b50565b600081359050610b8f81610b69565b92915050565b600060208284031215610bab57610baa610b2d565b5b6000610bb984828501610b80565b91505092915050565b600080fd5b600080fd5b7f4e487b7100000000000000000000000000000000000000000000000000000000600052604160045260246000fd5b610c0482610a83565b810181811067ffffffffffffffff82111715610c2357610c22610bcc565b5b80604052505050565b6000610c36610b23565b9050610c428282610bfb565b919050565b600067ffffffffffffffff821115610c6257610c61610bcc565b5b610c6b82610a83565b9050602081019050919050565b82818337600083830152505050565b6000610c9a610c9584610c47565b610c2c565b905082815260208101848484011115610cb657610cb5610bc7565b5b610cc1848285610c78565b509392505050565b600082601f830112610cde57610cdd610bc2565b5b8135610cee848260208601610c87565b91505092915050565b600067ffffffffffffffff821115610d1257610d11610bcc565b5b610d1b82610a83565b9050602081019050919050565b6000610d3b610d3684610cf7565b610c2c565b905082815260208101848484011115610d5757610d56610bc7565b5b610d62848285610c78565b509392505050565b600082601f830112610d7f57610d7e610bc2565b5b8135610d8f848260208601610d28565b91505092915050565b60008060408385031215610daf57610dae610b2d565b5b600083013567ffffffffffffffff811115610dcd57610dcc610b32565b5b610dd985828601610cc9565b925050602083013567ffffffffffffffff811115610dfa57610df9610b32565b5b610e0685828601610d6a565b9150509250929050565b610e1981610b57565b82525050565b6000602082019050610e346000830184610e10565b92915050565b610e4381610aef565b8114610e4e57600080fd5b50565b600081359050610e6081610e3a565b92915050565b600060208284031215610e7c57610e7b610b2d565b5b6000610e8a84828501610e51565b91505092915050565b6000610ea6610ea184610cf7565b610c2c565b905082815260208101848484011115610ec257610ec1610bc7565b5b610ecd848285610a59565b509392505050565b600082601f830112610eea57610ee9610bc2565b5b8151610efa848260208601610e93565b91505092915050565b6000610f16610f1184610c47565b610c2c565b905082815260208101848484011115610f3257610f31610bc7565b5b610f3d848285610a59565b509392505050565b600082601f830112610f5a57610f59610bc2565b5b8151610f6a848260208601610f03565b91505092915050565b60008060408385031215610f8a57610f89610b2d565b5b600083015167ffffffffffffffff811115610fa857610fa7610b32565b5b610fb485828601610ed5565b925050602083015167ffffffffffffffff811115610fd557610fd4610b32565b5b610fe185828601610f45565b9150509250929050565b7f506f6c6c2068617320656e646564000000000000000000000000000000000000600082015250565b6000611021600e836109d1565b915061102c82610feb565b602082019050919050565b6000602082019050818103600083015261105081611014565b9050919050565b600081519050919050565b600082825260208201905092915050565b600061107e82611057565b6110888185611062565b9350611098818560208601610a59565b6110a181610a83565b840191505092915050565b600060a0820190506110c16000830188610e10565b6110ce6020830187610af9565b6110db6040830186610af9565b81810360608301526110ed8185611073565b905081810360808301526111018184610a94565b90509695505050505050565b7f4e487b7100000000000000000000000000000000000000000000000000000000600052601160045260246000fd5b600061114782610aef565b915061115283610aef565b925082820390508181111561116a5761116961110d565b5b92915050565b7f4e487b7100000000000000000000000000000000000000000000000000000000600052602260045260246000fd5b600060028204905060018216806111b757607f821691505b6020821081036111ca576111c9611170565b5b50919050565b7f596f7520646f6e27742068617665206163636573730000000000000000000000600082015250565b60006112066015836109d1565b9150611211826111d0565b602082019050919050565b60006020820190508181036000830152611235816111f9565b9050919050565b7f4e6f20766f746520746f2072656d6f7665000000000000000000000000000000600082015250565b60006112726011836109d1565b915061127d8261123c565b602082019050919050565b600060208201905081810360008301526112a181611265565b9050919050565b7f566f746572206e6f7420666f756e640000000000000000000000000000000000600082015250565b60006112de600f836109d1565b91506112e9826112a8565b602082019050919050565b6000602082019050818103600083015261130d816112d1565b9050919050565b7f4e487b7100000000000000000000000000000000000000000000000000000000600052603260045260246000fd5b7f4e487b7100000000000000000000000000000000000000000000000000000000600052603160045260246000fdfea264697066735822122048596549f430905e0febe0e17d9d567e9070375b33b05f66076fdc9cfa23d74464736f6c63430008130033",
  "linkReferences": {},
  "deployedLinkReferences": {}
}