{"contracts/VoteContract.sol":{"VotingContract":{"abi":[{"inputs":[{"internalType":"bytes32","name":"_description","type":"bytes32"},{"internalType":"uint256","name":"_duration","type":"uint256"},{"internalType":"bytes32[]","name":"_optionNames","type":"bytes32[]"},{"internalType":"enum VotingContract.PollType","name":"_pollType","type":"uint8"},{"internalType":"bytes32","name":"_poll_metadata","type":"bytes32"}],"name":"createPoll","outputs":[],"stateMutability":"nonpayable","type":"function"},{"inputs":[{"internalType":"uint256","name":"_pollIndex","type":"uint256"}],"name":"getPoll","outputs":[{"internalType":"bytes32","name":"description","type":"bytes32"},{"internalType":"address[]","name":"options","type":"address[]"},{"internalType":"uint256","name":"endTime","type":"uint256"},{"internalType":"enum VotingContract.PollType","name":"pollType","type":"uint8"},{"internalType":"bytes32","name":"pollMetadata","type":"bytes32"}],"stateMutability":"view","type":"function"},{"inputs":[{"internalType":"uint256","name":"","type":"uint256"}],"name":"polls","outputs":[{"internalType":"bytes32","name":"description","type":"bytes32"},{"internalType":"uint256","name":"endTime","type":"uint256"},{"internalType":"enum VotingContract.PollType","name":"poll_type","type":"uint8"},{"internalType":"bytes32","name":"poll_metadata","type":"bytes32"}],"stateMutability":"view","type":"function"},{"inputs":[{"internalType":"address","name":"voter","type":"address"},{"internalType":"uint256","name":"_pollIndex","type":"uint256"}],"name":"recordVote","outputs":[],"stateMutability":"nonpayable","type":"function"},{"inputs":[{"internalType":"uint256","name":"_pollIndex","type":"uint256"},{"internalType":"uint256","name":"_optionIndex","type":"uint256"}],"name":"vote","outputs":[],"stateMutability":"nonpayable","type":"function"}],"evm":{"bytecode":{"linkReferences":{},"object":"608060405234801561001057600080fd5b50611913806100206000396000f3fe60806040523480156200001157600080fd5b50600436106200005e5760003560e01c80631a8cbcaa1462000063578063a446b900146200009d578063ac2f007414620000bd578063b384abef14620000f6578063b55141b71462000116575b600080fd5b6200008160048036038101906200007b9190620009a5565b62000136565b6040516200009495949392919062000b85565b60405180910390f35b620000bb6004803603810190620000b5919062000c1a565b6200022a565b005b620000db6004803603810190620000d59190620009a5565b62000547565b604051620000ed949392919062000c61565b60405180910390f35b6200011460048036038101906200010e919062000cae565b62000595565b005b6200013460048036038101906200012e919062000ec3565b620007a2565b005b600060606000806000806000878154811062000157576200015662000f6a565b5b9060005260206000209060060201905080600001548160010182600201548360040160009054906101000a900460ff168460050154838054806020026020016040519081016040528092919081815260200182805480156200020f57602002820191906000526020600020905b8160009054906101000a900473ffffffffffffffffffffffffffffffffffffffff1673ffffffffffffffffffffffffffffffffffffffff1681526020019060010190808311620001c4575b50505050509350955095509550955095505091939590929450565b6000818154811062000241576200024062000f6a565b5b906000526020600020906006020160010160008154811062000268576200026762000f6a565b5b9060005260206000200160009054906101000a900473ffffffffffffffffffffffffffffffffffffffff1673ffffffffffffffffffffffffffffffffffffffff163373ffffffffffffffffffffffffffffffffffffffff16148062000360575060008181548110620002df57620002de62000f6a565b5b906000526020600020906006020160010160018154811062000306576200030562000f6a565b5b9060005260206000200160009054906101000a900473ffffffffffffffffffffffffffffffffffffffff1673ffffffffffffffffffffffffffffffffffffffff163373ffffffffffffffffffffffffffffffffffffffff16145b620003a2576040517f08c379a0000000000000000000000000000000000000000000000000000000008152600401620003999062000ffa565b60405180910390fd5b60008181548110620003b957620003b862000f6a565b5b90600052602060002090600602016002015442106200040f576040517f08c379a000000000000000000000000000000000000000000000000000000000815260040162000406906200106c565b60405180910390fd5b6000818154811062000426576200042562000f6a565b5b906000526020600020906006020160030160008373ffffffffffffffffffffffffffffffffffffffff1673ffffffffffffffffffffffffffffffffffffffff16815260200190815260200160002060009054906101000a900460ff1615620004c5576040517f08c379a0000000000000000000000000000000000000000000000000000000008152600401620004bc90620010de565b60405180910390fd5b600160008281548110620004de57620004dd62000f6a565b5b906000526020600020906006020160030160008473ffffffffffffffffffffffffffffffffffffffff1673ffffffffffffffffffffffffffffffffffffffff16815260200190815260200160002060006101000a81548160ff0219169083151502179055505050565b600081815481106200055857600080fd5b90600052602060002090600602016000915090508060000154908060020154908060040160009054906101000a900460ff16908060050154905084565b6000808381548110620005ad57620005ac62000f6a565b5b906000526020600020906006020190508060020154421062000606576040517f08c379a0000000000000000000000000000000000000000000000000000000008152600401620005fd906200106c565b60405180910390fd5b8060030160003373ffffffffffffffffffffffffffffffffffffffff1673ffffffffffffffffffffffffffffffffffffffff16815260200190815260200160002060009054906101000a900460ff161562000698576040517f08c379a00000000000000000000000000000000000000000000000000000000081526004016200068f9062001150565b60405180910390fd5b6000816001018381548110620006b357620006b262000f6a565b5b9060005260206000200160009054906101000a900473ffffffffffffffffffffffffffffffffffffffff1690508073ffffffffffffffffffffffffffffffffffffffff16630fb524ce6040518163ffffffff1660e01b8152600401600060405180830381600087803b1580156200072957600080fd5b505af11580156200073e573d6000803e3d6000fd5b5050505060018260030160003373ffffffffffffffffffffffffffffffffffffffff1673ffffffffffffffffffffffffffffffffffffffff16815260200190815260200160002060006101000a81548160ff02191690831515021790555050505050565b6000600181600181540180825580915050039060005260206000209050506000806001600080549050620007d79190620011a1565b81548110620007eb57620007ea62000f6a565b5b906000526020600020906006020190508581600001819055508442620008129190620011dc565b8160020181905550828160040160006101000a81548160ff0219169083600081111562000844576200084362000b05565b5b021790555081816005018190555060005b84518110156200093f5760003086838151811062000878576200087762000f6a565b5b6020026020010151846002015484604051620008949062000948565b620008a3949392919062001228565b604051809103906000f080158015620008c0573d6000803e3d6000fd5b50905082600101819080600181540180825580915050600190039060005260206000200160009091909190916101000a81548173ffffffffffffffffffffffffffffffffffffffff021916908373ffffffffffffffffffffffffffffffffffffffff160217905550508080620009369062001275565b91505062000855565b50505050505050565b61061b80620012c383390190565b6000604051905090565b600080fd5b600080fd5b6000819050919050565b6200097f816200096a565b81146200098b57600080fd5b50565b6000813590506200099f8162000974565b92915050565b600060208284031215620009be57620009bd62000960565b5b6000620009ce848285016200098e565b91505092915050565b6000819050919050565b620009ec81620009d7565b82525050565b600081519050919050565b600082825260208201905092915050565b6000819050602082019050919050565b600073ffffffffffffffffffffffffffffffffffffffff82169050919050565b600062000a4b8262000a1e565b9050919050565b62000a5d8162000a3e565b82525050565b600062000a71838362000a52565b60208301905092915050565b6000602082019050919050565b600062000a9782620009f2565b62000aa38185620009fd565b935062000ab08362000a0e565b8060005b8381101562000ae757815162000acb888262000a63565b975062000ad88362000a7d565b92505060018101905062000ab4565b5085935050505092915050565b62000aff816200096a565b82525050565b7f4e487b7100000000000000000000000000000000000000000000000000000000600052602160045260246000fd5b6001811062000b485762000b4762000b05565b5b50565b600081905062000b5b8262000b34565b919050565b600062000b6d8262000b4b565b9050919050565b62000b7f8162000b60565b82525050565b600060a08201905062000b9c6000830188620009e1565b818103602083015262000bb0818762000a8a565b905062000bc1604083018662000af4565b62000bd0606083018562000b74565b62000bdf6080830184620009e1565b9695505050505050565b62000bf48162000a3e565b811462000c0057600080fd5b50565b60008135905062000c148162000be9565b92915050565b6000806040838503121562000c345762000c3362000960565b5b600062000c448582860162000c03565b925050602062000c57858286016200098e565b9150509250929050565b600060808201905062000c786000830187620009e1565b62000c87602083018662000af4565b62000c96604083018562000b74565b62000ca56060830184620009e1565b95945050505050565b6000806040838503121562000cc85762000cc762000960565b5b600062000cd8858286016200098e565b925050602062000ceb858286016200098e565b9150509250929050565b62000d0081620009d7565b811462000d0c57600080fd5b50565b60008135905062000d208162000cf5565b92915050565b600080fd5b6000601f19601f8301169050919050565b7f4e487b7100000000000000000000000000000000000000000000000000000000600052604160045260246000fd5b62000d768262000d2b565b810181811067ffffffffffffffff8211171562000d985762000d9762000d3c565b5b80604052505050565b600062000dad62000956565b905062000dbb828262000d6b565b919050565b600067ffffffffffffffff82111562000dde5762000ddd62000d3c565b5b602082029050602081019050919050565b600080fd5b600062000e0b62000e058462000dc0565b62000da1565b9050808382526020820190506020840283018581111562000e315762000e3062000def565b5b835b8181101562000e5e578062000e49888262000d0f565b84526020840193505060208101905062000e33565b5050509392505050565b600082601f83011262000e805762000e7f62000d26565b5b813562000e9284826020860162000df4565b91505092915050565b6001811062000ea957600080fd5b50565b60008135905062000ebd8162000e9b565b92915050565b600080600080600060a0868803121562000ee25762000ee162000960565b5b600062000ef28882890162000d0f565b955050602062000f05888289016200098e565b945050604086013567ffffffffffffffff81111562000f295762000f2862000965565b5b62000f378882890162000e68565b935050606062000f4a8882890162000eac565b925050608062000f5d8882890162000d0f565b9150509295509295909350565b7f4e487b7100000000000000000000000000000000000000000000000000000000600052603260045260246000fd5b600082825260208201905092915050565b7f496e76616c6964206f7074696f6e206164647265737300000000000000000000600082015250565b600062000fe260168362000f99565b915062000fef8262000faa565b602082019050919050565b60006020820190508181036000830152620010158162000fd3565b9050919050565b7f506f6c6c2068617320656e646564000000000000000000000000000000000000600082015250565b600062001054600e8362000f99565b915062001061826200101c565b602082019050919050565b60006020820190508181036000830152620010878162001045565b9050919050565b7f416c726561647920766f74656420696e207468697320706f6c6c000000000000600082015250565b6000620010c6601a8362000f99565b9150620010d3826200108e565b602082019050919050565b60006020820190508181036000830152620010f981620010b7565b9050919050565b7f416c726561647920766f74656400000000000000000000000000000000000000600082015250565b600062001138600d8362000f99565b9150620011458262001100565b602082019050919050565b600060208201905081810360008301526200116b8162001129565b9050919050565b7f4e487b7100000000000000000000000000000000000000000000000000000000600052601160045260246000fd5b6000620011ae826200096a565b9150620011bb836200096a565b9250828203905081811115620011d657620011d562001172565b5b92915050565b6000620011e9826200096a565b9150620011f6836200096a565b925082820190508082111562001211576200121062001172565b5b92915050565b620012228162000a3e565b82525050565b60006080820190506200123f600083018762001217565b6200124e6020830186620009e1565b6200125d604083018562000af4565b6200126c606083018462000af4565b95945050505050565b600062001282826200096a565b91507fffffffffffffffffffffffffffffffffffffffffffffffffffffffffffffffff8203620012b757620012b662001172565b5b60018201905091905056fe608060405234801561001057600080fd5b5060405161061b38038061061b8339818101604052810190610032919061015f565b836000806101000a81548173ffffffffffffffffffffffffffffffffffffffff021916908373ffffffffffffffffffffffffffffffffffffffff160217905550826001819055508160028190555080600381905550505050506101c6565b600080fd5b600073ffffffffffffffffffffffffffffffffffffffff82169050919050565b60006100c082610095565b9050919050565b6100d0816100b5565b81146100db57600080fd5b50565b6000815190506100ed816100c7565b92915050565b6000819050919050565b610106816100f3565b811461011157600080fd5b50565b600081519050610123816100fd565b92915050565b6000819050919050565b61013c81610129565b811461014757600080fd5b50565b60008151905061015981610133565b92915050565b6000806000806080858703121561017957610178610090565b5b6000610187878288016100de565b945050602061019887828801610114565b93505060406101a98782880161014a565b92505060606101ba8782880161014a565b91505092959194509250565b610446806101d56000396000f3fe6080604052600436106100435760003560e01c80630fb524ce1461009a5780633197cbb6146100b157806399100fa5146100dc578063d270e7ab1461010757610095565b36610095576000341461008b576040517f08c379a0000000000000000000000000000000000000000000000000000000008152600401610082906102cb565b60405180910390fd5b610093610132565b005b600080fd5b3480156100a657600080fd5b506100af610132565b005b3480156100bd57600080fd5b506100c661023e565b6040516100d39190610304565b60405180910390f35b3480156100e857600080fd5b506100f1610244565b6040516100fe9190610304565b60405180910390f35b34801561011357600080fd5b5061011c61024a565b6040516101299190610360565b60405180910390f35b6002544210610176576040517f08c379a000000000000000000000000000000000000000000000000000000000815260040161016d906103c7565b60405180910390fd5b60008054906101000a900473ffffffffffffffffffffffffffffffffffffffff1673ffffffffffffffffffffffffffffffffffffffff1663a446b900336003546040518363ffffffff1660e01b81526004016101d39291906103e7565b600060405180830381600087803b1580156101ed57600080fd5b505af1158015610201573d6000803e3d6000fd5b505050507f7ce969a18bb6b0fba42c6d9746e7d08eeca4c661809659c91d276456e3153ac0336040516102349190610360565b60405180910390a1565b60025481565b60035481565b60008054906101000a900473ffffffffffffffffffffffffffffffffffffffff1681565b600082825260208201905092915050565b7f43616e6e6f742073656e6420455448207769746820766f746500000000000000600082015250565b60006102b560198361026e565b91506102c08261027f565b602082019050919050565b600060208201905081810360008301526102e4816102a8565b9050919050565b6000819050919050565b6102fe816102eb565b82525050565b600060208201905061031960008301846102f5565b92915050565b600073ffffffffffffffffffffffffffffffffffffffff82169050919050565b600061034a8261031f565b9050919050565b61035a8161033f565b82525050565b60006020820190506103756000830184610351565b92915050565b7f506f6c6c2068617320656e646564000000000000000000000000000000000000600082015250565b60006103b1600e8361026e565b91506103bc8261037b565b602082019050919050565b600060208201905081810360008301526103e0816103a4565b9050919050565b60006040820190506103fc6000830185610351565b61040960208301846102f5565b939250505056fea2646970667358221220a6f5baee20aad65fb4ca0bcc66d0e5d9b884afbe2dfc49927be9b5ae4149433e64736f6c63430008130033a26469706673582212204a38d781af5061051b86da83cf72e4e3a8a2b631f5ac688f415bde31e26290ed64736f6c63430008130033","opcodes":"PUSH1 0x80 PUSH1 0x40 MSTORE CALLVALUE DUP1 ISZERO PUSH2 0x10 JUMPI PUSH1 0x0 DUP1 REVERT JUMPDEST POP PUSH2 0x1913 DUP1 PUSH2 0x20 PUSH1 0x0 CODECOPY PUSH1 0x0 RETURN INVALID PUSH1 0x80 PUSH1 0x40 MSTORE CALLVALUE DUP1 ISZERO PUSH3 0x11 JUMPI PUSH1 0x0 DUP1 REVERT JUMPDEST POP PUSH1 0x4 CALLDATASIZE LT PUSH3 0x5E JUMPI PUSH1 0x0 CALLDATALOAD PUSH1 0xE0 SHR DUP1 PUSH4 0x1A8CBCAA EQ PUSH3 0x63 JUMPI DUP1 PUSH4 0xA446B900 EQ PUSH3 0x9D JUMPI DUP1 PUSH4 0xAC2F0074 EQ PUSH3 0xBD JUMPI DUP1 PUSH4 0xB384ABEF EQ PUSH3 0xF6 JUMPI DUP1 PUSH4 0xB55141B7 EQ PUSH3 0x116 JUMPI JUMPDEST PUSH1 0x0 DUP1 REVERT JUMPDEST PUSH3 0x81 PUSH1 0x4 DUP1 CALLDATASIZE SUB DUP2 ADD SWAP1 PUSH3 0x7B SWAP2 SWAP1 PUSH3 0x9A5 JUMP JUMPDEST PUSH3 0x136 JUMP JUMPDEST PUSH1 0x40 MLOAD PUSH3 0x94 SWAP6 SWAP5 SWAP4 SWAP3 SWAP2 SWAP1 PUSH3 0xB85 JUMP JUMPDEST PUSH1 0x40 MLOAD DUP1 SWAP2 SUB SWAP1 RETURN JUMPDEST PUSH3 0xBB PUSH1 0x4 DUP1 CALLDATASIZE SUB DUP2 ADD SWAP1 PUSH3 0xB5 SWAP2 SWAP1 PUSH3 0xC1A JUMP JUMPDEST PUSH3 0x22A JUMP JUMPDEST STOP JUMPDEST PUSH3 0xDB PUSH1 0x4 DUP1 CALLDATASIZE SUB DUP2 ADD SWAP1 PUSH3 0xD5 SWAP2 SWAP1 PUSH3 0x9A5 JUMP JUMPDEST PUSH3 0x547 JUMP JUMPDEST PUSH1 0x40 MLOAD PUSH3 0xED SWAP5 SWAP4 SWAP3 SWAP2 SWAP1 PUSH3 0xC61 JUMP JUMPDEST PUSH1 0x40 MLOAD DUP1 SWAP2 SUB SWAP1 RETURN JUMPDEST PUSH3 0x114 PUSH1 0x4 DUP1 CALLDATASIZE SUB DUP2 ADD SWAP1 PUSH3 0x10E SWAP2 SWAP1 PUSH3 0xCAE JUMP JUMPDEST PUSH3 0x595 JUMP JUMPDEST STOP JUMPDEST PUSH3 0x134 PUSH1 0x4 DUP1 CALLDATASIZE SUB DUP2 ADD SWAP1 PUSH3 0x12E SWAP2 SWAP1 PUSH3 0xEC3 JUMP JUMPDEST PUSH3 0x7A2 JUMP JUMPDEST STOP JUMPDEST PUSH1 0x0 PUSH1 0x60 PUSH1 0x0 DUP1 PUSH1 0x0 DUP1 PUSH1 0x0 DUP8 DUP2 SLOAD DUP2 LT PUSH3 0x157 JUMPI PUSH3 0x156 PUSH3 0xF6A JUMP JUMPDEST JUMPDEST SWAP1 PUSH1 0x0 MSTORE PUSH1 0x20 PUSH1 0x0 KECCAK256 SWAP1 PUSH1 0x6 MUL ADD SWAP1 POP DUP1 PUSH1 0x0 ADD SLOAD DUP2 PUSH1 0x1 ADD DUP3 PUSH1 0x2 ADD SLOAD DUP4 PUSH1 0x4 ADD PUSH1 0x0 SWAP1 SLOAD SWAP1 PUSH2 0x100 EXP SWAP1 DIV PUSH1 0xFF AND DUP5 PUSH1 0x5 ADD SLOAD DUP4 DUP1 SLOAD DUP1 PUSH1 0x20 MUL PUSH1 0x20 ADD PUSH1 0x40 MLOAD SWAP1 DUP2 ADD PUSH1 0x40 MSTORE DUP1 SWAP3 SWAP2 SWAP1 DUP2 DUP2 MSTORE PUSH1 0x20 ADD DUP3 DUP1 SLOAD DUP1 ISZERO PUSH3 0x20F JUMPI PUSH1 0x20 MUL DUP3 ADD SWAP2 SWAP1 PUSH1 0x0 MSTORE PUSH1 0x20 PUSH1 0x0 KECCAK256 SWAP1 JUMPDEST DUP2 PUSH1 0x0 SWAP1 SLOAD SWAP1 PUSH2 0x100 EXP SWAP1 DIV PUSH20 0xFFFFFFFFFFFFFFFFFFFFFFFFFFFFFFFFFFFFFFFF AND PUSH20 0xFFFFFFFFFFFFFFFFFFFFFFFFFFFFFFFFFFFFFFFF AND DUP2 MSTORE PUSH1 0x20 ADD SWAP1 PUSH1 0x1 ADD SWAP1 DUP1 DUP4 GT PUSH3 0x1C4 JUMPI JUMPDEST POP POP POP POP POP SWAP4 POP SWAP6 POP SWAP6 POP SWAP6 POP SWAP6 POP SWAP6 POP POP SWAP2 SWAP4 SWAP6 SWAP1 SWAP3 SWAP5 POP JUMP JUMPDEST PUSH1 0x0 DUP2 DUP2 SLOAD DUP2 LT PUSH3 0x241 JUMPI PUSH3 0x240 PUSH3 0xF6A JUMP JUMPDEST JUMPDEST SWAP1 PUSH1 0x0 MSTORE PUSH1 0x20 PUSH1 0x0 KECCAK256 SWAP1 PUSH1 0x6 MUL ADD PUSH1 0x1 ADD PUSH1 0x0 DUP2 SLOAD DUP2 LT PUSH3 0x268 JUMPI PUSH3 0x267 PUSH3 0xF6A JUMP JUMPDEST JUMPDEST SWAP1 PUSH1 0x0 MSTORE PUSH1 0x20 PUSH1 0x0 KECCAK256 ADD PUSH1 0x0 SWAP1 SLOAD SWAP1 PUSH2 0x100 EXP SWAP1 DIV PUSH20 0xFFFFFFFFFFFFFFFFFFFFFFFFFFFFFFFFFFFFFFFF AND PUSH20 0xFFFFFFFFFFFFFFFFFFFFFFFFFFFFFFFFFFFFFFFF AND CALLER PUSH20 0xFFFFFFFFFFFFFFFFFFFFFFFFFFFFFFFFFFFFFFFF AND EQ DUP1 PUSH3 0x360 JUMPI POP PUSH1 0x0 DUP2 DUP2 SLOAD DUP2 LT PUSH3 0x2DF JUMPI PUSH3 0x2DE PUSH3 0xF6A JUMP JUMPDEST JUMPDEST SWAP1 PUSH1 0x0 MSTORE PUSH1 0x20 PUSH1 0x0 KECCAK256 SWAP1 PUSH1 0x6 MUL ADD PUSH1 0x1 ADD PUSH1 0x1 DUP2 SLOAD DUP2 LT PUSH3 0x306 JUMPI PUSH3 0x305 PUSH3 0xF6A JUMP JUMPDEST JUMPDEST SWAP1 PUSH1 0x0 MSTORE PUSH1 0x20 PUSH1 0x0 KECCAK256 ADD PUSH1 0x0 SWAP1 SLOAD SWAP1 PUSH2 0x100 EXP SWAP1 DIV PUSH20 0xFFFFFFFFFFFFFFFFFFFFFFFFFFFFFFFFFFFFFFFF AND PUSH20 0xFFFFFFFFFFFFFFFFFFFFFFFFFFFFFFFFFFFFFFFF AND CALLER PUSH20 0xFFFFFFFFFFFFFFFFFFFFFFFFFFFFFFFFFFFFFFFF AND EQ JUMPDEST PUSH3 0x3A2 JUMPI PUSH1 0x40 MLOAD PUSH32 0x8C379A000000000000000000000000000000000000000000000000000000000 DUP2 MSTORE PUSH1 0x4 ADD PUSH3 0x399 SWAP1 PUSH3 0xFFA JUMP JUMPDEST PUSH1 0x40 MLOAD DUP1 SWAP2 SUB SWAP1 REVERT JUMPDEST PUSH1 0x0 DUP2 DUP2 SLOAD DUP2 LT PUSH3 0x3B9 JUMPI PUSH3 0x3B8 PUSH3 0xF6A JUMP JUMPDEST JUMPDEST SWAP1 PUSH1 0x0 MSTORE PUSH1 0x20 PUSH1 0x0 KECCAK256 SWAP1 PUSH1 0x6 MUL ADD PUSH1 0x2 ADD SLOAD TIMESTAMP LT PUSH3 0x40F JUMPI PUSH1 0x40 MLOAD PUSH32 0x8C379A000000000000000000000000000000000000000000000000000000000 DUP2 MSTORE PUSH1 0x4 ADD PUSH3 0x406 SWAP1 PUSH3 0x106C JUMP JUMPDEST PUSH1 0x40 MLOAD DUP1 SWAP2 SUB SWAP1 REVERT JUMPDEST PUSH1 0x0 DUP2 DUP2 SLOAD DUP2 LT PUSH3 0x426 JUMPI PUSH3 0x425 PUSH3 0xF6A JUMP JUMPDEST JUMPDEST SWAP1 PUSH1 0x0 MSTORE PUSH1 0x20 PUSH1 0x0 KECCAK256 SWAP1 PUSH1 0x6 MUL ADD PUSH1 0x3 ADD PUSH1 0x0 DUP4 PUSH20 0xFFFFFFFFFFFFFFFFFFFFFFFFFFFFFFFFFFFFFFFF AND PUSH20 0xFFFFFFFFFFFFFFFFFFFFFFFFFFFFFFFFFFFFFFFF AND DUP2 MSTORE PUSH1 0x20 ADD SWAP1 DUP2 MSTORE PUSH1 0x20 ADD PUSH1 0x0 KECCAK256 PUSH1 0x0 SWAP1 SLOAD SWAP1 PUSH2 0x100 EXP SWAP1 DIV PUSH1 0xFF AND ISZERO PUSH3 0x4C5 JUMPI PUSH1 0x40 MLOAD PUSH32 0x8C379A000000000000000000000000000000000000000000000000000000000 DUP2 MSTORE PUSH1 0x4 ADD PUSH3 0x4BC SWAP1 PUSH3 0x10DE JUMP JUMPDEST PUSH1 0x40 MLOAD DUP1 SWAP2 SUB SWAP1 REVERT JUMPDEST PUSH1 0x1 PUSH1 0x0 DUP3 DUP2 SLOAD DUP2 LT PUSH3 0x4DE JUMPI PUSH3 0x4DD PUSH3 0xF6A JUMP JUMPDEST JUMPDEST SWAP1 PUSH1 0x0 MSTORE PUSH1 0x20 PUSH1 0x0 KECCAK256 SWAP1 PUSH1 0x6 MUL ADD PUSH1 0x3 ADD PUSH1 0x0 DUP5 PUSH20 0xFFFFFFFFFFFFFFFFFFFFFFFFFFFFFFFFFFFFFFFF AND PUSH20 0xFFFFFFFFFFFFFFFFFFFFFFFFFFFFFFFFFFFFFFFF AND DUP2 MSTORE PUSH1 0x20 ADD SWAP1 DUP2 MSTORE PUSH1 0x20 ADD PUSH1 0x0 KECCAK256 PUSH1 0x0 PUSH2 0x100 EXP DUP2 SLOAD DUP2 PUSH1 0xFF MUL NOT AND SWAP1 DUP4 ISZERO ISZERO MUL OR SWAP1 SSTORE POP POP POP JUMP JUMPDEST PUSH1 0x0 DUP2 DUP2 SLOAD DUP2 LT PUSH3 0x558 JUMPI PUSH1 0x0 DUP1 REVERT JUMPDEST SWAP1 PUSH1 0x0 MSTORE PUSH1 0x20 PUSH1 0x0 KECCAK256 SWAP1 PUSH1 0x6 MUL ADD PUSH1 0x0 SWAP2 POP SWAP1 POP DUP1 PUSH1 0x0 ADD SLOAD SWAP1 DUP1 PUSH1 0x2 ADD SLOAD SWAP1 DUP1 PUSH1 0x4 ADD PUSH1 0x0 SWAP1 SLOAD SWAP1 PUSH2 0x100 EXP SWAP1 DIV PUSH1 0xFF AND SWAP1 DUP1 PUSH1 0x5 ADD SLOAD SWAP1 POP DUP5 JUMP JUMPDEST PUSH1 0x0 DUP1 DUP4 DUP2 SLOAD DUP2 LT PUSH3 0x5AD JUMPI PUSH3 0x5AC PUSH3 0xF6A JUMP JUMPDEST JUMPDEST SWAP1 PUSH1 0x0 MSTORE PUSH1 0x20 PUSH1 0x0 KECCAK256 SWAP1 PUSH1 0x6 MUL ADD SWAP1 POP DUP1 PUSH1 0x2 ADD SLOAD TIMESTAMP LT PUSH3 0x606 JUMPI PUSH1 0x40 MLOAD PUSH32 0x8C379A000000000000000000000000000000000000000000000000000000000 DUP2 MSTORE PUSH1 0x4 ADD PUSH3 0x5FD SWAP1 PUSH3 0x106C JUMP JUMPDEST PUSH1 0x40 MLOAD DUP1 SWAP2 SUB SWAP1 REVERT JUMPDEST DUP1 PUSH1 0x3 ADD PUSH1 0x0 CALLER PUSH20 0xFFFFFFFFFFFFFFFFFFFFFFFFFFFFFFFFFFFFFFFF AND PUSH20 0xFFFFFFFFFFFFFFFFFFFFFFFFFFFFFFFFFFFFFFFF AND DUP2 MSTORE PUSH1 0x20 ADD SWAP1 DUP2 MSTORE PUSH1 0x20 ADD PUSH1 0x0 KECCAK256 PUSH1 0x0 SWAP1 SLOAD SWAP1 PUSH2 0x100 EXP SWAP1 DIV PUSH1 0xFF AND ISZERO PUSH3 0x698 JUMPI PUSH1 0x40 MLOAD PUSH32 0x8C379A000000000000000000000000000000000000000000000000000000000 DUP2 MSTORE PUSH1 0x4 ADD PUSH3 0x68F SWAP1 PUSH3 0x1150 JUMP JUMPDEST PUSH1 0x40 MLOAD DUP1 SWAP2 SUB SWAP1 REVERT JUMPDEST PUSH1 0x0 DUP2 PUSH1 0x1 ADD DUP4 DUP2 SLOAD DUP2 LT PUSH3 0x6B3 JUMPI PUSH3 0x6B2 PUSH3 0xF6A JUMP JUMPDEST JUMPDEST SWAP1 PUSH1 0x0 MSTORE PUSH1 0x20 PUSH1 0x0 KECCAK256 ADD PUSH1 0x0 SWAP1 SLOAD SWAP1 PUSH2 0x100 EXP SWAP1 DIV PUSH20 0xFFFFFFFFFFFFFFFFFFFFFFFFFFFFFFFFFFFFFFFF AND SWAP1 POP DUP1 PUSH20 0xFFFFFFFFFFFFFFFFFFFFFFFFFFFFFFFFFFFFFFFF AND PUSH4 0xFB524CE PUSH1 0x40 MLOAD DUP2 PUSH4 0xFFFFFFFF AND PUSH1 0xE0 SHL DUP2 MSTORE PUSH1 0x4 ADD PUSH1 0x0 PUSH1 0x40 MLOAD DUP1 DUP4 SUB DUP2 PUSH1 0x0 DUP8 DUP1 EXTCODESIZE ISZERO DUP1 ISZERO PUSH3 0x729 JUMPI PUSH1 0x0 DUP1 REVERT JUMPDEST POP GAS CALL ISZERO DUP1 ISZERO PUSH3 0x73E JUMPI RETURNDATASIZE PUSH1 0x0 DUP1 RETURNDATACOPY RETURNDATASIZE PUSH1 0x0 REVERT JUMPDEST POP POP POP POP PUSH1 0x1 DUP3 PUSH1 0x3 ADD PUSH1 0x0 CALLER PUSH20 0xFFFFFFFFFFFFFFFFFFFFFFFFFFFFFFFFFFFFFFFF AND PUSH20 0xFFFFFFFFFFFFFFFFFFFFFFFFFFFFFFFFFFFFFFFF AND DUP2 MSTORE PUSH1 0x20 ADD SWAP1 DUP2 MSTORE PUSH1 0x20 ADD PUSH1 0x0 KECCAK256 PUSH1 0x0 PUSH2 0x100 EXP DUP2 SLOAD DUP2 PUSH1 0xFF MUL NOT AND SWAP1 DUP4 ISZERO ISZERO MUL OR SWAP1 SSTORE POP POP POP POP POP JUMP JUMPDEST PUSH1 0x0 PUSH1 0x1 DUP2 PUSH1 0x1 DUP2 SLOAD ADD DUP1 DUP3 SSTORE DUP1 SWAP2 POP POP SUB SWAP1 PUSH1 0x0 MSTORE PUSH1 0x20 PUSH1 0x0 KECCAK256 SWAP1 POP POP PUSH1 0x0 DUP1 PUSH1 0x1 PUSH1 0x0 DUP1 SLOAD SWAP1 POP PUSH3 0x7D7 SWAP2 SWAP1 PUSH3 0x11A1 JUMP JUMPDEST DUP2 SLOAD DUP2 LT PUSH3 0x7EB JUMPI PUSH3 0x7EA PUSH3 0xF6A JUMP JUMPDEST JUMPDEST SWAP1 PUSH1 0x0 MSTORE PUSH1 0x20 PUSH1 0x0 KECCAK256 SWAP1 PUSH1 0x6 MUL ADD SWAP1 POP DUP6 DUP2 PUSH1 0x0 ADD DUP2 SWAP1 SSTORE POP DUP5 TIMESTAMP PUSH3 0x812 SWAP2 SWAP1 PUSH3 0x11DC JUMP JUMPDEST DUP2 PUSH1 0x2 ADD DUP2 SWAP1 SSTORE POP DUP3 DUP2 PUSH1 0x4 ADD PUSH1 0x0 PUSH2 0x100 EXP DUP2 SLOAD DUP2 PUSH1 0xFF MUL NOT AND SWAP1 DUP4 PUSH1 0x0 DUP2 GT ISZERO PUSH3 0x844 JUMPI PUSH3 0x843 PUSH3 0xB05 JUMP JUMPDEST JUMPDEST MUL OR SWAP1 SSTORE POP DUP2 DUP2 PUSH1 0x5 ADD DUP2 SWAP1 SSTORE POP PUSH1 0x0 JUMPDEST DUP5 MLOAD DUP2 LT ISZERO PUSH3 0x93F JUMPI PUSH1 0x0 ADDRESS DUP7 DUP4 DUP2 MLOAD DUP2 LT PUSH3 0x878 JUMPI PUSH3 0x877 PUSH3 0xF6A JUMP JUMPDEST JUMPDEST PUSH1 0x20 MUL PUSH1 0x20 ADD ADD MLOAD DUP5 PUSH1 0x2 ADD SLOAD DUP5 PUSH1 0x40 MLOAD PUSH3 0x894 SWAP1 PUSH3 0x948 JUMP JUMPDEST PUSH3 0x8A3 SWAP5 SWAP4 SWAP3 SWAP2 SWAP1 PUSH3 0x1228 JUMP JUMPDEST PUSH1 0x40 MLOAD DUP1 SWAP2 SUB SWAP1 PUSH1 0x0 CREATE DUP1 ISZERO DUP1 ISZERO PUSH3 0x8C0 JUMPI RETURNDATASIZE PUSH1 0x0 DUP1 RETURNDATACOPY RETURNDATASIZE PUSH1 0x0 REVERT JUMPDEST POP SWAP1 POP DUP3 PUSH1 0x1 ADD DUP2 SWAP1 DUP1 PUSH1 0x1 DUP2 SLOAD ADD DUP1 DUP3 SSTORE DUP1 SWAP2 POP POP PUSH1 0x1 SWAP1 SUB SWAP1 PUSH1 0x0 MSTORE PUSH1 0x20 PUSH1 0x0 KECCAK256 ADD PUSH1 0x0 SWAP1 SWAP2 SWAP1 SWAP2 SWAP1 SWAP2 PUSH2 0x100 EXP DUP2 SLOAD DUP2 PUSH20 0xFFFFFFFFFFFFFFFFFFFFFFFFFFFFFFFFFFFFFFFF MUL NOT AND SWAP1 DUP4 PUSH20 0xFFFFFFFFFFFFFFFFFFFFFFFFFFFFFFFFFFFFFFFF AND MUL OR SWAP1 SSTORE POP POP DUP1 DUP1 PUSH3 0x936 SWAP1 PUSH3 0x1275 JUMP JUMPDEST SWAP2 POP POP PUSH3 0x855 JUMP JUMPDEST POP POP POP POP POP POP POP JUMP JUMPDEST PUSH2 0x61B DUP1 PUSH3 0x12C3 DUP4 CODECOPY ADD SWAP1 JUMP JUMPDEST PUSH1 0x0 PUSH1 0x40 MLOAD SWAP1 POP SWAP1 JUMP JUMPDEST PUSH1 0x0 DUP1 REVERT JUMPDEST PUSH1 0x0 DUP1 REVERT JUMPDEST PUSH1 0x0 DUP2 SWAP1 POP SWAP2 SWAP1 POP JUMP JUMPDEST PUSH3 0x97F DUP2 PUSH3 0x96A JUMP JUMPDEST DUP2 EQ PUSH3 0x98B JUMPI PUSH1 0x0 DUP1 REVERT JUMPDEST POP JUMP JUMPDEST PUSH1 0x0 DUP2 CALLDATALOAD SWAP1 POP PUSH3 0x99F DUP2 PUSH3 0x974 JUMP JUMPDEST SWAP3 SWAP2 POP POP JUMP JUMPDEST PUSH1 0x0 PUSH1 0x20 DUP3 DUP5 SUB SLT ISZERO PUSH3 0x9BE JUMPI PUSH3 0x9BD PUSH3 0x960 JUMP JUMPDEST JUMPDEST PUSH1 0x0 PUSH3 0x9CE DUP5 DUP3 DUP6 ADD PUSH3 0x98E JUMP JUMPDEST SWAP2 POP POP SWAP3 SWAP2 POP POP JUMP JUMPDEST PUSH1 0x0 DUP2 SWAP1 POP SWAP2 SWAP1 POP JUMP JUMPDEST PUSH3 0x9EC DUP2 PUSH3 0x9D7 JUMP JUMPDEST DUP3 MSTORE POP POP JUMP JUMPDEST PUSH1 0x0 DUP2 MLOAD SWAP1 POP SWAP2 SWAP1 POP JUMP JUMPDEST PUSH1 0x0 DUP3 DUP3 MSTORE PUSH1 0x20 DUP3 ADD SWAP1 POP SWAP3 SWAP2 POP POP JUMP JUMPDEST PUSH1 0x0 DUP2 SWAP1 POP PUSH1 0x20 DUP3 ADD SWAP1 POP SWAP2 SWAP1 POP JUMP JUMPDEST PUSH1 0x0 PUSH20 0xFFFFFFFFFFFFFFFFFFFFFFFFFFFFFFFFFFFFFFFF DUP3 AND SWAP1 POP SWAP2 SWAP1 POP JUMP JUMPDEST PUSH1 0x0 PUSH3 0xA4B DUP3 PUSH3 0xA1E JUMP JUMPDEST SWAP1 POP SWAP2 SWAP1 POP JUMP JUMPDEST PUSH3 0xA5D DUP2 PUSH3 0xA3E JUMP JUMPDEST DUP3 MSTORE POP POP JUMP JUMPDEST PUSH1 0x0 PUSH3 0xA71 DUP4 DUP4 PUSH3 0xA52 JUMP JUMPDEST PUSH1 0x20 DUP4 ADD SWAP1 POP SWAP3 SWAP2 POP POP JUMP JUMPDEST PUSH1 0x0 PUSH1 0x20 DUP3 ADD SWAP1 POP SWAP2 SWAP1 POP JUMP JUMPDEST PUSH1 0x0 PUSH3 0xA97 DUP3 PUSH3 0x9F2 JUMP JUMPDEST PUSH3 0xAA3 DUP2 DUP6 PUSH3 0x9FD JUMP JUMPDEST SWAP4 POP PUSH3 0xAB0 DUP4 PUSH3 0xA0E JUMP JUMPDEST DUP1 PUSH1 0x0 JUMPDEST DUP4 DUP2 LT ISZERO PUSH3 0xAE7 JUMPI DUP2 MLOAD PUSH3 0xACB DUP9 DUP3 PUSH3 0xA63 JUMP JUMPDEST SWAP8 POP PUSH3 0xAD8 DUP4 PUSH3 0xA7D JUMP JUMPDEST SWAP3 POP POP PUSH1 0x1 DUP2 ADD SWAP1 POP PUSH3 0xAB4 JUMP JUMPDEST POP DUP6 SWAP4 POP POP POP POP SWAP3 SWAP2 POP POP JUMP JUMPDEST PUSH3 0xAFF DUP2 PUSH3 0x96A JUMP JUMPDEST DUP3 MSTORE POP POP JUMP JUMPDEST PUSH32 0x4E487B7100000000000000000000000000000000000000000000000000000000 PUSH1 0x0 MSTORE PUSH1 0x21 PUSH1 0x4 MSTORE PUSH1 0x24 PUSH1 0x0 REVERT JUMPDEST PUSH1 0x1 DUP2 LT PUSH3 0xB48 JUMPI PUSH3 0xB47 PUSH3 0xB05 JUMP JUMPDEST JUMPDEST POP JUMP JUMPDEST PUSH1 0x0 DUP2 SWAP1 POP PUSH3 0xB5B DUP3 PUSH3 0xB34 JUMP JUMPDEST SWAP2 SWAP1 POP JUMP JUMPDEST PUSH1 0x0 PUSH3 0xB6D DUP3 PUSH3 0xB4B JUMP JUMPDEST SWAP1 POP SWAP2 SWAP1 POP JUMP JUMPDEST PUSH3 0xB7F DUP2 PUSH3 0xB60 JUMP JUMPDEST DUP3 MSTORE POP POP JUMP JUMPDEST PUSH1 0x0 PUSH1 0xA0 DUP3 ADD SWAP1 POP PUSH3 0xB9C PUSH1 0x0 DUP4 ADD DUP9 PUSH3 0x9E1 JUMP JUMPDEST DUP2 DUP2 SUB PUSH1 0x20 DUP4 ADD MSTORE PUSH3 0xBB0 DUP2 DUP8 PUSH3 0xA8A JUMP JUMPDEST SWAP1 POP PUSH3 0xBC1 PUSH1 0x40 DUP4 ADD DUP7 PUSH3 0xAF4 JUMP JUMPDEST PUSH3 0xBD0 PUSH1 0x60 DUP4 ADD DUP6 PUSH3 0xB74 JUMP JUMPDEST PUSH3 0xBDF PUSH1 0x80 DUP4 ADD DUP5 PUSH3 0x9E1 JUMP JUMPDEST SWAP7 SWAP6 POP POP POP POP POP POP JUMP JUMPDEST PUSH3 0xBF4 DUP2 PUSH3 0xA3E JUMP JUMPDEST DUP2 EQ PUSH3 0xC00 JUMPI PUSH1 0x0 DUP1 REVERT JUMPDEST POP JUMP JUMPDEST PUSH1 0x0 DUP2 CALLDATALOAD SWAP1 POP PUSH3 0xC14 DUP2 PUSH3 0xBE9 JUMP JUMPDEST SWAP3 SWAP2 POP POP JUMP JUMPDEST PUSH1 0x0 DUP1 PUSH1 0x40 DUP4 DUP6 SUB SLT ISZERO PUSH3 0xC34 JUMPI PUSH3 0xC33 PUSH3 0x960 JUMP JUMPDEST JUMPDEST PUSH1 0x0 PUSH3 0xC44 DUP6 DUP3 DUP7 ADD PUSH3 0xC03 JUMP JUMPDEST SWAP3 POP POP PUSH1 0x20 PUSH3 0xC57 DUP6 DUP3 DUP7 ADD PUSH3 0x98E JUMP JUMPDEST SWAP2 POP POP SWAP3 POP SWAP3 SWAP1 POP JUMP JUMPDEST PUSH1 0x0 PUSH1 0x80 DUP3 ADD SWAP1 POP PUSH3 0xC78 PUSH1 0x0 DUP4 ADD DUP8 PUSH3 0x9E1 JUMP JUMPDEST PUSH3 0xC87 PUSH1 0x20 DUP4 ADD DUP7 PUSH3 0xAF4 JUMP JUMPDEST PUSH3 0xC96 PUSH1 0x40 DUP4 ADD DUP6 PUSH3 0xB74 JUMP JUMPDEST PUSH3 0xCA5 PUSH1 0x60 DUP4 ADD DUP5 PUSH3 0x9E1 JUMP JUMPDEST SWAP6 SWAP5 POP POP POP POP POP JUMP JUMPDEST PUSH1 0x0 DUP1 PUSH1 0x40 DUP4 DUP6 SUB SLT ISZERO PUSH3 0xCC8 JUMPI PUSH3 0xCC7 PUSH3 0x960 JUMP JUMPDEST JUMPDEST PUSH1 0x0 PUSH3 0xCD8 DUP6 DUP3 DUP7 ADD PUSH3 0x98E JUMP JUMPDEST SWAP3 POP POP PUSH1 0x20 PUSH3 0xCEB DUP6 DUP3 DUP7 ADD PUSH3 0x98E JUMP JUMPDEST SWAP2 POP POP SWAP3 POP SWAP3 SWAP1 POP JUMP JUMPDEST PUSH3 0xD00 DUP2 PUSH3 0x9D7 JUMP JUMPDEST DUP2 EQ PUSH3 0xD0C JUMPI PUSH1 0x0 DUP1 REVERT JUMPDEST POP JUMP JUMPDEST PUSH1 0x0 DUP2 CALLDATALOAD SWAP1 POP PUSH3 0xD20 DUP2 PUSH3 0xCF5 JUMP JUMPDEST SWAP3 SWAP2 POP POP JUMP JUMPDEST PUSH1 0x0 DUP1 REVERT JUMPDEST PUSH1 0x0 PUSH1 0x1F NOT PUSH1 0x1F DUP4 ADD AND SWAP1 POP SWAP2 SWAP1 POP JUMP JUMPDEST PUSH32 0x4E487B7100000000000000000000000000000000000000000000000000000000 PUSH1 0x0 MSTORE PUSH1 0x41 PUSH1 0x4 MSTORE PUSH1 0x24 PUSH1 0x0 REVERT JUMPDEST PUSH3 0xD76 DUP3 PUSH3 0xD2B JUMP JUMPDEST DUP2 ADD DUP2 DUP2 LT PUSH8 0xFFFFFFFFFFFFFFFF DUP3 GT OR ISZERO PUSH3 0xD98 JUMPI PUSH3 0xD97 PUSH3 0xD3C JUMP JUMPDEST JUMPDEST DUP1 PUSH1 0x40 MSTORE POP POP POP JUMP JUMPDEST PUSH1 0x0 PUSH3 0xDAD PUSH3 0x956 JUMP JUMPDEST SWAP1 POP PUSH3 0xDBB DUP3 DUP3 PUSH3 0xD6B JUMP JUMPDEST SWAP2 SWAP1 POP JUMP JUMPDEST PUSH1 0x0 PUSH8 0xFFFFFFFFFFFFFFFF DUP3 GT ISZERO PUSH3 0xDDE JUMPI PUSH3 0xDDD PUSH3 0xD3C JUMP JUMPDEST JUMPDEST PUSH1 0x20 DUP3 MUL SWAP1 POP PUSH1 0x20 DUP2 ADD SWAP1 POP SWAP2 SWAP1 POP JUMP JUMPDEST PUSH1 0x0 DUP1 REVERT JUMPDEST PUSH1 0x0 PUSH3 0xE0B PUSH3 0xE05 DUP5 PUSH3 0xDC0 JUMP JUMPDEST PUSH3 0xDA1 JUMP JUMPDEST SWAP1 POP DUP1 DUP4 DUP3 MSTORE PUSH1 0x20 DUP3 ADD SWAP1 POP PUSH1 0x20 DUP5 MUL DUP4 ADD DUP6 DUP2 GT ISZERO PUSH3 0xE31 JUMPI PUSH3 0xE30 PUSH3 0xDEF JUMP JUMPDEST JUMPDEST DUP4 JUMPDEST DUP2 DUP2 LT ISZERO PUSH3 0xE5E JUMPI DUP1 PUSH3 0xE49 DUP9 DUP3 PUSH3 0xD0F JUMP JUMPDEST DUP5 MSTORE PUSH1 0x20 DUP5 ADD SWAP4 POP POP PUSH1 0x20 DUP2 ADD SWAP1 POP PUSH3 0xE33 JUMP JUMPDEST POP POP POP SWAP4 SWAP3 POP POP POP JUMP JUMPDEST PUSH1 0x0 DUP3 PUSH1 0x1F DUP4 ADD SLT PUSH3 0xE80 JUMPI PUSH3 0xE7F PUSH3 0xD26 JUMP JUMPDEST JUMPDEST DUP2 CALLDATALOAD PUSH3 0xE92 DUP5 DUP3 PUSH1 0x20 DUP7 ADD PUSH3 0xDF4 JUMP JUMPDEST SWAP2 POP POP SWAP3 SWAP2 POP POP JUMP JUMPDEST PUSH1 0x1 DUP2 LT PUSH3 0xEA9 JUMPI PUSH1 0x0 DUP1 REVERT JUMPDEST POP JUMP JUMPDEST PUSH1 0x0 DUP2 CALLDATALOAD SWAP1 POP PUSH3 0xEBD DUP2 PUSH3 0xE9B JUMP JUMPDEST SWAP3 SWAP2 POP POP JUMP JUMPDEST PUSH1 0x0 DUP1 PUSH1 0x0 DUP1 PUSH1 0x0 PUSH1 0xA0 DUP7 DUP9 SUB SLT ISZERO PUSH3 0xEE2 JUMPI PUSH3 0xEE1 PUSH3 0x960 JUMP JUMPDEST JUMPDEST PUSH1 0x0 PUSH3 0xEF2 DUP9 DUP3 DUP10 ADD PUSH3 0xD0F JUMP JUMPDEST SWAP6 POP POP PUSH1 0x20 PUSH3 0xF05 DUP9 DUP3 DUP10 ADD PUSH3 0x98E JUMP JUMPDEST SWAP5 POP POP PUSH1 0x40 DUP7 ADD CALLDATALOAD PUSH8 0xFFFFFFFFFFFFFFFF DUP2 GT ISZERO PUSH3 0xF29 JUMPI PUSH3 0xF28 PUSH3 0x965 JUMP JUMPDEST JUMPDEST PUSH3 0xF37 DUP9 DUP3 DUP10 ADD PUSH3 0xE68 JUMP JUMPDEST SWAP4 POP POP PUSH1 0x60 PUSH3 0xF4A DUP9 DUP3 DUP10 ADD PUSH3 0xEAC JUMP JUMPDEST SWAP3 POP POP PUSH1 0x80 PUSH3 0xF5D DUP9 DUP3 DUP10 ADD PUSH3 0xD0F JUMP JUMPDEST SWAP2 POP POP SWAP3 SWAP6 POP SWAP3 SWAP6 SWAP1 SWAP4 POP JUMP JUMPDEST PUSH32 0x4E487B7100000000000000000000000000000000000000000000000000000000 PUSH1 0x0 MSTORE PUSH1 0x32 PUSH1 0x4 MSTORE PUSH1 0x24 PUSH1 0x0 REVERT JUMPDEST PUSH1 0x0 DUP3 DUP3 MSTORE PUSH1 0x20 DUP3 ADD SWAP1 POP SWAP3 SWAP2 POP POP JUMP JUMPDEST PUSH32 0x496E76616C6964206F7074696F6E206164647265737300000000000000000000 PUSH1 0x0 DUP3 ADD MSTORE POP JUMP JUMPDEST PUSH1 0x0 PUSH3 0xFE2 PUSH1 0x16 DUP4 PUSH3 0xF99 JUMP JUMPDEST SWAP2 POP PUSH3 0xFEF DUP3 PUSH3 0xFAA JUMP JUMPDEST PUSH1 0x20 DUP3 ADD SWAP1 POP SWAP2 SWAP1 POP JUMP JUMPDEST PUSH1 0x0 PUSH1 0x20 DUP3 ADD SWAP1 POP DUP2 DUP2 SUB PUSH1 0x0 DUP4 ADD MSTORE PUSH3 0x1015 DUP2 PUSH3 0xFD3 JUMP JUMPDEST SWAP1 POP SWAP2 SWAP1 POP JUMP JUMPDEST PUSH32 0x506F6C6C2068617320656E646564000000000000000000000000000000000000 PUSH1 0x0 DUP3 ADD MSTORE POP JUMP JUMPDEST PUSH1 0x0 PUSH3 0x1054 PUSH1 0xE DUP4 PUSH3 0xF99 JUMP JUMPDEST SWAP2 POP PUSH3 0x1061 DUP3 PUSH3 0x101C JUMP JUMPDEST PUSH1 0x20 DUP3 ADD SWAP1 POP SWAP2 SWAP1 POP JUMP JUMPDEST PUSH1 0x0 PUSH1 0x20 DUP3 ADD SWAP1 POP DUP2 DUP2 SUB PUSH1 0x0 DUP4 ADD MSTORE PUSH3 0x1087 DUP2 PUSH3 0x1045 JUMP JUMPDEST SWAP1 POP SWAP2 SWAP1 POP JUMP JUMPDEST PUSH32 0x416C726561647920766F74656420696E207468697320706F6C6C000000000000 PUSH1 0x0 DUP3 ADD MSTORE POP JUMP JUMPDEST PUSH1 0x0 PUSH3 0x10C6 PUSH1 0x1A DUP4 PUSH3 0xF99 JUMP JUMPDEST SWAP2 POP PUSH3 0x10D3 DUP3 PUSH3 0x108E JUMP JUMPDEST PUSH1 0x20 DUP3 ADD SWAP1 POP SWAP2 SWAP1 POP JUMP JUMPDEST PUSH1 0x0 PUSH1 0x20 DUP3 ADD SWAP1 POP DUP2 DUP2 SUB PUSH1 0x0 DUP4 ADD MSTORE PUSH3 0x10F9 DUP2 PUSH3 0x10B7 JUMP JUMPDEST SWAP1 POP SWAP2 SWAP1 POP JUMP JUMPDEST PUSH32 0x416C726561647920766F74656400000000000000000000000000000000000000 PUSH1 0x0 DUP3 ADD MSTORE POP JUMP JUMPDEST PUSH1 0x0 PUSH3 0x1138 PUSH1 0xD DUP4 PUSH3 0xF99 JUMP JUMPDEST SWAP2 POP PUSH3 0x1145 DUP3 PUSH3 0x1100 JUMP JUMPDEST PUSH1 0x20 DUP3 ADD SWAP1 POP SWAP2 SWAP1 POP JUMP JUMPDEST PUSH1 0x0 PUSH1 0x20 DUP3 ADD SWAP1 POP DUP2 DUP2 SUB PUSH1 0x0 DUP4 ADD MSTORE PUSH3 0x116B DUP2 PUSH3 0x1129 JUMP JUMPDEST SWAP1 POP SWAP2 SWAP1 POP JUMP JUMPDEST PUSH32 0x4E487B7100000000000000000000000000000000000000000000000000000000 PUSH1 0x0 MSTORE PUSH1 0x11 PUSH1 0x4 MSTORE PUSH1 0x24 PUSH1 0x0 REVERT JUMPDEST PUSH1 0x0 PUSH3 0x11AE DUP3 PUSH3 0x96A JUMP JUMPDEST SWAP2 POP PUSH3 0x11BB DUP4 PUSH3 0x96A JUMP JUMPDEST SWAP3 POP DUP3 DUP3 SUB SWAP1 POP DUP2 DUP2 GT ISZERO PUSH3 0x11D6 JUMPI PUSH3 0x11D5 PUSH3 0x1172 JUMP JUMPDEST JUMPDEST SWAP3 SWAP2 POP POP JUMP JUMPDEST PUSH1 0x0 PUSH3 0x11E9 DUP3 PUSH3 0x96A JUMP JUMPDEST SWAP2 POP PUSH3 0x11F6 DUP4 PUSH3 0x96A JUMP JUMPDEST SWAP3 POP DUP3 DUP3 ADD SWAP1 POP DUP1 DUP3 GT ISZERO PUSH3 0x1211 JUMPI PUSH3 0x1210 PUSH3 0x1172 JUMP JUMPDEST JUMPDEST SWAP3 SWAP2 POP POP JUMP JUMPDEST PUSH3 0x1222 DUP2 PUSH3 0xA3E JUMP JUMPDEST DUP3 MSTORE POP POP JUMP JUMPDEST PUSH1 0x0 PUSH1 0x80 DUP3 ADD SWAP1 POP PUSH3 0x123F PUSH1 0x0 DUP4 ADD DUP8 PUSH3 0x1217 JUMP JUMPDEST PUSH3 0x124E PUSH1 0x20 DUP4 ADD DUP7 PUSH3 0x9E1 JUMP JUMPDEST PUSH3 0x125D PUSH1 0x40 DUP4 ADD DUP6 PUSH3 0xAF4 JUMP JUMPDEST PUSH3 0x126C PUSH1 0x60 DUP4 ADD DUP5 PUSH3 0xAF4 JUMP JUMPDEST SWAP6 SWAP5 POP POP POP POP POP JUMP JUMPDEST PUSH1 0x0 PUSH3 0x1282 DUP3 PUSH3 0x96A JUMP JUMPDEST SWAP2 POP PUSH32 0xFFFFFFFFFFFFFFFFFFFFFFFFFFFFFFFFFFFFFFFFFFFFFFFFFFFFFFFFFFFFFFFF DUP3 SUB PUSH3 0x12B7 JUMPI PUSH3 0x12B6 PUSH3 0x1172 JUMP JUMPDEST JUMPDEST PUSH1 0x1 DUP3 ADD SWAP1 POP SWAP2 SWAP1 POP JUMP INVALID PUSH1 0x80 PUSH1 0x40 MSTORE CALLVALUE DUP1 ISZERO PUSH2 0x10 JUMPI PUSH1 0x0 DUP1 REVERT JUMPDEST POP PUSH1 0x40 MLOAD PUSH2 0x61B CODESIZE SUB DUP1 PUSH2 0x61B DUP4 CODECOPY DUP2 DUP2 ADD PUSH1 0x40 MSTORE DUP2 ADD SWAP1 PUSH2 0x32 SWAP2 SWAP1 PUSH2 0x15F JUMP JUMPDEST DUP4 PUSH1 0x0 DUP1 PUSH2 0x100 EXP DUP2 SLOAD DUP2 PUSH20 0xFFFFFFFFFFFFFFFFFFFFFFFFFFFFFFFFFFFFFFFF MUL NOT AND SWAP1 DUP4 PUSH20 0xFFFFFFFFFFFFFFFFFFFFFFFFFFFFFFFFFFFFFFFF AND MUL OR SWAP1 SSTORE POP DUP3 PUSH1 0x1 DUP2 SWAP1 SSTORE POP DUP2 PUSH1 0x2 DUP2 SWAP1 SSTORE POP DUP1 PUSH1 0x3 DUP2 SWAP1 SSTORE POP POP POP POP POP PUSH2 0x1C6 JUMP JUMPDEST PUSH1 0x0 DUP1 REVERT JUMPDEST PUSH1 0x0 PUSH20 0xFFFFFFFFFFFFFFFFFFFFFFFFFFFFFFFFFFFFFFFF DUP3 AND SWAP1 POP SWAP2 SWAP1 POP JUMP JUMPDEST PUSH1 0x0 PUSH2 0xC0 DUP3 PUSH2 0x95 JUMP JUMPDEST SWAP1 POP SWAP2 SWAP1 POP JUMP JUMPDEST PUSH2 0xD0 DUP2 PUSH2 0xB5 JUMP JUMPDEST DUP2 EQ PUSH2 0xDB JUMPI PUSH1 0x0 DUP1 REVERT JUMPDEST POP JUMP JUMPDEST PUSH1 0x0 DUP2 MLOAD SWAP1 POP PUSH2 0xED DUP2 PUSH2 0xC7 JUMP JUMPDEST SWAP3 SWAP2 POP POP JUMP JUMPDEST PUSH1 0x0 DUP2 SWAP1 POP SWAP2 SWAP1 POP JUMP JUMPDEST PUSH2 0x106 DUP2 PUSH2 0xF3 JUMP JUMPDEST DUP2 EQ PUSH2 0x111 JUMPI PUSH1 0x0 DUP1 REVERT JUMPDEST POP JUMP JUMPDEST PUSH1 0x0 DUP2 MLOAD SWAP1 POP PUSH2 0x123 DUP2 PUSH2 0xFD JUMP JUMPDEST SWAP3 SWAP2 POP POP JUMP JUMPDEST PUSH1 0x0 DUP2 SWAP1 POP SWAP2 SWAP1 POP JUMP JUMPDEST PUSH2 0x13C DUP2 PUSH2 0x129 JUMP JUMPDEST DUP2 EQ PUSH2 0x147 JUMPI PUSH1 0x0 DUP1 REVERT JUMPDEST POP JUMP JUMPDEST PUSH1 0x0 DUP2 MLOAD SWAP1 POP PUSH2 0x159 DUP2 PUSH2 0x133 JUMP JUMPDEST SWAP3 SWAP2 POP POP JUMP JUMPDEST PUSH1 0x0 DUP1 PUSH1 0x0 DUP1 PUSH1 0x80 DUP6 DUP8 SUB SLT ISZERO PUSH2 0x179 JUMPI PUSH2 0x178 PUSH2 0x90 JUMP JUMPDEST JUMPDEST PUSH1 0x0 PUSH2 0x187 DUP8 DUP3 DUP9 ADD PUSH2 0xDE JUMP JUMPDEST SWAP5 POP POP PUSH1 0x20 PUSH2 0x198 DUP8 DUP3 DUP9 ADD PUSH2 0x114 JUMP JUMPDEST SWAP4 POP POP PUSH1 0x40 PUSH2 0x1A9 DUP8 DUP3 DUP9 ADD PUSH2 0x14A JUMP JUMPDEST SWAP3 POP POP PUSH1 0x60 PUSH2 0x1BA DUP8 DUP3 DUP9 ADD PUSH2 0x14A JUMP JUMPDEST SWAP2 POP POP SWAP3 SWAP6 SWAP2 SWAP5 POP SWAP3 POP JUMP JUMPDEST PUSH2 0x446 DUP1 PUSH2 0x1D5 PUSH1 0x0 CODECOPY PUSH1 0x0 RETURN INVALID PUSH1 0x80 PUSH1 0x40 MSTORE PUSH1 0x4 CALLDATASIZE LT PUSH2 0x43 JUMPI PUSH1 0x0 CALLDATALOAD PUSH1 0xE0 SHR DUP1 PUSH4 0xFB524CE EQ PUSH2 0x9A JUMPI DUP1 PUSH4 0x3197CBB6 EQ PUSH2 0xB1 JUMPI DUP1 PUSH4 0x99100FA5 EQ PUSH2 0xDC JUMPI DUP1 PUSH4 0xD270E7AB EQ PUSH2 0x107 JUMPI PUSH2 0x95 JUMP JUMPDEST CALLDATASIZE PUSH2 0x95 JUMPI PUSH1 0x0 CALLVALUE EQ PUSH2 0x8B JUMPI PUSH1 0x40 MLOAD PUSH32 0x8C379A000000000000000000000000000000000000000000000000000000000 DUP2 MSTORE PUSH1 0x4 ADD PUSH2 0x82 SWAP1 PUSH2 0x2CB JUMP JUMPDEST PUSH1 0x40 MLOAD DUP1 SWAP2 SUB SWAP1 REVERT JUMPDEST PUSH2 0x93 PUSH2 0x132 JUMP JUMPDEST STOP JUMPDEST PUSH1 0x0 DUP1 REVERT JUMPDEST CALLVALUE DUP1 ISZERO PUSH2 0xA6 JUMPI PUSH1 0x0 DUP1 REVERT JUMPDEST POP PUSH2 0xAF PUSH2 0x132 JUMP JUMPDEST STOP JUMPDEST CALLVALUE DUP1 ISZERO PUSH2 0xBD JUMPI PUSH1 0x0 DUP1 REVERT JUMPDEST POP PUSH2 0xC6 PUSH2 0x23E JUMP JUMPDEST PUSH1 0x40 MLOAD PUSH2 0xD3 SWAP2 SWAP1 PUSH2 0x304 JUMP JUMPDEST PUSH1 0x40 MLOAD DUP1 SWAP2 SUB SWAP1 RETURN JUMPDEST CALLVALUE DUP1 ISZERO PUSH2 0xE8 JUMPI PUSH1 0x0 DUP1 REVERT JUMPDEST POP PUSH2 0xF1 PUSH2 0x244 JUMP JUMPDEST PUSH1 0x40 MLOAD PUSH2 0xFE SWAP2 SWAP1 PUSH2 0x304 JUMP JUMPDEST PUSH1 0x40 MLOAD DUP1 SWAP2 SUB SWAP1 RETURN JUMPDEST CALLVALUE DUP1 ISZERO PUSH2 0x113 JUMPI PUSH1 0x0 DUP1 REVERT JUMPDEST POP PUSH2 0x11C PUSH2 0x24A JUMP JUMPDEST PUSH1 0x40 MLOAD PUSH2 0x129 SWAP2 SWAP1 PUSH2 0x360 JUMP JUMPDEST PUSH1 0x40 MLOAD DUP1 SWAP2 SUB SWAP1 RETURN JUMPDEST PUSH1 0x2 SLOAD TIMESTAMP LT PUSH2 0x176 JUMPI PUSH1 0x40 MLOAD PUSH32 0x8C379A000000000000000000000000000000000000000000000000000000000 DUP2 MSTORE PUSH1 0x4 ADD PUSH2 0x16D SWAP1 PUSH2 0x3C7 JUMP JUMPDEST PUSH1 0x40 MLOAD DUP1 SWAP2 SUB SWAP1 REVERT JUMPDEST PUSH1 0x0 DUP1 SLOAD SWAP1 PUSH2 0x100 EXP SWAP1 DIV PUSH20 0xFFFFFFFFFFFFFFFFFFFFFFFFFFFFFFFFFFFFFFFF AND PUSH20 0xFFFFFFFFFFFFFFFFFFFFFFFFFFFFFFFFFFFFFFFF AND PUSH4 0xA446B900 CALLER PUSH1 0x3 SLOAD PUSH1 0x40 MLOAD DUP4 PUSH4 0xFFFFFFFF AND PUSH1 0xE0 SHL DUP2 MSTORE PUSH1 0x4 ADD PUSH2 0x1D3 SWAP3 SWAP2 SWAP1 PUSH2 0x3E7 JUMP JUMPDEST PUSH1 0x0 PUSH1 0x40 MLOAD DUP1 DUP4 SUB DUP2 PUSH1 0x0 DUP8 DUP1 EXTCODESIZE ISZERO DUP1 ISZERO PUSH2 0x1ED JUMPI PUSH1 0x0 DUP1 REVERT JUMPDEST POP GAS CALL ISZERO DUP1 ISZERO PUSH2 0x201 JUMPI RETURNDATASIZE PUSH1 0x0 DUP1 RETURNDATACOPY RETURNDATASIZE PUSH1 0x0 REVERT JUMPDEST POP POP POP POP PUSH32 0x7CE969A18BB6B0FBA42C6D9746E7D08EECA4C661809659C91D276456E3153AC0 CALLER PUSH1 0x40 MLOAD PUSH2 0x234 SWAP2 SWAP1 PUSH2 0x360 JUMP JUMPDEST PUSH1 0x40 MLOAD DUP1 SWAP2 SUB SWAP1 LOG1 JUMP JUMPDEST PUSH1 0x2 SLOAD DUP2 JUMP JUMPDEST PUSH1 0x3 SLOAD DUP2 JUMP JUMPDEST PUSH1 0x0 DUP1 SLOAD SWAP1 PUSH2 0x100 EXP SWAP1 DIV PUSH20 0xFFFFFFFFFFFFFFFFFFFFFFFFFFFFFFFFFFFFFFFF AND DUP2 JUMP JUMPDEST PUSH1 0x0 DUP3 DUP3 MSTORE PUSH1 0x20 DUP3 ADD SWAP1 POP SWAP3 SWAP2 POP POP JUMP JUMPDEST PUSH32 0x43616E6E6F742073656E6420455448207769746820766F746500000000000000 PUSH1 0x0 DUP3 ADD MSTORE POP JUMP JUMPDEST PUSH1 0x0 PUSH2 0x2B5 PUSH1 0x19 DUP4 PUSH2 0x26E JUMP JUMPDEST SWAP2 POP PUSH2 0x2C0 DUP3 PUSH2 0x27F JUMP JUMPDEST PUSH1 0x20 DUP3 ADD SWAP1 POP SWAP2 SWAP1 POP JUMP JUMPDEST PUSH1 0x0 PUSH1 0x20 DUP3 ADD SWAP1 POP DUP2 DUP2 SUB PUSH1 0x0 DUP4 ADD MSTORE PUSH2 0x2E4 DUP2 PUSH2 0x2A8 JUMP JUMPDEST SWAP1 POP SWAP2 SWAP1 POP JUMP JUMPDEST PUSH1 0x0 DUP2 SWAP1 POP SWAP2 SWAP1 POP JUMP JUMPDEST PUSH2 0x2FE DUP2 PUSH2 0x2EB JUMP JUMPDEST DUP3 MSTORE POP POP JUMP JUMPDEST PUSH1 0x0 PUSH1 0x20 DUP3 ADD SWAP1 POP PUSH2 0x319 PUSH1 0x0 DUP4 ADD DUP5 PUSH2 0x2F5 JUMP JUMPDEST SWAP3 SWAP2 POP POP JUMP JUMPDEST PUSH1 0x0 PUSH20 0xFFFFFFFFFFFFFFFFFFFFFFFFFFFFFFFFFFFFFFFF DUP3 AND SWAP1 POP SWAP2 SWAP1 POP JUMP JUMPDEST PUSH1 0x0 PUSH2 0x34A DUP3 PUSH2 0x31F JUMP JUMPDEST SWAP1 POP SWAP2 SWAP1 POP JUMP JUMPDEST PUSH2 0x35A DUP2 PUSH2 0x33F JUMP JUMPDEST DUP3 MSTORE POP POP JUMP JUMPDEST PUSH1 0x0 PUSH1 0x20 DUP3 ADD SWAP1 POP PUSH2 0x375 PUSH1 0x0 DUP4 ADD DUP5 PUSH2 0x351 JUMP JUMPDEST SWAP3 SWAP2 POP POP JUMP JUMPDEST PUSH32 0x506F6C6C2068617320656E646564000000000000000000000000000000000000 PUSH1 0x0 DUP3 ADD MSTORE POP JUMP JUMPDEST PUSH1 0x0 PUSH2 0x3B1 PUSH1 0xE DUP4 PUSH2 0x26E JUMP JUMPDEST SWAP2 POP PUSH2 0x3BC DUP3 PUSH2 0x37B JUMP JUMPDEST PUSH1 0x20 DUP3 ADD SWAP1 POP SWAP2 SWAP1 POP JUMP JUMPDEST PUSH1 0x0 PUSH1 0x20 DUP3 ADD SWAP1 POP DUP2 DUP2 SUB PUSH1 0x0 DUP4 ADD MSTORE PUSH2 0x3E0 DUP2 PUSH2 0x3A4 JUMP JUMPDEST SWAP1 POP SWAP2 SWAP1 POP JUMP JUMPDEST PUSH1 0x0 PUSH1 0x40 DUP3 ADD SWAP1 POP PUSH2 0x3FC PUSH1 0x0 DUP4 ADD DUP6 PUSH2 0x351 JUMP JUMPDEST PUSH2 0x409 PUSH1 0x20 DUP4 ADD DUP5 PUSH2 0x2F5 JUMP JUMPDEST SWAP4 SWAP3 POP POP POP JUMP INVALID LOG2 PUSH5 0x6970667358 0x22 SLT KECCAK256 0xA6 CREATE2 0xBA 0xEE KECCAK256 0xAA 0xD6 0x5F 0xB4 0xCA SIGNEXTEND 0xCC PUSH7 0xD0E5D9B884AFBE 0x2D 0xFC 0x49 SWAP3 PUSH28 0xE9B5AE4149433E64736F6C63430008130033A2646970667358221220 0x4A CODESIZE 0xD7 DUP2 0xAF POP PUSH2 0x51B DUP7 0xDA DUP4 0xCF PUSH19 0xE4E3A8A2B631F5AC688F415BDE31E26290ED64 PUSH20 0x6F6C634300081300330000000000000000000000 "},"methodIdentifiers":{"createPoll(bytes32,uint256,bytes32[],uint8,bytes32)":"b55141b7","getPoll(uint256)":"1a8cbcaa","polls(uint256)":"ac2f0074","recordVote(address,uint256)":"a446b900","vote(uint256,uint256)":"b384abef"}}}}}