{
  "_format": "hh-sol-artifact-1",
  "contractName": "VotingContract",
  "sourceName": "contracts/VoteContract.sol",
  "abi": [
    {
      "inputs": [
        {
          "internalType": "bytes32",
          "name": "_description",
          "type": "bytes32"
        },
        {
          "internalType": "uint256",
          "name": "_duration",
          "type": "uint256"
        },
        {
          "internalType": "bytes32[]",
          "name": "_optionNames",
          "type": "bytes32[]"
        },
        {
          "internalType": "enum VotingContract.PollType",
          "name": "_pollType",
          "type": "uint8"
        },
        {
          "internalType": "bytes32",
          "name": "_poll_metadata",
          "type": "bytes32"
        }
      ],
      "name": "createPoll",
      "outputs": [],
      "stateMutability": "nonpayable",
      "type": "function"
    },
    {
      "inputs": [
        {
          "internalType": "uint256",
          "name": "_pollIndex",
          "type": "uint256"
        }
      ],
      "name": "getPoll",
      "outputs": [
        {
          "internalType": "bytes32",
          "name": "description",
          "type": "bytes32"
        },
        {
          "internalType": "address[]",
          "name": "options",
          "type": "address[]"
        },
        {
          "internalType": "uint256",
          "name": "endTime",
          "type": "uint256"
        },
        {
          "internalType": "enum VotingContract.PollType",
          "name": "pollType",
          "type": "uint8"
        },
        {
          "internalType": "bytes32",
          "name": "pollMetadata",
          "type": "bytes32"
        }
      ],
      "stateMutability": "view",
      "type": "function"
    },
    {
      "inputs": [
        {
          "internalType": "uint256",
          "name": "",
          "type": "uint256"
        }
      ],
      "name": "polls",
      "outputs": [
        {
          "internalType": "bytes32",
          "name": "description",
          "type": "bytes32"
        },
        {
          "internalType": "uint256",
          "name": "endTime",
          "type": "uint256"
        },
        {
          "internalType": "enum VotingContract.PollType",
          "name": "poll_type",
          "type": "uint8"
        },
        {
          "internalType": "bytes32",
          "name": "poll_metadata",
          "type": "bytes32"
        }
      ],
      "stateMutability": "view",
      "type": "function"
    },
    {
      "inputs": [
        {
          "internalType": "address",
          "name": "voter",
          "type": "address"
        },
        {
          "internalType": "uint256",
          "name": "_pollIndex",
          "type": "uint256"
        }
      ],
      "name": "recordVote",
      "outputs": [],
      "stateMutability": "nonpayable",
      "type": "function"
    },
    {
      "inputs": [
        {
          "internalType": "uint256",
          "name": "_pollIndex",
          "type": "uint256"
        },
        {
          "internalType": "uint256",
          "name": "_optionIndex",
          "type": "uint256"
        }
      ],
      "name": "vote",
      "outputs": [],
      "stateMutability": "nonpayable",
      "type": "function"
    }
  ],
  "bytecode": "0x608060405234801561001057600080fd5b50611913806100206000396000f3fe60806040523480156200001157600080fd5b50600436106200005e5760003560e01c80631a8cbcaa1462000063578063a446b900146200009d578063ac2f007414620000bd578063b384abef14620000f6578063b55141b71462000116575b600080fd5b6200008160048036038101906200007b9190620009a5565b62000136565b6040516200009495949392919062000b85565b60405180910390f35b620000bb6004803603810190620000b5919062000c1a565b6200022a565b005b620000db6004803603810190620000d59190620009a5565b62000547565b604051620000ed949392919062000c61565b60405180910390f35b6200011460048036038101906200010e919062000cae565b62000595565b005b6200013460048036038101906200012e919062000ec3565b620007a2565b005b600060606000806000806000878154811062000157576200015662000f6a565b5b9060005260206000209060060201905080600001548160010182600201548360040160009054906101000a900460ff168460050154838054806020026020016040519081016040528092919081815260200182805480156200020f57602002820191906000526020600020905b8160009054906101000a900473ffffffffffffffffffffffffffffffffffffffff1673ffffffffffffffffffffffffffffffffffffffff1681526020019060010190808311620001c4575b50505050509350955095509550955095505091939590929450565b6000818154811062000241576200024062000f6a565b5b906000526020600020906006020160010160008154811062000268576200026762000f6a565b5b9060005260206000200160009054906101000a900473ffffffffffffffffffffffffffffffffffffffff1673ffffffffffffffffffffffffffffffffffffffff163373ffffffffffffffffffffffffffffffffffffffff16148062000360575060008181548110620002df57620002de62000f6a565b5b906000526020600020906006020160010160018154811062000306576200030562000f6a565b5b9060005260206000200160009054906101000a900473ffffffffffffffffffffffffffffffffffffffff1673ffffffffffffffffffffffffffffffffffffffff163373ffffffffffffffffffffffffffffffffffffffff16145b620003a2576040517f08c379a0000000000000000000000000000000000000000000000000000000008152600401620003999062000ffa565b60405180910390fd5b60008181548110620003b957620003b862000f6a565b5b90600052602060002090600602016002015442106200040f576040517f08c379a000000000000000000000000000000000000000000000000000000000815260040162000406906200106c565b60405180910390fd5b6000818154811062000426576200042562000f6a565b5b906000526020600020906006020160030160008373ffffffffffffffffffffffffffffffffffffffff1673ffffffffffffffffffffffffffffffffffffffff16815260200190815260200160002060009054906101000a900460ff1615620004c5576040517f08c379a0000000000000000000000000000000000000000000000000000000008152600401620004bc90620010de565b60405180910390fd5b600160008281548110620004de57620004dd62000f6a565b5b906000526020600020906006020160030160008473ffffffffffffffffffffffffffffffffffffffff1673ffffffffffffffffffffffffffffffffffffffff16815260200190815260200160002060006101000a81548160ff0219169083151502179055505050565b600081815481106200055857600080fd5b90600052602060002090600602016000915090508060000154908060020154908060040160009054906101000a900460ff16908060050154905084565b6000808381548110620005ad57620005ac62000f6a565b5b906000526020600020906006020190508060020154421062000606576040517f08c379a0000000000000000000000000000000000000000000000000000000008152600401620005fd906200106c565b60405180910390fd5b8060030160003373ffffffffffffffffffffffffffffffffffffffff1673ffffffffffffffffffffffffffffffffffffffff16815260200190815260200160002060009054906101000a900460ff161562000698576040517f08c379a00000000000000000000000000000000000000000000000000000000081526004016200068f9062001150565b60405180910390fd5b6000816001018381548110620006b357620006b262000f6a565b5b9060005260206000200160009054906101000a900473ffffffffffffffffffffffffffffffffffffffff1690508073ffffffffffffffffffffffffffffffffffffffff16630fb524ce6040518163ffffffff1660e01b8152600401600060405180830381600087803b1580156200072957600080fd5b505af11580156200073e573d6000803e3d6000fd5b5050505060018260030160003373ffffffffffffffffffffffffffffffffffffffff1673ffffffffffffffffffffffffffffffffffffffff16815260200190815260200160002060006101000a81548160ff02191690831515021790555050505050565b6000600181600181540180825580915050039060005260206000209050506000806001600080549050620007d79190620011a1565b81548110620007eb57620007ea62000f6a565b5b906000526020600020906006020190508581600001819055508442620008129190620011dc565b8160020181905550828160040160006101000a81548160ff0219169083600081111562000844576200084362000b05565b5b021790555081816005018190555060005b84518110156200093f5760003086838151811062000878576200087762000f6a565b5b6020026020010151846002015484604051620008949062000948565b620008a3949392919062001228565b604051809103906000f080158015620008c0573d6000803e3d6000fd5b50905082600101819080600181540180825580915050600190039060005260206000200160009091909190916101000a81548173ffffffffffffffffffffffffffffffffffffffff021916908373ffffffffffffffffffffffffffffffffffffffff160217905550508080620009369062001275565b91505062000855565b50505050505050565b61061b80620012c383390190565b6000604051905090565b600080fd5b600080fd5b6000819050919050565b6200097f816200096a565b81146200098b57600080fd5b50565b6000813590506200099f8162000974565b92915050565b600060208284031215620009be57620009bd62000960565b5b6000620009ce848285016200098e565b91505092915050565b6000819050919050565b620009ec81620009d7565b82525050565b600081519050919050565b600082825260208201905092915050565b6000819050602082019050919050565b600073ffffffffffffffffffffffffffffffffffffffff82169050919050565b600062000a4b8262000a1e565b9050919050565b62000a5d8162000a3e565b82525050565b600062000a71838362000a52565b60208301905092915050565b6000602082019050919050565b600062000a9782620009f2565b62000aa38185620009fd565b935062000ab08362000a0e565b8060005b8381101562000ae757815162000acb888262000a63565b975062000ad88362000a7d565b92505060018101905062000ab4565b5085935050505092915050565b62000aff816200096a565b82525050565b7f4e487b7100000000000000000000000000000000000000000000000000000000600052602160045260246000fd5b6001811062000b485762000b4762000b05565b5b50565b600081905062000b5b8262000b34565b919050565b600062000b6d8262000b4b565b9050919050565b62000b7f8162000b60565b82525050565b600060a08201905062000b9c6000830188620009e1565b818103602083015262000bb0818762000a8a565b905062000bc1604083018662000af4565b62000bd0606083018562000b74565b62000bdf6080830184620009e1565b9695505050505050565b62000bf48162000a3e565b811462000c0057600080fd5b50565b60008135905062000c148162000be9565b92915050565b6000806040838503121562000c345762000c3362000960565b5b600062000c448582860162000c03565b925050602062000c57858286016200098e565b9150509250929050565b600060808201905062000c786000830187620009e1565b62000c87602083018662000af4565b62000c96604083018562000b74565b62000ca56060830184620009e1565b95945050505050565b6000806040838503121562000cc85762000cc762000960565b5b600062000cd8858286016200098e565b925050602062000ceb858286016200098e565b9150509250929050565b62000d0081620009d7565b811462000d0c57600080fd5b50565b60008135905062000d208162000cf5565b92915050565b600080fd5b6000601f19601f8301169050919050565b7f4e487b7100000000000000000000000000000000000000000000000000000000600052604160045260246000fd5b62000d768262000d2b565b810181811067ffffffffffffffff8211171562000d985762000d9762000d3c565b5b80604052505050565b600062000dad62000956565b905062000dbb828262000d6b565b919050565b600067ffffffffffffffff82111562000dde5762000ddd62000d3c565b5b602082029050602081019050919050565b600080fd5b600062000e0b62000e058462000dc0565b62000da1565b9050808382526020820190506020840283018581111562000e315762000e3062000def565b5b835b8181101562000e5e578062000e49888262000d0f565b84526020840193505060208101905062000e33565b5050509392505050565b600082601f83011262000e805762000e7f62000d26565b5b813562000e9284826020860162000df4565b91505092915050565b6001811062000ea957600080fd5b50565b60008135905062000ebd8162000e9b565b92915050565b600080600080600060a0868803121562000ee25762000ee162000960565b5b600062000ef28882890162000d0f565b955050602062000f05888289016200098e565b945050604086013567ffffffffffffffff81111562000f295762000f2862000965565b5b62000f378882890162000e68565b935050606062000f4a8882890162000eac565b925050608062000f5d8882890162000d0f565b9150509295509295909350565b7f4e487b7100000000000000000000000000000000000000000000000000000000600052603260045260246000fd5b600082825260208201905092915050565b7f496e76616c6964206f7074696f6e206164647265737300000000000000000000600082015250565b600062000fe260168362000f99565b915062000fef8262000faa565b602082019050919050565b60006020820190508181036000830152620010158162000fd3565b9050919050565b7f506f6c6c2068617320656e646564000000000000000000000000000000000000600082015250565b600062001054600e8362000f99565b915062001061826200101c565b602082019050919050565b60006020820190508181036000830152620010878162001045565b9050919050565b7f416c726561647920766f74656420696e207468697320706f6c6c000000000000600082015250565b6000620010c6601a8362000f99565b9150620010d3826200108e565b602082019050919050565b60006020820190508181036000830152620010f981620010b7565b9050919050565b7f416c726561647920766f74656400000000000000000000000000000000000000600082015250565b600062001138600d8362000f99565b9150620011458262001100565b602082019050919050565b600060208201905081810360008301526200116b8162001129565b9050919050565b7f4e487b7100000000000000000000000000000000000000000000000000000000600052601160045260246000fd5b6000620011ae826200096a565b9150620011bb836200096a565b9250828203905081811115620011d657620011d562001172565b5b92915050565b6000620011e9826200096a565b9150620011f6836200096a565b925082820190508082111562001211576200121062001172565b5b92915050565b620012228162000a3e565b82525050565b60006080820190506200123f600083018762001217565b6200124e6020830186620009e1565b6200125d604083018562000af4565b6200126c606083018462000af4565b95945050505050565b600062001282826200096a565b91507fffffffffffffffffffffffffffffffffffffffffffffffffffffffffffffffff8203620012b757620012b662001172565b5b60018201905091905056fe608060405234801561001057600080fd5b5060405161061b38038061061b8339818101604052810190610032919061015f565b836000806101000a81548173ffffffffffffffffffffffffffffffffffffffff021916908373ffffffffffffffffffffffffffffffffffffffff160217905550826001819055508160028190555080600381905550505050506101c6565b600080fd5b600073ffffffffffffffffffffffffffffffffffffffff82169050919050565b60006100c082610095565b9050919050565b6100d0816100b5565b81146100db57600080fd5b50565b6000815190506100ed816100c7565b92915050565b6000819050919050565b610106816100f3565b811461011157600080fd5b50565b600081519050610123816100fd565b92915050565b6000819050919050565b61013c81610129565b811461014757600080fd5b50565b60008151905061015981610133565b92915050565b6000806000806080858703121561017957610178610090565b5b6000610187878288016100de565b945050602061019887828801610114565b93505060406101a98782880161014a565b92505060606101ba8782880161014a565b91505092959194509250565b610446806101d56000396000f3fe6080604052600436106100435760003560e01c80630fb524ce1461009a5780633197cbb6146100b157806399100fa5146100dc578063d270e7ab1461010757610095565b36610095576000341461008b576040517f08c379a0000000000000000000000000000000000000000000000000000000008152600401610082906102cb565b60405180910390fd5b610093610132565b005b600080fd5b3480156100a657600080fd5b506100af610132565b005b3480156100bd57600080fd5b506100c661023e565b6040516100d39190610304565b60405180910390f35b3480156100e857600080fd5b506100f1610244565b6040516100fe9190610304565b60405180910390f35b34801561011357600080fd5b5061011c61024a565b6040516101299190610360565b60405180910390f35b6002544210610176576040517f08c379a000000000000000000000000000000000000000000000000000000000815260040161016d906103c7565b60405180910390fd5b60008054906101000a900473ffffffffffffffffffffffffffffffffffffffff1673ffffffffffffffffffffffffffffffffffffffff1663a446b900336003546040518363ffffffff1660e01b81526004016101d39291906103e7565b600060405180830381600087803b1580156101ed57600080fd5b505af1158015610201573d6000803e3d6000fd5b505050507f7ce969a18bb6b0fba42c6d9746e7d08eeca4c661809659c91d276456e3153ac0336040516102349190610360565b60405180910390a1565b60025481565b60035481565b60008054906101000a900473ffffffffffffffffffffffffffffffffffffffff1681565b600082825260208201905092915050565b7f43616e6e6f742073656e6420455448207769746820766f746500000000000000600082015250565b60006102b560198361026e565b91506102c08261027f565b602082019050919050565b600060208201905081810360008301526102e4816102a8565b9050919050565b6000819050919050565b6102fe816102eb565b82525050565b600060208201905061031960008301846102f5565b92915050565b600073ffffffffffffffffffffffffffffffffffffffff82169050919050565b600061034a8261031f565b9050919050565b61035a8161033f565b82525050565b60006020820190506103756000830184610351565b92915050565b7f506f6c6c2068617320656e646564000000000000000000000000000000000000600082015250565b60006103b1600e8361026e565b91506103bc8261037b565b602082019050919050565b600060208201905081810360008301526103e0816103a4565b9050919050565b60006040820190506103fc6000830185610351565b61040960208301846102f5565b939250505056fea2646970667358221220a6f5baee20aad65fb4ca0bcc66d0e5d9b884afbe2dfc49927be9b5ae4149433e64736f6c63430008130033a26469706673582212204a38d781af5061051b86da83cf72e4e3a8a2b631f5ac688f415bde31e26290ed64736f6c63430008130033",
  "linkReferences": {},
  "deployedLinkReferences": {}
}