{
  "_format": "hh-sol-artifact-1",
  "contractName": "VotingOption",
  "sourceName": "contracts/VotingOption.sol",
  "abi": [
    {
      "inputs": [
        {
          "internalType": "address",
          "name": "_mainContract",
          "type": "address"
        },
        {
          "internalType": "bytes32",
          "name": "_name",
          "type": "bytes32"
        },
        {
          "internalType": "uint256",
          "name": "_endTime",
          "type": "uint256"
        },
        {
          "internalType": "uint256",
          "name": "_pollIndex",
          "type": "uint256"
        }
      ],
      "stateMutability": "nonpayable",
      "type": "constructor"
    },
    {
      "anonymous": false,
      "inputs": [
        {
          "indexed": false,
          "internalType": "address",
          "name": "voter",
          "type": "address"
        }
      ],
      "name": "VoteCasted",
      "type": "event"
    },
    {
      "inputs": [],
      "name": "castVote",
      "outputs": [],
      "stateMutability": "nonpayable",
      "type": "function"
    },
    {
      "inputs": [],
      "name": "endTime",
      "outputs": [
        {
          "internalType": "uint256",
          "name": "",
          "type": "uint256"
        }
      ],
      "stateMutability": "view",
      "type": "function"
    },
    {
      "inputs": [],
      "name": "mainContract",
      "outputs": [
        {
          "internalType": "address",
          "name": "",
          "type": "address"
        }
      ],
      "stateMutability": "view",
      "type": "function"
    },
    {
      "inputs": [],
      "name": "pollIndex",
      "outputs": [
        {
          "internalType": "uint256",
          "name": "",
          "type": "uint256"
        }
      ],
      "stateMutability": "view",
      "type": "function"
    },
    {
      "stateMutability": "payable",
      "type": "receive"
    }
  ],
  "bytecode": "0x608060405234801561001057600080fd5b5060405161061b38038061061b8339818101604052810190610032919061015f565b836000806101000a81548173ffffffffffffffffffffffffffffffffffffffff021916908373ffffffffffffffffffffffffffffffffffffffff160217905550826001819055508160028190555080600381905550505050506101c6565b600080fd5b600073ffffffffffffffffffffffffffffffffffffffff82169050919050565b60006100c082610095565b9050919050565b6100d0816100b5565b81146100db57600080fd5b50565b6000815190506100ed816100c7565b92915050565b6000819050919050565b610106816100f3565b811461011157600080fd5b50565b600081519050610123816100fd565b92915050565b6000819050919050565b61013c81610129565b811461014757600080fd5b50565b60008151905061015981610133565b92915050565b6000806000806080858703121561017957610178610090565b5b6000610187878288016100de565b945050602061019887828801610114565b93505060406101a98782880161014a565b92505060606101ba8782880161014a565b91505092959194509250565b610446806101d56000396000f3fe6080604052600436106100435760003560e01c80630fb524ce1461009a5780633197cbb6146100b157806399100fa5146100dc578063d270e7ab1461010757610095565b36610095576000341461008b576040517f08c379a0000000000000000000000000000000000000000000000000000000008152600401610082906102cb565b60405180910390fd5b610093610132565b005b600080fd5b3480156100a657600080fd5b506100af610132565b005b3480156100bd57600080fd5b506100c661023e565b6040516100d39190610304565b60405180910390f35b3480156100e857600080fd5b506100f1610244565b6040516100fe9190610304565b60405180910390f35b34801561011357600080fd5b5061011c61024a565b6040516101299190610360565b60405180910390f35b6002544210610176576040517f08c379a000000000000000000000000000000000000000000000000000000000815260040161016d906103c7565b60405180910390fd5b60008054906101000a900473ffffffffffffffffffffffffffffffffffffffff1673ffffffffffffffffffffffffffffffffffffffff1663a446b900336003546040518363ffffffff1660e01b81526004016101d39291906103e7565b600060405180830381600087803b1580156101ed57600080fd5b505af1158015610201573d6000803e3d6000fd5b505050507f7ce969a18bb6b0fba42c6d9746e7d08eeca4c661809659c91d276456e3153ac0336040516102349190610360565b60405180910390a1565b60025481565b60035481565b60008054906101000a900473ffffffffffffffffffffffffffffffffffffffff1681565b600082825260208201905092915050565b7f43616e6e6f742073656e6420455448207769746820766f746500000000000000600082015250565b60006102b560198361026e565b91506102c08261027f565b602082019050919050565b600060208201905081810360008301526102e4816102a8565b9050919050565b6000819050919050565b6102fe816102eb565b82525050565b600060208201905061031960008301846102f5565b92915050565b600073ffffffffffffffffffffffffffffffffffffffff82169050919050565b600061034a8261031f565b9050919050565b61035a8161033f565b82525050565b60006020820190506103756000830184610351565b92915050565b7f506f6c6c2068617320656e646564000000000000000000000000000000000000600082015250565b60006103b1600e8361026e565b91506103bc8261037b565b602082019050919050565b600060208201905081810360008301526103e0816103a4565b9050919050565b60006040820190506103fc6000830185610351565b61040960208301846102f5565b939250505056fea2646970667358221220a6f5baee20aad65fb4ca0bcc66d0e5d9b884afbe2dfc49927be9b5ae4149433e64736f6c63430008130033",
  "linkReferences": {},
  "deployedLinkReferences": {}
}