{
  "_format": "hh-sol-artifact-1",
  "contractName": "VotingContract",
  "sourceName": "contracts/VoteContract.sol",
  "abi": [
    {
      "anonymous": false,
      "inputs": [
        {
          "indexed": true,
          "internalType": "address",
          "name": "voter",
          "type": "address"
        },
        {
          "indexed": true,
          "internalType": "uint256",
          "name": "pollIndex",
          "type": "uint256"
        },
        {
          "indexed": true,
          "internalType": "uint256",
          "name": "optionIndex",
          "type": "uint256"
        }
      ],
      "name": "VoteCasted",
      "type": "event"
    },
    {
      "anonymous": false,
      "inputs": [
        {
          "indexed": true,
          "internalType": "address",
          "name": "voter",
          "type": "address"
        },
        {
          "indexed": true,
          "internalType": "uint256",
          "name": "pollIndex",
          "type": "uint256"
        },
        {
          "indexed": true,
          "internalType": "uint256",
          "name": "optionIndex",
          "type": "uint256"
        }
      ],
      "name": "VoteChanged",
      "type": "event"
    },
    {
      "anonymous": false,
      "inputs": [
        {
          "indexed": true,
          "internalType": "address",
          "name": "voter",
          "type": "address"
        },
        {
          "indexed": true,
          "internalType": "uint256",
          "name": "pollIndex",
          "type": "uint256"
        },
        {
          "indexed": true,
          "internalType": "uint256",
          "name": "optionIndex",
          "type": "uint256"
        }
      ],
      "name": "VoteRemoved",
      "type": "event"
    },
    {
      "inputs": [
        {
          "internalType": "uint256",
          "name": "",
          "type": "uint256"
        }
      ],
      "name": "allowedVoters",
      "outputs": [
        {
          "internalType": "address",
          "name": "",
          "type": "address"
        }
      ],
      "stateMutability": "view",
      "type": "function"
    },
    {
      "inputs": [
        {
          "internalType": "string",
          "name": "_name",
          "type": "string"
        },
        {
          "internalType": "string",
          "name": "_description",
          "type": "string"
        },
        {
          "internalType": "uint256",
          "name": "_duration",
          "type": "uint256"
        },
        {
          "internalType": "string[]",
          "name": "_optionNames",
          "type": "string[]"
        },
        {
          "internalType": "enum VotingContract.PollType",
          "name": "_pollType",
          "type": "uint8"
        },
        {
          "internalType": "string",
          "name": "_poll_metadata",
          "type": "string"
        },
        {
          "internalType": "uint256",
          "name": "_endBlockNumber",
          "type": "uint256"
        }
      ],
      "name": "createPoll",
      "outputs": [],
      "stateMutability": "nonpayable",
      "type": "function"
    },
    {
      "inputs": [],
      "name": "getAllPolls",
      "outputs": [
        {
          "internalType": "string[]",
          "name": "names",
          "type": "string[]"
        },
        {
          "internalType": "string[]",
          "name": "descriptions",
          "type": "string[]"
        },
        {
          "internalType": "address[][]",
          "name": "options",
          "type": "address[][]"
        },
        {
          "internalType": "uint256[]",
          "name": "endTimes",
          "type": "uint256[]"
        },
        {
          "internalType": "enum VotingContract.PollType[]",
          "name": "pollTypes",
          "type": "uint8[]"
        },
        {
          "internalType": "string[]",
          "name": "pollMetadatas",
          "type": "string[]"
        },
        {
          "internalType": "uint256[]",
          "name": "startTimes",
          "type": "uint256[]"
        }
      ],
      "stateMutability": "view",
      "type": "function"
    },
    {
      "inputs": [
        {
          "internalType": "string",
          "name": "_message",
          "type": "string"
        }
      ],
      "name": "getMessageHash",
      "outputs": [
        {
          "internalType": "bytes32",
          "name": "",
          "type": "bytes32"
        }
      ],
      "stateMutability": "pure",
      "type": "function"
    },
    {
      "inputs": [
        {
          "internalType": "uint256",
          "name": "_pollIndex",
          "type": "uint256"
        }
      ],
      "name": "getPoll",
      "outputs": [
        {
          "internalType": "string",
          "name": "name",
          "type": "string"
        },
        {
          "internalType": "string",
          "name": "description",
          "type": "string"
        },
        {
          "internalType": "address[]",
          "name": "options",
          "type": "address[]"
        },
        {
          "internalType": "uint256",
          "name": "endTime",
          "type": "uint256"
        },
        {
          "internalType": "enum VotingContract.PollType",
          "name": "pollType",
          "type": "uint8"
        },
        {
          "internalType": "string",
          "name": "pollMetadata",
          "type": "string"
        },
        {
          "internalType": "uint256",
          "name": "startTime",
          "type": "uint256"
        },
        {
          "internalType": "uint256",
          "name": "endBlockNumber",
          "type": "uint256"
        }
      ],
      "stateMutability": "view",
      "type": "function"
    },
    {
      "inputs": [
        {
          "internalType": "uint256",
          "name": "_pollIndex",
          "type": "uint256"
        }
      ],
      "name": "getPollType",
      "outputs": [
        {
          "internalType": "enum VotingContract.PollType",
          "name": "",
          "type": "uint8"
        }
      ],
      "stateMutability": "view",
      "type": "function"
    },
    {
      "inputs": [
        {
          "internalType": "uint256",
          "name": "",
          "type": "uint256"
        }
      ],
      "name": "polls",
      "outputs": [
        {
          "internalType": "string",
          "name": "description",
          "type": "string"
        },
        {
          "internalType": "string",
          "name": "name",
          "type": "string"
        },
        {
          "internalType": "uint256",
          "name": "endTime",
          "type": "uint256"
        },
        {
          "internalType": "enum VotingContract.PollType",
          "name": "poll_type",
          "type": "uint8"
        },
        {
          "internalType": "string",
          "name": "poll_metadata",
          "type": "string"
        },
        {
          "internalType": "uint256",
          "name": "startTime",
          "type": "uint256"
        },
        {
          "internalType": "uint256",
          "name": "endBlockNumber",
          "type": "uint256"
        }
      ],
      "stateMutability": "view",
      "type": "function"
    },
    {
      "inputs": [
        {
          "internalType": "address",
          "name": "voter",
          "type": "address"
        },
        {
          "internalType": "uint256",
          "name": "_pollIndex",
          "type": "uint256"
        },
        {
          "internalType": "uint256",
          "name": "_optionIndex",
          "type": "uint256"
        }
      ],
      "name": "recordVote",
      "outputs": [],
      "stateMutability": "nonpayable",
      "type": "function"
    },
    {
      "inputs": [
        {
          "internalType": "address",
          "name": "voter",
          "type": "address"
        },
        {
          "internalType": "uint256",
          "name": "_pollIndex",
          "type": "uint256"
        },
        {
          "internalType": "uint256",
          "name": "_optionIndex",
          "type": "uint256"
        },
        {
          "internalType": "bytes",
          "name": "signature",
          "type": "bytes"
        },
        {
          "internalType": "string",
          "name": "message",
          "type": "string"
        }
      ],
      "name": "verifyAndRecordVote",
      "outputs": [],
      "stateMutability": "nonpayable",
      "type": "function"
    },
    {
      "inputs": [
        {
          "internalType": "string",
          "name": "message",
          "type": "string"
        },
        {
          "internalType": "bytes",
          "name": "signature",
          "type": "bytes"
        }
      ],
      "name": "verifyServerSignature",
      "outputs": [
        {
          "internalType": "bool",
          "name": "",
          "type": "bool"
        },
        {
          "internalType": "address",
          "name": "",
          "type": "address"
        }
      ],
      "stateMutability": "view",
      "type": "function"
    },
    {
      "inputs": [
        {
          "internalType": "uint256",
          "name": "_pollIndex",
          "type": "uint256"
        },
        {
          "internalType": "uint256",
          "name": "_optionIndex",
          "type": "uint256"
        },
        {
          "internalType": "bytes",
          "name": "signature",
          "type": "bytes"
        },
        {
          "internalType": "string",
          "name": "message",
          "type": "string"
        }
      ],
      "name": "vote",
      "outputs": [],
      "stateMutability": "nonpayable",
      "type": "function"
    }
  ],
  "bytecode": "0x608060405273f39fd6e51aad88f6f4ce6ab8827279cfffb922666000806101000a81548173ffffffffffffffffffffffffffffffffffffffff021916908373ffffffffffffffffffffffffffffffffffffffff16021790555060405180611440016040528073eb34bd135afc3054667ca74c9d19fbcd7d05f79f73ffffffffffffffffffffffffffffffffffffffff1673ffffffffffffffffffffffffffffffffffffffff168152602001736591e7d655f248f6930195385c36b8d5af679b8b73ffffffffffffffffffffffffffffffffffffffff1673ffffffffffffffffffffffffffffffffffffffff168152602001739bee5b17eb847744b6a81ee935409739f91c722c73ffffffffffffffffffffffffffffffffffffffff1673ffffffffffffffffffffffffffffffffffffffff16815260200173974b9cb3c122561e3bf6234651e0b82b88fb901573ffffffffffffffffffffffffffffffffffffffff1673ffffffffffffffffffffffffffffffffffffffff16815260200173e9f19b6c72219f9b12c9c367405a90ac9afb224173ffffffffffffffffffffffffffffffffffffffff1673ffffffffffffffffffffffffffffffffffffffff16815260200173497f0d190c513f51eac234628200a5e62271a7a573ffffffffffffffffffffffffffffffffffffffff1673ffffffffffffffffffffffffffffffffffffffff168152602001738b49fb41e0df3ea3d01ad9d06501bb5a2257ccb073ffffffffffffffffffffffffffffffffffffffff1673ffffffffffffffffffffffffffffffffffffffff16815260200173797aba41fd90740a2ca970d6706af05ade09335b73ffffffffffffffffffffffffffffffffffffffff1673ffffffffffffffffffffffffffffffffffffffff16815260200173bb3f2f946e8ee2912830e365cf241293636cb05773ffffffffffffffffffffffffffffffffffffffff1673ffffffffffffffffffffffffffffffffffffffff16815260200173df6c53df56f3992fc44195518a2d8b16306af9ff73ffffffffffffffffffffffffffffffffffffffff1673ffffffffffffffffffffffffffffffffffffffff16815260200173299cb850bd75c07ef89978bdc52e062cc4fa025073ffffffffffffffffffffffffffffffffffffffff1673ffffffffffffffffffffffffffffffffffffffff168152602001738cbf722adfbc071a12aae158a12a68397578017c73ffffffffffffffffffffffffffffffffffffffff1673ffffffffffffffffffffffffffffffffffffffff16815260200173bfbeab0896e29d0db26ad60278d3ab3c482bb19973ffffffffffffffffffffffffffffffffffffffff1673ffffffffffffffffffffffffffffffffffffffff16815260200173e019836a41cb707f79b991f60e241918097ac16e73ffffffffffffffffffffffffffffffffffffffff1673ffffffffffffffffffffffffffffffffffffffff16815260200173f51fc4c6ab075482b61f5c1d4e72fadaff8815f373ffffffffffffffffffffffffffffffffffffffff1673ffffffffffffffffffffffffffffffffffffffff168152602001733b16821a5dbbff86e4a88ea0621ec6be016cd79a73ffffffffffffffffffffffffffffffffffffffff1673ffffffffffffffffffffffffffffffffffffffff16815260200173376d5c3a16e9d015e8c584bb2d278e25f0ccb27b73ffffffffffffffffffffffffffffffffffffffff1673ffffffffffffffffffffffffffffffffffffffff168152602001739f60e4af6020cc6a791b2d1ce9902d25a72ba82473ffffffffffffffffffffffffffffffffffffffff1673ffffffffffffffffffffffffffffffffffffffff168152602001733212974a4e53e5238f6ea193b36412db9ad61c2673ffffffffffffffffffffffffffffffffffffffff1673ffffffffffffffffffffffffffffffffffffffff168152602001736ffd2248ab7e80ef51d7eb4cb60964c83012556773ffffffffffffffffffffffffffffffffffffffff1673ffffffffffffffffffffffffffffffffffffffff16815260200172a2d2d22f456125d64beda5a6f37273a13d9de073ffffffffffffffffffffffffffffffffffffffff1673ffffffffffffffffffffffffffffffffffffffff168152602001737c1c1c2de344dcdd7db65e5d52c5e1ea862c613973ffffffffffffffffffffffffffffffffffffffff1673ffffffffffffffffffffffffffffffffffffffff168152602001738894e499d6359f3a7955736794ca9a0d536109be73ffffffffffffffffffffffffffffffffffffffff1673ffffffffffffffffffffffffffffffffffffffff168152602001731de6938d9f9ebd43d0cc56f0cef1657d954c9a9473ffffffffffffffffffffffffffffffffffffffff1673ffffffffffffffffffffffffffffffffffffffff168152602001706916a87b82333f4245046623b23794c65c73ffffffffffffffffffffffffffffffffffffffff1673ffffffffffffffffffffffffffffffffffffffff168152602001737e59df833869e2997d05e163d6004f3344a052fa73ffffffffffffffffffffffffffffffffffffffff1673ffffffffffffffffffffffffffffffffffffffff16815260200173f5441a1b900a1d93e4c06cb9c3fdba39f01469f073ffffffffffffffffffffffffffffffffffffffff1673ffffffffffffffffffffffffffffffffffffffff16815260200173a87922d0074bcd82ac82816633cce6847254895573ffffffffffffffffffffffffffffffffffffffff1673ffffffffffffffffffffffffffffffffffffffff1681526020017305618d6effe2e522f07b1db692d47a68bfd6ffea73ffffffffffffffffffffffffffffffffffffffff1673ffffffffffffffffffffffffffffffffffffffff1681526020017375c7f1f73305bcf9f91222eff570d9c3c423e40573ffffffffffffffffffffffffffffffffffffffff1673ffffffffffffffffffffffffffffffffffffffff168152602001734b3105e9ec2b6069c1362388d429625a026f43e073ffffffffffffffffffffffffffffffffffffffff1673ffffffffffffffffffffffffffffffffffffffff16815260200173d20beba9efa30fb34af93af5c91c9a4d6854eac473ffffffffffffffffffffffffffffffffffffffff1673ffffffffffffffffffffffffffffffffffffffff16815260200173dc871d2c0f92de79e5c1daaedda1372e774f2eb673ffffffffffffffffffffffffffffffffffffffff1673ffffffffffffffffffffffffffffffffffffffff1681526020017350d5e44700c10873875b4e75c4c9396562d83be173ffffffffffffffffffffffffffffffffffffffff1673ffffffffffffffffffffffffffffffffffffffff168152602001736b29132ea388a308578c1d3be068d0e4fc9915a273ffffffffffffffffffffffffffffffffffffffff1673ffffffffffffffffffffffffffffffffffffffff1681526020017324113ffb07189d1e6e169025a424b58c2952297273ffffffffffffffffffffffffffffffffffffffff1673ffffffffffffffffffffffffffffffffffffffff168152602001736e22a5e30088c8389dc725bbead5f0675334299f73ffffffffffffffffffffffffffffffffffffffff1673ffffffffffffffffffffffffffffffffffffffff1681526020017310ab73aa48d686b7fd9ec9d50418a14dd23f663173ffffffffffffffffffffffffffffffffffffffff1673ffffffffffffffffffffffffffffffffffffffff16815260200173d4a3030b5f5e8dd4860d370c17e8576ae9951a2d73ffffffffffffffffffffffffffffffffffffffff1673ffffffffffffffffffffffffffffffffffffffff168152602001724f67dabb603aaa58ed52641ccaff09c559704a73ffffffffffffffffffffffffffffffffffffffff1673ffffffffffffffffffffffffffffffffffffffff16815260200173799681f9b9d7c55ed59f5a0f235cab132cde0a2b73ffffffffffffffffffffffffffffffffffffffff1673ffffffffffffffffffffffffffffffffffffffff16815260200173b7a593ec62dc447eef23ea0e0b4d5144ac75abc573ffffffffffffffffffffffffffffffffffffffff1673ffffffffffffffffffffffffffffffffffffffff16815260200173e05875f287c028901798ac2dc8c22ba908b8ef3673ffffffffffffffffffffffffffffffffffffffff1673ffffffffffffffffffffffffffffffffffffffff1681526020017380bb92f389591d353654ac5580baeff7d0d6e77873ffffffffffffffffffffffffffffffffffffffff1673ffffffffffffffffffffffffffffffffffffffff16815260200173a29576f07eaad050aeacbc89ac0518b62fe2f88e73ffffffffffffffffffffffffffffffffffffffff1673ffffffffffffffffffffffffffffffffffffffff1681526020017392699d64c65c435d4a60e2ceeaeb931db8b1ca0973ffffffffffffffffffffffffffffffffffffffff1673ffffffffffffffffffffffffffffffffffffffff1681526020017350b6a164ca5673bc6c5bf5e6d9f31587180bf8e773ffffffffffffffffffffffffffffffffffffffff1673ffffffffffffffffffffffffffffffffffffffff1681526020017346cd90445349e64f895c403c23839e79eb4065e473ffffffffffffffffffffffffffffffffffffffff1673ffffffffffffffffffffffffffffffffffffffff16815260200173c6ca7c3427ad6b7a06fbed6d18c394e540e3181473ffffffffffffffffffffffffffffffffffffffff1673ffffffffffffffffffffffffffffffffffffffff16815260200173f363c519f91e823184061e5bf28263262e2b9b8d73ffffffffffffffffffffffffffffffffffffffff1673ffffffffffffffffffffffffffffffffffffffff1681526020017349aa00072a7ba8a5639c43fe9f6536820e6f5d5773ffffffffffffffffffffffffffffffffffffffff1673ffffffffffffffffffffffffffffffffffffffff16815260200173a1d76553266fa8ed3d143794a462aafadfc34f7473ffffffffffffffffffffffffffffffffffffffff1673ffffffffffffffffffffffffffffffffffffffff16815260200173644177f8d79117c2b9c7596527642b3c2d05888e73ffffffffffffffffffffffffffffffffffffffff1673ffffffffffffffffffffffffffffffffffffffff16815260200173b721c2e6640d963e99b37b6437abaf6914a25a5e73ffffffffffffffffffffffffffffffffffffffff1673ffffffffffffffffffffffffffffffffffffffff16815260200173bc11295936aa79d594139de1b2e12629414f3bdb73ffffffffffffffffffffffffffffffffffffffff1673ffffffffffffffffffffffffffffffffffffffff16815260200173bc349d1beee33c61f0395d1667e70056b4c869b973ffffffffffffffffffffffffffffffffffffffff1673ffffffffffffffffffffffffffffffffffffffff168152602001739915c453cc779109013f1af0c4639277e825721273ffffffffffffffffffffffffffffffffffffffff1673ffffffffffffffffffffffffffffffffffffffff168152602001733ed7bf997b7a91e9e8ab9ee2f7ce983bd37d639273ffffffffffffffffffffffffffffffffffffffff1673ffffffffffffffffffffffffffffffffffffffff168152602001735973d1af5c13168bdc85c6e78309272815995ffb73ffffffffffffffffffffffffffffffffffffffff1673ffffffffffffffffffffffffffffffffffffffff16815260200173c152fd31f285f6c0b3807070280595e7ea713a7f73ffffffffffffffffffffffffffffffffffffffff1673ffffffffffffffffffffffffffffffffffffffff16815260200173f71e9c766cdf169edfbe2749490943c1dc6b8a5573ffffffffffffffffffffffffffffffffffffffff1673ffffffffffffffffffffffffffffffffffffffff16815260200173ff9977fb117a22254a8eb6c6ce8d3dd671fa70dc73ffffffffffffffffffffffffffffffffffffffff1673ffffffffffffffffffffffffffffffffffffffff168152602001734d5083dd10f2a46f26f5583c6679f9f8d30ae85073ffffffffffffffffffffffffffffffffffffffff1673ffffffffffffffffffffffffffffffffffffffff16815260200173cb8dc3bec7b659022ae0d3e9de17322f31e4aa7c73ffffffffffffffffffffffffffffffffffffffff1673ffffffffffffffffffffffffffffffffffffffff16815260200173ab96014a7c078f09418cf899bf197cadff023c1673ffffffffffffffffffffffffffffffffffffffff1673ffffffffffffffffffffffffffffffffffffffff168152602001732bf7b04f143602692bbdc3ecbea68c2c65278eee73ffffffffffffffffffffffffffffffffffffffff1673ffffffffffffffffffffffffffffffffffffffff168152602001735ac41b7e73680a3e77b941fee0bad04f59c9bb7d73ffffffffffffffffffffffffffffffffffffffff1673ffffffffffffffffffffffffffffffffffffffff1681526020017384f678a3e7ba8fc817c32ff10884d6fb2097611473ffffffffffffffffffffffffffffffffffffffff1673ffffffffffffffffffffffffffffffffffffffff16815260200173e611a720778a5f6723d6b4866f8482850465718173ffffffffffffffffffffffffffffffffffffffff1673ffffffffffffffffffffffffffffffffffffffff1681526020017386f34d8b98171281ab8bfe65c7e2718e4f002e3573ffffffffffffffffffffffffffffffffffffffff1673ffffffffffffffffffffffffffffffffffffffff168152602001739258d14db5ae79de3717dfb5f03c3f0a6fc7199973ffffffffffffffffffffffffffffffffffffffff1673ffffffffffffffffffffffffffffffffffffffff168152602001730760e844e6f368ce73f1eeb917d37db19375de3b73ffffffffffffffffffffffffffffffffffffffff1673ffffffffffffffffffffffffffffffffffffffff1681526020017310c8597a5063a1648ffe13f54e996ba9bb3217b573ffffffffffffffffffffffffffffffffffffffff1673ffffffffffffffffffffffffffffffffffffffff1681526020017350122a5509f628e901f9c0238f0168833753239b73ffffffffffffffffffffffffffffffffffffffff1673ffffffffffffffffffffffffffffffffffffffff16815260200173f0443945ad3be9645382fc2537317da97feff3a973ffffffffffffffffffffffffffffffffffffffff1673ffffffffffffffffffffffffffffffffffffffff16815260200173153affb96fcb60085ee307996bdd2df0183a368273ffffffffffffffffffffffffffffffffffffffff1673ffffffffffffffffffffffffffffffffffffffff168152602001732d56cd519540be541a3261e22e95d6507f5504ca73ffffffffffffffffffffffffffffffffffffffff1673ffffffffffffffffffffffffffffffffffffffff168152602001733210287ddee6ece40d17a1f39799239b972a81f273ffffffffffffffffffffffffffffffffffffffff1673ffffffffffffffffffffffffffffffffffffffff1681526020017378ac9c2545850bedbc076eb30ce7a6f0d74b395e73ffffffffffffffffffffffffffffffffffffffff1673ffffffffffffffffffffffffffffffffffffffff168152602001732fb858991668840ce34f331402e0b3c66db078af73ffffffffffffffffffffffffffffffffffffffff1673ffffffffffffffffffffffffffffffffffffffff16815260200173661b81d462d80786c442774f452464a8c627a20e73ffffffffffffffffffffffffffffffffffffffff1673ffffffffffffffffffffffffffffffffffffffff16815260200173980a85ba6c2683e3509752dd3b4eb50165c0e65f73ffffffffffffffffffffffffffffffffffffffff1673ffffffffffffffffffffffffffffffffffffffff16815260200173b7b93e217dd4e6e700e7362cb234d6258438d3b773ffffffffffffffffffffffffffffffffffffffff1673ffffffffffffffffffffffffffffffffffffffff16815260200172cdd7fc085c86d000c0d54b3ca6fe83a8a806e573ffffffffffffffffffffffffffffffffffffffff1673ffffffffffffffffffffffffffffffffffffffff168152602001730906eb682c6d12edbe5e0a43e60068e1a7f8bea373ffffffffffffffffffffffffffffffffffffffff1673ffffffffffffffffffffffffffffffffffffffff168152602001739e7fa612eb6e771b0e918d94a0d524d6666fa07e73ffffffffffffffffffffffffffffffffffffffff1673ffffffffffffffffffffffffffffffffffffffff16815260200173bedad5f3bb658cc67efdc9e8c17e6a82c1193ef173ffffffffffffffffffffffffffffffffffffffff1673ffffffffffffffffffffffffffffffffffffffff16815260200173c66efccb88b3b7bde6fc476d8cf139dd38075ad773ffffffffffffffffffffffffffffffffffffffff1673ffffffffffffffffffffffffffffffffffffffff16815260200173e2a296b3d3ad4212b6030442e70419ff7b82fee473ffffffffffffffffffffffffffffffffffffffff1673ffffffffffffffffffffffffffffffffffffffff168152602001735abade91ed4b6d11b666280cacb3e4a32898f39b73ffffffffffffffffffffffffffffffffffffffff1673ffffffffffffffffffffffffffffffffffffffff1681526020017371c15691e243be88220957c784053ef0e084440b73ffffffffffffffffffffffffffffffffffffffff1673ffffffffffffffffffffffffffffffffffffffff16815260200173046fb65722e7b2455012bfebf6177f1d2e9738d973ffffffffffffffffffffffffffffffffffffffff1673ffffffffffffffffffffffffffffffffffffffff168152602001733d5d2ac4fecf16bb1651a445d5b17f977a82354673ffffffffffffffffffffffffffffffffffffffff1673ffffffffffffffffffffffffffffffffffffffff16815260200173975d1040e93316917bd67dd32a02e1929f8af8d373ffffffffffffffffffffffffffffffffffffffff1673ffffffffffffffffffffffffffffffffffffffff16815260200173eb8e7c90014565eed8126110630efa2d9cd6ebe473ffffffffffffffffffffffffffffffffffffffff1673ffffffffffffffffffffffffffffffffffffffff16815260200173ed46bffd4b8237a9c7e08f55f0b410544f98981373ffffffffffffffffffffffffffffffffffffffff1673ffffffffffffffffffffffffffffffffffffffff168152602001732f38617c9d8fc5863c5b3de855d76cfb0b7ab67673ffffffffffffffffffffffffffffffffffffffff1673ffffffffffffffffffffffffffffffffffffffff168152602001734bfa4639cc1f4554122abb930aa897cdae90d13b73ffffffffffffffffffffffffffffffffffffffff1673ffffffffffffffffffffffffffffffffffffffff168152602001738360470f1793c91c953be453fca52cc63dfcb36773ffffffffffffffffffffffffffffffffffffffff1673ffffffffffffffffffffffffffffffffffffffff16815260200173d31461d449fbfb88dd8d4e7d8fccf79389f671e973ffffffffffffffffffffffffffffffffffffffff1673ffffffffffffffffffffffffffffffffffffffff168152602001739b796f2de75772f1634d78a3ab23a03778d3702a73ffffffffffffffffffffffffffffffffffffffff1673ffffffffffffffffffffffffffffffffffffffff16815260200173530eca5d32c1bf2865327df76f6dbc73dea1af5c73ffffffffffffffffffffffffffffffffffffffff1673ffffffffffffffffffffffffffffffffffffffff1681526020017366ee965ffc43d985633d04a044b47b7ba8952ee173ffffffffffffffffffffffffffffffffffffffff1673ffffffffffffffffffffffffffffffffffffffff168152602001735e5ef2c688e6ce34a1d4b4771780716fe06848fa73ffffffffffffffffffffffffffffffffffffffff1673ffffffffffffffffffffffffffffffffffffffff16815260200173c627a07f25c61244e0c72a2bcf52014015f469ff73ffffffffffffffffffffffffffffffffffffffff1673ffffffffffffffffffffffffffffffffffffffff16815260200173232e6c4eb0882fcf92865dc1de98bce2a56b655373ffffffffffffffffffffffffffffffffffffffff1673ffffffffffffffffffffffffffffffffffffffff1681526020017376097c0e5f2700592aa4132adb5eb59869364bd373ffffffffffffffffffffffffffffffffffffffff1673ffffffffffffffffffffffffffffffffffffffff1681526020017388cc2a9882dd3462702e56df1b438fac6e203d4a73ffffffffffffffffffffffffffffffffffffffff1673ffffffffffffffffffffffffffffffffffffffff16815260200173925f5d6ccdb04f56fba1cdcad92e4ebb0d42141173ffffffffffffffffffffffffffffffffffffffff1673ffffffffffffffffffffffffffffffffffffffff16815260200173c5a004f720fb103bd6eb5de362115eb4986f635e73ffffffffffffffffffffffffffffffffffffffff1673ffffffffffffffffffffffffffffffffffffffff16815260200173e1d0a84957b652f36769340c38944f1b97cf3e5e73ffffffffffffffffffffffffffffffffffffffff1673ffffffffffffffffffffffffffffffffffffffff168152602001732ff65b929e7f3329e493501221e3c0c464667db273ffffffffffffffffffffffffffffffffffffffff1673ffffffffffffffffffffffffffffffffffffffff168152602001737cc3e83cd74df93fcc879ec7c905635ee6a6c23373ffffffffffffffffffffffffffffffffffffffff1673ffffffffffffffffffffffffffffffffffffffff168152602001733b864e8588eb3c1c84169aed272dae21734b93ca73ffffffffffffffffffffffffffffffffffffffff1673ffffffffffffffffffffffffffffffffffffffff16815260200173456287fcc918525d664bb4f62c084be4e85d019b73ffffffffffffffffffffffffffffffffffffffff1673ffffffffffffffffffffffffffffffffffffffff16815260200173f1df831ef8dea686508bb27252ea86f72c01218173ffffffffffffffffffffffffffffffffffffffff1673ffffffffffffffffffffffffffffffffffffffff168152602001732d87c6679968a3a15b9b984a5d2c2ece4b9cc7dc73ffffffffffffffffffffffffffffffffffffffff1673ffffffffffffffffffffffffffffffffffffffff168152602001735869c17c8934ce9f674e88c7d4f8f94dce193fcb73ffffffffffffffffffffffffffffffffffffffff1673ffffffffffffffffffffffffffffffffffffffff16815260200173ef458c3fbc811912340d23ac5541839c7a7f3b0873ffffffffffffffffffffffffffffffffffffffff1673ffffffffffffffffffffffffffffffffffffffff16815260200173f67c7315391f9712bf04cfb8a72d450f42f9f57673ffffffffffffffffffffffffffffffffffffffff1673ffffffffffffffffffffffffffffffffffffffff168152602001735baf47751b4eee90d7f9fd5eb75c3ad4162421e473ffffffffffffffffffffffffffffffffffffffff1673ffffffffffffffffffffffffffffffffffffffff16815260200173784b5955fe452c67be9c2f594c73c284f55771e773ffffffffffffffffffffffffffffffffffffffff1673ffffffffffffffffffffffffffffffffffffffff16815260200173b61384c05086576ebd647c9217ce0765bd748ba173ffffffffffffffffffffffffffffffffffffffff1673ffffffffffffffffffffffffffffffffffffffff1681526020017332323265d9f3df331ccacf7bd11135af14776b6973ffffffffffffffffffffffffffffffffffffffff1673ffffffffffffffffffffffffffffffffffffffff16815260200173a1506f8dc05b1c22ba23cbfd4625c68599196e9173ffffffffffffffffffffffffffffffffffffffff1673ffffffffffffffffffffffffffffffffffffffff16815260200173a55f4583b49c8f4a85cc5cdfce503807098509fa73ffffffffffffffffffffffffffffffffffffffff1673ffffffffffffffffffffffffffffffffffffffff168152602001732952c5774fccc6935fe0f44ed57c0e7b4ed9497273ffffffffffffffffffffffffffffffffffffffff1673ffffffffffffffffffffffffffffffffffffffff16815260200173554dcbaf9d1df74c195490d64e37ec0fdfed3c9073ffffffffffffffffffffffffffffffffffffffff1673ffffffffffffffffffffffffffffffffffffffff16815260200173579fc2cd54b0ca848b180bbc8acf45c54982eec573ffffffffffffffffffffffffffffffffffffffff1673ffffffffffffffffffffffffffffffffffffffff16815260200173882337880ee78a7d32a069061994f619fd540f6d73ffffffffffffffffffffffffffffffffffffffff1673ffffffffffffffffffffffffffffffffffffffff168152602001739598cdbe860a1abd8863cfcdf1cfcd3e609c9ea973ffffffffffffffffffffffffffffffffffffffff1673ffffffffffffffffffffffffffffffffffffffff16815260200173a3fd150da53b9b6f65ebb8210552da9d56c32bec73ffffffffffffffffffffffffffffffffffffffff1673ffffffffffffffffffffffffffffffffffffffff16815260200173ab8b3647ef7ff66d2f38ee5eaef2b158c4eb52a273ffffffffffffffffffffffffffffffffffffffff1673ffffffffffffffffffffffffffffffffffffffff16815260200173eb2fa209be50fae31948822b6afd62292dd2463f73ffffffffffffffffffffffffffffffffffffffff1673ffffffffffffffffffffffffffffffffffffffff16815260200173fed50d730c07a85cec48ac586e0372d7d536eef073ffffffffffffffffffffffffffffffffffffffff1673ffffffffffffffffffffffffffffffffffffffff168152602001730cefe7d96642a6a9e2c7e34ec1e431e4206d3a9373ffffffffffffffffffffffffffffffffffffffff1673ffffffffffffffffffffffffffffffffffffffff1681526020017327f672013538c9bbbe87eebe6335302f68684def73ffffffffffffffffffffffffffffffffffffffff1673ffffffffffffffffffffffffffffffffffffffff16815260200173552d4145a79ec49ad73cf4aa413d0ebdf7fd0c9673ffffffffffffffffffffffffffffffffffffffff1673ffffffffffffffffffffffffffffffffffffffff168152602001735e1de79fc192618bbc85e62274b12ad0b48f6b3b73ffffffffffffffffffffffffffffffffffffffff1673ffffffffffffffffffffffffffffffffffffffff1681526020017379a05a48f73c34638b716ad06eff5bcea342508473ffffffffffffffffffffffffffffffffffffffff1673ffffffffffffffffffffffffffffffffffffffff16815260200173c9187b5c81d63b289811a4fcb9ac7adb7103639e73ffffffffffffffffffffffffffffffffffffffff1673ffffffffffffffffffffffffffffffffffffffff16815260200173f821ec616fb20b8c53c043afe1122e5d4165a33573ffffffffffffffffffffffffffffffffffffffff1673ffffffffffffffffffffffffffffffffffffffff1681526020017348b76905b18c7c80e895bda18061a0e6842794f673ffffffffffffffffffffffffffffffffffffffff1673ffffffffffffffffffffffffffffffffffffffff1681526020017378fc08517b0e7fd99f10afff5c3e07049cd0098973ffffffffffffffffffffffffffffffffffffffff1673ffffffffffffffffffffffffffffffffffffffff1681526020017331e4b877b9033fcc355af129fcd387031007bbf073ffffffffffffffffffffffffffffffffffffffff1673ffffffffffffffffffffffffffffffffffffffff168152602001733ed9d598b2099d99e9e49b1697729027c67926d273ffffffffffffffffffffffffffffffffffffffff1673ffffffffffffffffffffffffffffffffffffffff16815260200173de09e76d5a06523a85bedada647aa1a78d99d30c73ffffffffffffffffffffffffffffffffffffffff1673ffffffffffffffffffffffffffffffffffffffff168152602001736a5ec9d4a8e5bbb0f7fd04658e088b4c636d7f1573ffffffffffffffffffffffffffffffffffffffff1673ffffffffffffffffffffffffffffffffffffffff168152602001730ad5d1f88a6c27f1ea4e3f45be0f4751bafc26c573ffffffffffffffffffffffffffffffffffffffff1673ffffffffffffffffffffffffffffffffffffffff168152602001731faa4e309ea6dece1acc4d0e5fe432e2c1148ec273ffffffffffffffffffffffffffffffffffffffff1673ffffffffffffffffffffffffffffffffffffffff168152602001733d981e55bf4b8be8e0d6545e6ba6a140c2ab206a73ffffffffffffffffffffffffffffffffffffffff1673ffffffffffffffffffffffffffffffffffffffff168152602001739fb101bcd5c7baea48e29c45a3f0bd6caaf5709e73ffffffffffffffffffffffffffffffffffffffff1673ffffffffffffffffffffffffffffffffffffffff168152602001733d84a438af72f6396785eea97b32f903520e36c873ffffffffffffffffffffffffffffffffffffffff1673ffffffffffffffffffffffffffffffffffffffff1681526020017341fb20055464819f075025d77ddeb0151f85e24873ffffffffffffffffffffffffffffffffffffffff1673ffffffffffffffffffffffffffffffffffffffff16815260200173909102b9a0005b92d0091ede42c8016f93151ad273ffffffffffffffffffffffffffffffffffffffff1673ffffffffffffffffffffffffffffffffffffffff16815260200173c582bf07f73a30dd10cc512e03a50c87383eeb9173ffffffffffffffffffffffffffffffffffffffff1673ffffffffffffffffffffffffffffffffffffffff1681526020017314b44b350d3ae3147937cc7689404e00dbc1dddf73ffffffffffffffffffffffffffffffffffffffff1673ffffffffffffffffffffffffffffffffffffffff16815260200173012ce20df50768c8ddcd5ecc1e9dcbb3cc7be7fc73ffffffffffffffffffffffffffffffffffffffff1673ffffffffffffffffffffffffffffffffffffffff168152602001739192bdc7117a9a0cd989e6363928a26c938fb23073ffffffffffffffffffffffffffffffffffffffff1673ffffffffffffffffffffffffffffffffffffffff16815260200173ddeee68ea512b7e1eb62e8b130ea4f67f94d377c73ffffffffffffffffffffffffffffffffffffffff1673ffffffffffffffffffffffffffffffffffffffff16815260200173920a14b6dc0f657af6054757b0520f334b37408a73ffffffffffffffffffffffffffffffffffffffff1673ffffffffffffffffffffffffffffffffffffffff168152602001732ce2d27fa4daa7eb559a74c3980dcaca793871a773ffffffffffffffffffffffffffffffffffffffff1673ffffffffffffffffffffffffffffffffffffffff1681525060019060a262002cba92919062002ccf565b5034801562002cc857600080fd5b5062002d7d565b82805482825590600052602060002090810192821562002d4b579160200282015b8281111562002d4a5782518260006101000a81548173ffffffffffffffffffffffffffffffffffffffff021916908373ffffffffffffffffffffffffffffffffffffffff1602179055509160200191906001019062002cf0565b5b50905062002d5a919062002d5e565b5090565b5b8082111562002d7957600081600090555060010162002d5f565b5090565b6153438062002d8d6000396000f3fe60806040523480156200001157600080fd5b5060043610620000b85760003560e01c8063ac2f0074116200007b578063ac2f00741462000199578063b446f3b214620001d5578063c1da1881146200020b578063d23923c21462000241578063faaef9b81462000261578063fafc9246146200029757620000b8565b806316b752f014620000bd5780631a8cbcaa14620000dd57806332b633fa146200011a5780635b6a4cc814620001425780636d0bcd9e1462000162575b600080fd5b620000db6004803603810190620000d5919062001e3d565b620002b7565b005b620000fb6004803603810190620000f5919062001f03565b620003b4565b604051620001119897969594939291906200211d565b60405180910390f35b620001246200067d565b604051620001399796959493929190620025d0565b60405180910390f35b6200016060048036038101906200015a9190620027a2565b62000ca6565b005b6200018060048036038101906200017a9190620028d1565b62000f00565b6040516200019092919062002984565b60405180910390f35b620001b76004803603810190620001b1919062001f03565b62000f7f565b604051620001cc9796959493929190620029b1565b60405180910390f35b620001f36004803603810190620001ed919062002a43565b6200118f565b60405162000202919062002aaf565b60405180910390f35b62000229600480360381019062000223919062001f03565b620011c1565b60405162000238919062002acc565b60405180910390f35b6200025f600480360381019062000259919062002ae9565b6200124a565b005b6200027f600480360381019062000279919062001f03565b6200141c565b6040516200028e919062002b99565b60405180910390f35b620002b56004803603810190620002af919062002bb6565b6200145c565b005b600080620002c6838562000f00565b91509150816200030d576040517f08c379a0000000000000000000000000000000000000000000000000000000008152600401620003049062002c62565b60405180910390fd5b60008054906101000a900473ffffffffffffffffffffffffffffffffffffffff1673ffffffffffffffffffffffffffffffffffffffff168173ffffffffffffffffffffffffffffffffffffffff16146200039e576040517f08c379a0000000000000000000000000000000000000000000000000000000008152600401620003959062002cd4565b60405180910390fd5b620003ab8787876200145c565b50505050505050565b60608060606000806060600080600060028a81548110620003da57620003d962002cf6565b5b90600052602060002090600b0201905080600101816000018260020183600301548460050160009054906101000a900460ff1685600601866009015487600a0154878054620004299062002d54565b80601f0160208091040260200160405190810160405280929190818152602001828054620004579062002d54565b8015620004a85780601f106200047c57610100808354040283529160200191620004a8565b820191906000526020600020905b8154815290600101906020018083116200048a57829003601f168201915b50505050509750868054620004bd9062002d54565b80601f0160208091040260200160405190810160405280929190818152602001828054620004eb9062002d54565b80156200053c5780601f1062000510576101008083540402835291602001916200053c565b820191906000526020600020905b8154815290600101906020018083116200051e57829003601f168201915b5050505050965085805480602002602001604051908101604052809291908181526020018280548015620005c657602002820191906000526020600020905b8160009054906101000a900473ffffffffffffffffffffffffffffffffffffffff1673ffffffffffffffffffffffffffffffffffffffff16815260200190600101908083116200057b575b50505050509550828054620005db9062002d54565b80601f0160208091040260200160405190810160405280929190818152602001828054620006099062002d54565b80156200065a5780601f106200062e576101008083540402835291602001916200065a565b820191906000526020600020905b8154815290600101906020018083116200063c57829003601f168201915b505050505092509850985098509850985098509850985050919395975091939597565b6060806060806060806060600060028054905090508067ffffffffffffffff811115620006af57620006ae62001c42565b5b604051908082528060200260200182016040528015620006e457816020015b6060815260200190600190039081620006ce5790505b5097508067ffffffffffffffff81111562000704576200070362001c42565b5b6040519080825280602002602001820160405280156200073957816020015b6060815260200190600190039081620007235790505b5096508067ffffffffffffffff81111562000759576200075862001c42565b5b6040519080825280602002602001820160405280156200078e57816020015b6060815260200190600190039081620007785790505b5095508067ffffffffffffffff811115620007ae57620007ad62001c42565b5b604051908082528060200260200182016040528015620007dd5781602001602082028036833780820191505090505b5094508067ffffffffffffffff811115620007fd57620007fc62001c42565b5b6040519080825280602002602001820160405280156200082c5781602001602082028036833780820191505090505b5093508067ffffffffffffffff8111156200084c576200084b62001c42565b5b6040519080825280602002602001820160405280156200088157816020015b60608152602001906001900390816200086b5790505b5092508067ffffffffffffffff811115620008a157620008a062001c42565b5b604051908082528060200260200182016040528015620008d05781602001602082028036833780820191505090505b50915060005b8181101562000c9b57600060028281548110620008f857620008f762002cf6565b5b90600052602060002090600b02019050806001018054620009199062002d54565b80601f0160208091040260200160405190810160405280929190818152602001828054620009479062002d54565b8015620009985780601f106200096c5761010080835404028352916020019162000998565b820191906000526020600020905b8154815290600101906020018083116200097a57829003601f168201915b50505050508a8381518110620009b357620009b262002cf6565b5b6020026020010181905250806000018054620009cf9062002d54565b80601f0160208091040260200160405190810160405280929190818152602001828054620009fd9062002d54565b801562000a4e5780601f1062000a225761010080835404028352916020019162000a4e565b820191906000526020600020905b81548152906001019060200180831162000a3057829003601f168201915b505050505089838151811062000a695762000a6862002cf6565b5b60200260200101819052508060020180548060200260200160405190810160405280929190818152602001828054801562000afa57602002820191906000526020600020905b8160009054906101000a900473ffffffffffffffffffffffffffffffffffffffff1673ffffffffffffffffffffffffffffffffffffffff168152602001906001019080831162000aaf575b505050505088838151811062000b155762000b1462002cf6565b5b6020026020010181905250806003015487838151811062000b3b5762000b3a62002cf6565b5b6020026020010181815250508060050160009054906101000a900460ff1686838151811062000b6f5762000b6e62002cf6565b5b6020026020010190600181111562000b8c5762000b8b6200209d565b5b9081600181111562000ba35762000ba26200209d565b5b8152505080600601805462000bb89062002d54565b80601f016020809104026020016040519081016040528092919081815260200182805462000be69062002d54565b801562000c375780601f1062000c0b5761010080835404028352916020019162000c37565b820191906000526020600020905b81548152906001019060200180831162000c1957829003601f168201915b505050505085838151811062000c525762000c5162002cf6565b5b6020026020010181905250806009015484838151811062000c785762000c7762002cf6565b5b60200260200101818152505050808062000c929062002db8565b915050620008d6565b505090919293949596565b60026001816001815401808255809150500390600052602060002090505060006002600160028054905062000cdc919062002e05565b8154811062000cf05762000cef62002cf6565b5b90600052602060002090600b020190506000600160028054905062000d16919062002e05565b90508782600001908162000d2b919062003012565b508882600101908162000d3f919062003012565b50864262000d4e9190620030f9565b8260030181905550848260050160006101000a81548160ff0219169083600181111562000d805762000d7f6200209d565b5b02179055508382600601908162000d98919062003012565b504282600901819055508282600a018190555060005b865181101562000ef45760003088838151811062000dd15762000dd062002cf6565b5b60200260200101518560030154858560405162000dee9062001b65565b62000dfe95949392919062003134565b604051809103906000f08015801562000e1b573d6000803e3d6000fd5b50905083600201819080600181540180825580915050600190039060005260206000200160009091909190916101000a81548173ffffffffffffffffffffffffffffffffffffffff021916908373ffffffffffffffffffffffffffffffffffffffff16021790555060018460080160008373ffffffffffffffffffffffffffffffffffffffff1673ffffffffffffffffffffffffffffffffffffffff16815260200190815260200160002060006101000a81548160ff02191690831515021790555050808062000eeb9062002db8565b91505062000dae565b50505050505050505050565b600080600062000f108562001970565b9050600062000f208286620019cf565b905060008054906101000a900473ffffffffffffffffffffffffffffffffffffffff1673ffffffffffffffffffffffffffffffffffffffff168173ffffffffffffffffffffffffffffffffffffffff1614819350935050509250929050565b6002818154811062000f9057600080fd5b90600052602060002090600b020160009150905080600001805462000fb59062002d54565b80601f016020809104026020016040519081016040528092919081815260200182805462000fe39062002d54565b8015620010345780601f10620010085761010080835404028352916020019162001034565b820191906000526020600020905b8154815290600101906020018083116200101657829003601f168201915b5050505050908060010180546200104b9062002d54565b80601f0160208091040260200160405190810160405280929190818152602001828054620010799062002d54565b8015620010ca5780601f106200109e57610100808354040283529160200191620010ca565b820191906000526020600020905b815481529060010190602001808311620010ac57829003601f168201915b5050505050908060030154908060050160009054906101000a900460ff1690806006018054620010fa9062002d54565b80601f0160208091040260200160405190810160405280929190818152602001828054620011289062002d54565b8015620011795780601f106200114d5761010080835404028352916020019162001179565b820191906000526020600020905b8154815290600101906020018083116200115b57829003601f168201915b50505050509080600901549080600a0154905087565b600081604051602001620011a49190620031da565b604051602081830303815290604052805190602001209050919050565b600060028054905082106200120d576040517f08c379a0000000000000000000000000000000000000000000000000000000008152600401620012049062003243565b60405180910390fd5b6002828154811062001224576200122362002cf6565b5b90600052602060002090600b020160050160009054906101000a900460ff169050919050565b600062001258828462000f00565b509050806200129e576040517f08c379a0000000000000000000000000000000000000000000000000000000008152600401620012959062002c62565b60405180910390fd5b600060028681548110620012b757620012b662002cf6565b5b90600052602060002090600b02019050600180811115620012dd57620012dc6200209d565b5b8160050160009054906101000a900460ff1660018111156200130457620013036200209d565b5b036200135857620013153362001a43565b62001357576040517f08c379a00000000000000000000000000000000000000000000000000000000081526004016200134e90620032db565b60405180910390fd5b5b600081600201868154811062001373576200137262002cf6565b5b9060005260206000200160009054906101000a900473ffffffffffffffffffffffffffffffffffffffff1690508073ffffffffffffffffffffffffffffffffffffffff1663f52fa10a3387876040518463ffffffff1660e01b8152600401620013df939291906200335a565b600060405180830381600087803b158015620013fa57600080fd5b505af11580156200140f573d6000803e3d6000fd5b5050505050505050505050565b600181815481106200142d57600080fd5b906000526020600020016000915054906101000a900473ffffffffffffffffffffffffffffffffffffffff1681565b6002828154811062001473576200147262002cf6565b5b90600052602060002090600b020160080160003373ffffffffffffffffffffffffffffffffffffffff1673ffffffffffffffffffffffffffffffffffffffff16815260200190815260200160002060009054906101000a900460ff1662001511576040517f08c379a000000000000000000000000000000000000000000000000000000000815260040162001508906200341b565b60405180910390fd5b6002828154811062001528576200152762002cf6565b5b90600052602060002090600b0201600a01544311156200157f576040517f08c379a00000000000000000000000000000000000000000000000000000000081526004016200157690620034b3565b60405180910390fd5b6002828154811062001596576200159562002cf6565b5b90600052602060002090600b020160040160008473ffffffffffffffffffffffffffffffffffffffff1673ffffffffffffffffffffffffffffffffffffffff16815260200190815260200160002060009054906101000a900460ff16156200183d57806002838154811062001610576200160f62002cf6565b5b90600052602060002090600b020160070160008573ffffffffffffffffffffffffffffffffffffffff1673ffffffffffffffffffffffffffffffffffffffff168152602001908152602001600020541462001837576000600283815481106200167e576200167d62002cf6565b5b90600052602060002090600b020160070160008573ffffffffffffffffffffffffffffffffffffffff1673ffffffffffffffffffffffffffffffffffffffff168152602001908152602001600020549050600060028481548110620016e857620016e762002cf6565b5b90600052602060002090600b020160020182815481106200170e576200170d62002cf6565b5b9060005260206000200160009054906101000a900473ffffffffffffffffffffffffffffffffffffffff1690508073ffffffffffffffffffffffffffffffffffffffff16633ccc1f53866040518263ffffffff1660e01b815260040162001776919062002b99565b600060405180830381600087803b1580156200179157600080fd5b505af1158015620017a6573d6000803e3d6000fd5b5050505081848673ffffffffffffffffffffffffffffffffffffffff167fb0321094eaa7c50d0d43dd3eaf4c55b6acc710097665448e0565f58a498980be60405160405180910390a482848673ffffffffffffffffffffffffffffffffffffffff167ff75b557412ca4429d4ef66a92f3e3aa3becb79b047d943377283ebf79552e3f860405160405180910390a450505b62001883565b80828473ffffffffffffffffffffffffffffffffffffffff167fcb87df07b1c304492bd875a5c8b98672eca500939412809ea229afef1d74518860405160405180910390a45b80600283815481106200189b576200189a62002cf6565b5b90600052602060002090600b020160070160008573ffffffffffffffffffffffffffffffffffffffff1673ffffffffffffffffffffffffffffffffffffffff1681526020019081526020016000208190555060016002838154811062001906576200190562002cf6565b5b90600052602060002090600b020160040160008573ffffffffffffffffffffffffffffffffffffffff1673ffffffffffffffffffffffffffffffffffffffff16815260200190815260200160002060006101000a81548160ff021916908315150217905550505050565b60008082604051602001620019869190620031da565b60405160208183030381529060405280519060200120905080604051602001620019b191906200354a565b60405160208183030381529060405280519060200120915050919050565b600080600080620019e08562001afa565b9250925092506001868285856040516000815260200160405260405162001a0b949392919062003592565b6020604051602081039080840390855afa15801562001a2e573d6000803e3d6000fd5b50505060206040510351935050505092915050565b600080600090505b60018054905081101562001aef578273ffffffffffffffffffffffffffffffffffffffff166001828154811062001a875762001a8662002cf6565b5b9060005260206000200160009054906101000a900473ffffffffffffffffffffffffffffffffffffffff1673ffffffffffffffffffffffffffffffffffffffff160362001ad957600191505062001af5565b808062001ae69062002db8565b91505062001a4b565b50600090505b919050565b6000806000604184511462001b46576040517f08c379a000000000000000000000000000000000000000000000000000000000815260040162001b3d906200362f565b60405180910390fd5b6020840151925060408401519150606084015160001a90509193909250565b611cbc806200365283390190565b6000604051905090565b600080fd5b600080fd5b600073ffffffffffffffffffffffffffffffffffffffff82169050919050565b600062001bb48262001b87565b9050919050565b62001bc68162001ba7565b811462001bd257600080fd5b50565b60008135905062001be68162001bbb565b92915050565b6000819050919050565b62001c018162001bec565b811462001c0d57600080fd5b50565b60008135905062001c218162001bf6565b92915050565b600080fd5b600080fd5b6000601f19601f8301169050919050565b7f4e487b7100000000000000000000000000000000000000000000000000000000600052604160045260246000fd5b62001c7c8262001c31565b810181811067ffffffffffffffff8211171562001c9e5762001c9d62001c42565b5b80604052505050565b600062001cb362001b73565b905062001cc1828262001c71565b919050565b600067ffffffffffffffff82111562001ce45762001ce362001c42565b5b62001cef8262001c31565b9050602081019050919050565b82818337600083830152505050565b600062001d2262001d1c8462001cc6565b62001ca7565b90508281526020810184848401111562001d415762001d4062001c2c565b5b62001d4e84828562001cfc565b509392505050565b600082601f83011262001d6e5762001d6d62001c27565b5b813562001d8084826020860162001d0b565b91505092915050565b600067ffffffffffffffff82111562001da75762001da662001c42565b5b62001db28262001c31565b9050602081019050919050565b600062001dd662001dd08462001d89565b62001ca7565b90508281526020810184848401111562001df55762001df462001c2c565b5b62001e0284828562001cfc565b509392505050565b600082601f83011262001e225762001e2162001c27565b5b813562001e3484826020860162001dbf565b91505092915050565b600080600080600060a0868803121562001e5c5762001e5b62001b7d565b5b600062001e6c8882890162001bd5565b955050602062001e7f8882890162001c10565b945050604062001e928882890162001c10565b935050606086013567ffffffffffffffff81111562001eb65762001eb562001b82565b5b62001ec48882890162001d56565b925050608086013567ffffffffffffffff81111562001ee85762001ee762001b82565b5b62001ef68882890162001e0a565b9150509295509295909350565b60006020828403121562001f1c5762001f1b62001b7d565b5b600062001f2c8482850162001c10565b91505092915050565b600081519050919050565b600082825260208201905092915050565b60005b8381101562001f7157808201518184015260208101905062001f54565b60008484015250505050565b600062001f8a8262001f35565b62001f96818562001f40565b935062001fa881856020860162001f51565b62001fb38162001c31565b840191505092915050565b600081519050919050565b600082825260208201905092915050565b6000819050602082019050919050565b62001ff58162001ba7565b82525050565b600062002009838362001fea565b60208301905092915050565b6000602082019050919050565b60006200202f8262001fbe565b6200203b818562001fc9565b9350620020488362001fda565b8060005b838110156200207f57815162002063888262001ffb565b9750620020708362002015565b9250506001810190506200204c565b5085935050505092915050565b620020978162001bec565b82525050565b7f4e487b7100000000000000000000000000000000000000000000000000000000600052602160045260246000fd5b60028110620020e057620020df6200209d565b5b50565b6000819050620020f382620020cc565b919050565b60006200210582620020e3565b9050919050565b6200211781620020f8565b82525050565b60006101008201905081810360008301526200213a818b62001f7d565b9050818103602083015262002150818a62001f7d565b9050818103604083015262002166818962002022565b90506200217760608301886200208c565b6200218660808301876200210c565b81810360a08301526200219a818662001f7d565b9050620021ab60c08301856200208c565b620021ba60e08301846200208c565b9998505050505050505050565b600081519050919050565b600082825260208201905092915050565b6000819050602082019050919050565b600082825260208201905092915050565b6000620022118262001f35565b6200221d8185620021f3565b93506200222f81856020860162001f51565b6200223a8162001c31565b840191505092915050565b600062002253838362002204565b905092915050565b6000602082019050919050565b60006200227582620021c7565b620022818185620021d2565b9350836020820285016200229585620021e3565b8060005b85811015620022d75784840389528151620022b5858262002245565b9450620022c2836200225b565b925060208a0199505060018101905062002299565b50829750879550505050505092915050565b600081519050919050565b600082825260208201905092915050565b6000819050602082019050919050565b600082825260208201905092915050565b6000620023338262001fbe565b6200233f818562002315565b93506200234c8362001fda565b8060005b838110156200238357815162002367888262001ffb565b9750620023748362002015565b92505060018101905062002350565b5085935050505092915050565b60006200239e838362002326565b905092915050565b6000602082019050919050565b6000620023c082620022e9565b620023cc8185620022f4565b935083602082028501620023e08562002305565b8060005b8581101562002422578484038952815162002400858262002390565b94506200240d83620023a6565b925060208a01995050600181019050620023e4565b50829750879550505050505092915050565b600081519050919050565b600082825260208201905092915050565b6000819050602082019050919050565b6200246b8162001bec565b82525050565b60006200247f838362002460565b60208301905092915050565b6000602082019050919050565b6000620024a58262002434565b620024b181856200243f565b9350620024be8362002450565b8060005b83811015620024f5578151620024d9888262002471565b9750620024e6836200248b565b925050600181019050620024c2565b5085935050505092915050565b600081519050919050565b600082825260208201905092915050565b6000819050602082019050919050565b6200253981620020f8565b82525050565b60006200254d83836200252e565b60208301905092915050565b6000602082019050919050565b6000620025738262002502565b6200257f81856200250d565b93506200258c836200251e565b8060005b83811015620025c3578151620025a788826200253f565b9750620025b48362002559565b92505060018101905062002590565b5085935050505092915050565b600060e0820190508181036000830152620025ec818a62002268565b9050818103602083015262002602818962002268565b90508181036040830152620026188188620023b3565b905081810360608301526200262e818762002498565b9050818103608083015262002644818662002566565b905081810360a08301526200265a818562002268565b905081810360c083015262002670818462002498565b905098975050505050505050565b600067ffffffffffffffff8211156200269c576200269b62001c42565b5b602082029050602081019050919050565b600080fd5b6000620026c9620026c3846200267e565b62001ca7565b90508083825260208201905060208402830185811115620026ef57620026ee620026ad565b5b835b818110156200273d57803567ffffffffffffffff81111562002718576200271762001c27565b5b80860162002727898262001e0a565b85526020850194505050602081019050620026f1565b5050509392505050565b600082601f8301126200275f576200275e62001c27565b5b813562002771848260208601620026b2565b91505092915050565b600281106200278857600080fd5b50565b6000813590506200279c816200277a565b92915050565b600080600080600080600060e0888a031215620027c457620027c362001b7d565b5b600088013567ffffffffffffffff811115620027e557620027e462001b82565b5b620027f38a828b0162001e0a565b975050602088013567ffffffffffffffff81111562002817576200281662001b82565b5b620028258a828b0162001e0a565b9650506040620028388a828b0162001c10565b955050606088013567ffffffffffffffff8111156200285c576200285b62001b82565b5b6200286a8a828b0162002747565b94505060806200287d8a828b016200278b565b93505060a088013567ffffffffffffffff811115620028a157620028a062001b82565b5b620028af8a828b0162001e0a565b92505060c0620028c28a828b0162001c10565b91505092959891949750929550565b60008060408385031215620028eb57620028ea62001b7d565b5b600083013567ffffffffffffffff8111156200290c576200290b62001b82565b5b6200291a8582860162001e0a565b925050602083013567ffffffffffffffff8111156200293e576200293d62001b82565b5b6200294c8582860162001d56565b9150509250929050565b60008115159050919050565b6200296d8162002956565b82525050565b6200297e8162001ba7565b82525050565b60006040820190506200299b600083018562002962565b620029aa602083018462002973565b9392505050565b600060e0820190508181036000830152620029cd818a62001f7d565b90508181036020830152620029e3818962001f7d565b9050620029f460408301886200208c565b62002a0360608301876200210c565b818103608083015262002a17818662001f7d565b905062002a2860a08301856200208c565b62002a3760c08301846200208c565b98975050505050505050565b60006020828403121562002a5c5762002a5b62001b7d565b5b600082013567ffffffffffffffff81111562002a7d5762002a7c62001b82565b5b62002a8b8482850162001e0a565b91505092915050565b6000819050919050565b62002aa98162002a94565b82525050565b600060208201905062002ac6600083018462002a9e565b92915050565b600060208201905062002ae360008301846200210c565b92915050565b6000806000806080858703121562002b065762002b0562001b7d565b5b600062002b168782880162001c10565b945050602062002b298782880162001c10565b935050604085013567ffffffffffffffff81111562002b4d5762002b4c62001b82565b5b62002b5b8782880162001d56565b925050606085013567ffffffffffffffff81111562002b7f5762002b7e62001b82565b5b62002b8d8782880162001e0a565b91505092959194509250565b600060208201905062002bb0600083018462002973565b92915050565b60008060006060848603121562002bd25762002bd162001b7d565b5b600062002be28682870162001bd5565b935050602062002bf58682870162001c10565b925050604062002c088682870162001c10565b9150509250925092565b7f5369676e617475726520766572696669636174696f6e206661696c6564000000600082015250565b600062002c4a601d8362001f40565b915062002c578262002c12565b602082019050919050565b6000602082019050818103600083015262002c7d8162002c3b565b9050919050565b7f5369676e61747572652063616e6e6f7420626520766572696669656400000000600082015250565b600062002cbc601c8362001f40565b915062002cc98262002c84565b602082019050919050565b6000602082019050818103600083015262002cef8162002cad565b9050919050565b7f4e487b7100000000000000000000000000000000000000000000000000000000600052603260045260246000fd5b7f4e487b7100000000000000000000000000000000000000000000000000000000600052602260045260246000fd5b6000600282049050600182168062002d6d57607f821691505b60208210810362002d835762002d8262002d25565b5b50919050565b7f4e487b7100000000000000000000000000000000000000000000000000000000600052601160045260246000fd5b600062002dc58262001bec565b91507fffffffffffffffffffffffffffffffffffffffffffffffffffffffffffffffff820362002dfa5762002df962002d89565b5b600182019050919050565b600062002e128262001bec565b915062002e1f8362001bec565b925082820390508181111562002e3a5762002e3962002d89565b5b92915050565b60008190508160005260206000209050919050565b60006020601f8301049050919050565b600082821b905092915050565b60006008830262002ea47fffffffffffffffffffffffffffffffffffffffffffffffffffffffffffffffff8262002e65565b62002eb0868362002e65565b95508019841693508086168417925050509392505050565b6000819050919050565b600062002ef362002eed62002ee78462001bec565b62002ec8565b62001bec565b9050919050565b6000819050919050565b62002f0f8362002ed2565b62002f2762002f1e8262002efa565b84845462002e72565b825550505050565b600090565b62002f3e62002f2f565b62002f4b81848462002f04565b505050565b5b8181101562002f735762002f6760008262002f34565b60018101905062002f51565b5050565b601f82111562002fc25762002f8c8162002e40565b62002f978462002e55565b8101602085101562002fa7578190505b62002fbf62002fb68562002e55565b83018262002f50565b50505b505050565b600082821c905092915050565b600062002fe76000198460080262002fc7565b1980831691505092915050565b600062003002838362002fd4565b9150826002028217905092915050565b6200301d8262001f35565b67ffffffffffffffff81111562003039576200303862001c42565b5b62003045825462002d54565b6200305282828562002f77565b600060209050601f8311600181146200308a576000841562003075578287015190505b62003081858262002ff4565b865550620030f1565b601f1984166200309a8662002e40565b60005b82811015620030c4578489015182556001820191506020850194506020810190506200309d565b86831015620030e45784890151620030e0601f89168262002fd4565b8355505b6001600288020188555050505b505050505050565b6000620031068262001bec565b9150620031138362001bec565b92508282019050808211156200312e576200312d62002d89565b5b92915050565b600060a0820190506200314b600083018862002973565b81810360208301526200315f818762001f7d565b90506200317060408301866200208c565b6200317f60608301856200208c565b6200318e60808301846200208c565b9695505050505050565b600081905092915050565b6000620031b08262001f35565b620031bc818562003198565b9350620031ce81856020860162001f51565b80840191505092915050565b6000620031e88284620031a3565b915081905092915050565b7f506f6c6c20696e646578206f7574206f6620626f756e64730000000000000000600082015250565b60006200322b60188362001f40565b91506200323882620031f3565b602082019050919050565b600060208201905081810360008301526200325e816200321c565b9050919050565b7f566f746572206973206e6f7420616c6c6f77656420746f20766f746520696e2060008201527f7468697320706f6c6c2e00000000000000000000000000000000000000000000602082015250565b6000620032c3602a8362001f40565b9150620032d08262003265565b604082019050919050565b60006020820190508181036000830152620032f681620032b4565b9050919050565b600081519050919050565b600082825260208201905092915050565b60006200332682620032fd565b62003332818562003308565b93506200334481856020860162001f51565b6200334f8162001c31565b840191505092915050565b600060608201905062003371600083018662002973565b818103602083015262003385818562003319565b905081810360408301526200339b818462001f7d565b9050949350505050565b7f43616c6c6572206973206e6f7420612076616c6964206f7074696f6e20666f7260008201527f207468697320706f6c6c00000000000000000000000000000000000000000000602082015250565b600062003403602a8362001f40565b91506200341082620033a5565b604082019050919050565b600060208201905081810360008301526200343681620033f4565b9050919050565b7f506f6c6c2068617320656e646564206261736564206f6e20626c6f636b206e7560008201527f6d62657200000000000000000000000000000000000000000000000000000000602082015250565b60006200349b60248362001f40565b9150620034a8826200343d565b604082019050919050565b60006020820190508181036000830152620034ce816200348c565b9050919050565b7f19457468657265756d205369676e6564204d6573736167653a0a333200000000600082015250565b60006200350d601c8362003198565b91506200351a82620034d5565b601c82019050919050565b6000819050919050565b620035446200353e8262002a94565b62003525565b82525050565b60006200355782620034fe565b91506200356582846200352f565b60208201915081905092915050565b600060ff82169050919050565b6200358c8162003574565b82525050565b6000608082019050620035a9600083018762002a9e565b620035b8602083018662003581565b620035c7604083018562002a9e565b620035d6606083018462002a9e565b95945050505050565b7f496e76616c6964207369676e6174757265206c656e6774680000000000000000600082015250565b60006200361760188362001f40565b91506200362482620035df565b602082019050919050565b600060208201905081810360008301526200364a8162003608565b905091905056fe60806040523480156200001157600080fd5b5060405162001cbc38038062001cbc8339818101604052810190620000379190620002dc565b846000806101000a81548173ffffffffffffffffffffffffffffffffffffffff021916908373ffffffffffffffffffffffffffffffffffffffff1602179055508360019081620000889190620005c4565b508260028190555081600381905550806004819055505050505050620006ab565b6000604051905090565b600080fd5b600080fd5b600073ffffffffffffffffffffffffffffffffffffffff82169050919050565b6000620000ea82620000bd565b9050919050565b620000fc81620000dd565b81146200010857600080fd5b50565b6000815190506200011c81620000f1565b92915050565b600080fd5b600080fd5b6000601f19601f8301169050919050565b7f4e487b7100000000000000000000000000000000000000000000000000000000600052604160045260246000fd5b62000177826200012c565b810181811067ffffffffffffffff821117156200019957620001986200013d565b5b80604052505050565b6000620001ae620000a9565b9050620001bc82826200016c565b919050565b600067ffffffffffffffff821115620001df57620001de6200013d565b5b620001ea826200012c565b9050602081019050919050565b60005b8381101562000217578082015181840152602081019050620001fa565b60008484015250505050565b60006200023a6200023484620001c1565b620001a2565b90508281526020810184848401111562000259576200025862000127565b5b62000266848285620001f7565b509392505050565b600082601f83011262000286576200028562000122565b5b81516200029884826020860162000223565b91505092915050565b6000819050919050565b620002b681620002a1565b8114620002c257600080fd5b50565b600081519050620002d681620002ab565b92915050565b600080600080600060a08688031215620002fb57620002fa620000b3565b5b60006200030b888289016200010b565b955050602086015167ffffffffffffffff8111156200032f576200032e620000b8565b5b6200033d888289016200026e565b94505060406200035088828901620002c5565b93505060606200036388828901620002c5565b92505060806200037688828901620002c5565b9150509295509295909350565b600081519050919050565b7f4e487b7100000000000000000000000000000000000000000000000000000000600052602260045260246000fd5b60006002820490506001821680620003d657607f821691505b602082108103620003ec57620003eb6200038e565b5b50919050565b60008190508160005260206000209050919050565b60006020601f8301049050919050565b600082821b905092915050565b600060088302620004567fffffffffffffffffffffffffffffffffffffffffffffffffffffffffffffffff8262000417565b62000462868362000417565b95508019841693508086168417925050509392505050565b6000819050919050565b6000620004a56200049f6200049984620002a1565b6200047a565b620002a1565b9050919050565b6000819050919050565b620004c18362000484565b620004d9620004d082620004ac565b84845462000424565b825550505050565b600090565b620004f0620004e1565b620004fd818484620004b6565b505050565b5b81811015620005255762000519600082620004e6565b60018101905062000503565b5050565b601f82111562000574576200053e81620003f2565b620005498462000407565b8101602085101562000559578190505b62000571620005688562000407565b83018262000502565b50505b505050565b600082821c905092915050565b6000620005996000198460080262000579565b1980831691505092915050565b6000620005b4838362000586565b9150826002028217905092915050565b620005cf8262000383565b67ffffffffffffffff811115620005eb57620005ea6200013d565b5b620005f78254620003bd565b6200060482828562000529565b600060209050601f8311600181146200063c576000841562000627578287015190505b620006338582620005a6565b865550620006a3565b601f1984166200064c86620003f2565b60005b8281101562000676578489015182556001820191506020850194506020810190506200064f565b8683101562000696578489015162000692601f89168262000586565b8355505b6001600288020188555050505b505050505050565b61160180620006bb6000396000f3fe6080604052600436106100955760003560e01c806399100fa51161005957806399100fa5146101cd578063c0f2a777146101f8578063d270e7ab14610223578063da58c7d91461024e578063f52fa10a1461028b576100f8565b80630649370b146100fa57806306fdde03146101235780633197cbb61461014e5780633ccc1f5314610179578063769e2da5146101a2576100f8565b366100f8576000341480156100ae57506100ad6102b4565b5b6100ed576040517f08c379a00000000000000000000000000000000000000000000000000000000081526004016100e490610d14565b60405180910390fd5b6100f63361039a565b005b005b34801561010657600080fd5b50610121600480360381019061011c9190610da6565b61039a565b005b34801561012f57600080fd5b506101386105d6565b6040516101459190610e52565b60405180910390f35b34801561015a57600080fd5b50610163610664565b6040516101709190610e8d565b60405180910390f35b34801561018557600080fd5b506101a0600480360381019061019b9190610da6565b61066a565b005b3480156101ae57600080fd5b506101b76109f9565b6040516101c49190610e8d565b60405180910390f35b3480156101d957600080fd5b506101e26109ff565b6040516101ef9190610e8d565b60405180910390f35b34801561020457600080fd5b5061020d610a05565b60405161021a9190610e8d565b60405180910390f35b34801561022f57600080fd5b50610238610a12565b6040516102459190610eb7565b60405180910390f35b34801561025a57600080fd5b5061027560048036038101906102709190610efe565b610a36565b6040516102829190610eb7565b60405180910390f35b34801561029757600080fd5b506102b260048036038101906102ad9190611101565b610a75565b005b60008060008054906101000a900473ffffffffffffffffffffffffffffffffffffffff16905060008173ffffffffffffffffffffffffffffffffffffffff1663c1da18816003546040518263ffffffff1660e01b81526004016103179190610e8d565b602060405180830381865afa158015610334573d6000803e3d6000fd5b505050506040513d601f19601f8201168201806040525081019061035891906111b1565b905060018081111561036d5761036c6111de565b5b8160018111156103805761037f6111de565b5b0361039057600092505050610397565b6001925050505b90565b60025442106103de576040517f08c379a00000000000000000000000000000000000000000000000000000000081526004016103d590611259565b60405180910390fd5b60008054906101000a900473ffffffffffffffffffffffffffffffffffffffff1673ffffffffffffffffffffffffffffffffffffffff1663fafc9246826003546004546040518463ffffffff1660e01b815260040161043f93929190611279565b600060405180830381600087803b15801561045957600080fd5b505af115801561046d573d6000803e3d6000fd5b50505050600760008273ffffffffffffffffffffffffffffffffffffffff1673ffffffffffffffffffffffffffffffffffffffff16815260200190815260200160002060009054906101000a900460ff1661057b576005819080600181540180825580915050600190039060005260206000200160009091909190916101000a81548173ffffffffffffffffffffffffffffffffffffffff021916908373ffffffffffffffffffffffffffffffffffffffff160217905550600160058054905061053791906112df565b600660008373ffffffffffffffffffffffffffffffffffffffff1673ffffffffffffffffffffffffffffffffffffffff168152602001908152602001600020819055505b6001600760008373ffffffffffffffffffffffffffffffffffffffff1673ffffffffffffffffffffffffffffffffffffffff16815260200190815260200160002060006101000a81548160ff02191690831515021790555050565b600180546105e390611342565b80601f016020809104026020016040519081016040528092919081815260200182805461060f90611342565b801561065c5780601f106106315761010080835404028352916020019161065c565b820191906000526020600020905b81548152906001019060200180831161063f57829003601f168201915b505050505081565b60025481565b60008054906101000a900473ffffffffffffffffffffffffffffffffffffffff1673ffffffffffffffffffffffffffffffffffffffff163373ffffffffffffffffffffffffffffffffffffffff16146106f8576040517f08c379a00000000000000000000000000000000000000000000000000000000081526004016106ef906113bf565b60405180910390fd5b600760008273ffffffffffffffffffffffffffffffffffffffff1673ffffffffffffffffffffffffffffffffffffffff16815260200190815260200160002060009054906101000a900460ff16610784576040517f08c379a000000000000000000000000000000000000000000000000000000000815260040161077b9061142b565b60405180910390fd5b6000600660008373ffffffffffffffffffffffffffffffffffffffff1673ffffffffffffffffffffffffffffffffffffffff168152602001908152602001600020549050600580549050811061080f576040517f08c379a000000000000000000000000000000000000000000000000000000000815260040161080690611497565b60405180910390fd5b6000600160058054905061082391906112df565b905080821461091257600060058281548110610842576108416114b7565b5b9060005260206000200160009054906101000a900473ffffffffffffffffffffffffffffffffffffffff1690508060058481548110610884576108836114b7565b5b9060005260206000200160006101000a81548173ffffffffffffffffffffffffffffffffffffffff021916908373ffffffffffffffffffffffffffffffffffffffff16021790555082600660008373ffffffffffffffffffffffffffffffffffffffff1673ffffffffffffffffffffffffffffffffffffffff16815260200190815260200160002081905550505b6005805480610924576109236114e6565b5b6001900381819060005260206000200160006101000a81549073ffffffffffffffffffffffffffffffffffffffff02191690559055600660008473ffffffffffffffffffffffffffffffffffffffff1673ffffffffffffffffffffffffffffffffffffffff168152602001908152602001600020600090556000600760008573ffffffffffffffffffffffffffffffffffffffff1673ffffffffffffffffffffffffffffffffffffffff16815260200190815260200160002060006101000a81548160ff021916908315150217905550505050565b60045481565b60035481565b6000600580549050905090565b60008054906101000a900473ffffffffffffffffffffffffffffffffffffffff1681565b60058181548110610a4657600080fd5b906000526020600020016000915054906101000a900473ffffffffffffffffffffffffffffffffffffffff1681565b6002544210610ab9576040517f08c379a0000000000000000000000000000000000000000000000000000000008152600401610ab090611259565b60405180910390fd5b60008054906101000a900473ffffffffffffffffffffffffffffffffffffffff1673ffffffffffffffffffffffffffffffffffffffff166316b752f08460035460045486866040518663ffffffff1660e01b8152600401610b1e95949392919061156a565b600060405180830381600087803b158015610b3857600080fd5b505af1158015610b4c573d6000803e3d6000fd5b50505050600760008473ffffffffffffffffffffffffffffffffffffffff1673ffffffffffffffffffffffffffffffffffffffff16815260200190815260200160002060009054906101000a900460ff16610c5a576005839080600181540180825580915050600190039060005260206000200160009091909190916101000a81548173ffffffffffffffffffffffffffffffffffffffff021916908373ffffffffffffffffffffffffffffffffffffffff1602179055506001600580549050610c1691906112df565b600660008573ffffffffffffffffffffffffffffffffffffffff1673ffffffffffffffffffffffffffffffffffffffff168152602001908152602001600020819055505b6001600760008573ffffffffffffffffffffffffffffffffffffffff1673ffffffffffffffffffffffffffffffffffffffff16815260200190815260200160002060006101000a81548160ff021916908315150217905550505050565b600082825260208201905092915050565b7f43616e6e6f742073656e6420455448207769746820766f746500000000000000600082015250565b6000610cfe601983610cb7565b9150610d0982610cc8565b602082019050919050565b60006020820190508181036000830152610d2d81610cf1565b9050919050565b6000604051905090565b600080fd5b600080fd5b600073ffffffffffffffffffffffffffffffffffffffff82169050919050565b6000610d7382610d48565b9050919050565b610d8381610d68565b8114610d8e57600080fd5b50565b600081359050610da081610d7a565b92915050565b600060208284031215610dbc57610dbb610d3e565b5b6000610dca84828501610d91565b91505092915050565b600081519050919050565b60005b83811015610dfc578082015181840152602081019050610de1565b60008484015250505050565b6000601f19601f8301169050919050565b6000610e2482610dd3565b610e2e8185610cb7565b9350610e3e818560208601610dde565b610e4781610e08565b840191505092915050565b60006020820190508181036000830152610e6c8184610e19565b905092915050565b6000819050919050565b610e8781610e74565b82525050565b6000602082019050610ea26000830184610e7e565b92915050565b610eb181610d68565b82525050565b6000602082019050610ecc6000830184610ea8565b92915050565b610edb81610e74565b8114610ee657600080fd5b50565b600081359050610ef881610ed2565b92915050565b600060208284031215610f1457610f13610d3e565b5b6000610f2284828501610ee9565b91505092915050565b600080fd5b600080fd5b7f4e487b7100000000000000000000000000000000000000000000000000000000600052604160045260246000fd5b610f6d82610e08565b810181811067ffffffffffffffff82111715610f8c57610f8b610f35565b5b80604052505050565b6000610f9f610d34565b9050610fab8282610f64565b919050565b600067ffffffffffffffff821115610fcb57610fca610f35565b5b610fd482610e08565b9050602081019050919050565b82818337600083830152505050565b6000611003610ffe84610fb0565b610f95565b90508281526020810184848401111561101f5761101e610f30565b5b61102a848285610fe1565b509392505050565b600082601f83011261104757611046610f2b565b5b8135611057848260208601610ff0565b91505092915050565b600067ffffffffffffffff82111561107b5761107a610f35565b5b61108482610e08565b9050602081019050919050565b60006110a461109f84611060565b610f95565b9050828152602081018484840111156110c0576110bf610f30565b5b6110cb848285610fe1565b509392505050565b600082601f8301126110e8576110e7610f2b565b5b81356110f8848260208601611091565b91505092915050565b60008060006060848603121561111a57611119610d3e565b5b600061112886828701610d91565b935050602084013567ffffffffffffffff81111561114957611148610d43565b5b61115586828701611032565b925050604084013567ffffffffffffffff81111561117657611175610d43565b5b611182868287016110d3565b9150509250925092565b6002811061119957600080fd5b50565b6000815190506111ab8161118c565b92915050565b6000602082840312156111c7576111c6610d3e565b5b60006111d58482850161119c565b91505092915050565b7f4e487b7100000000000000000000000000000000000000000000000000000000600052602160045260246000fd5b7f506f6c6c2068617320656e646564000000000000000000000000000000000000600082015250565b6000611243600e83610cb7565b915061124e8261120d565b602082019050919050565b6000602082019050818103600083015261127281611236565b9050919050565b600060608201905061128e6000830186610ea8565b61129b6020830185610e7e565b6112a86040830184610e7e565b949350505050565b7f4e487b7100000000000000000000000000000000000000000000000000000000600052601160045260246000fd5b60006112ea82610e74565b91506112f583610e74565b925082820390508181111561130d5761130c6112b0565b5b92915050565b7f4e487b7100000000000000000000000000000000000000000000000000000000600052602260045260246000fd5b6000600282049050600182168061135a57607f821691505b60208210810361136d5761136c611313565b5b50919050565b7f596f7520646f6e27742068617665206163636573730000000000000000000000600082015250565b60006113a9601583610cb7565b91506113b482611373565b602082019050919050565b600060208201905081810360008301526113d88161139c565b9050919050565b7f4e6f20766f746520746f2072656d6f7665000000000000000000000000000000600082015250565b6000611415601183610cb7565b9150611420826113df565b602082019050919050565b6000602082019050818103600083015261144481611408565b9050919050565b7f566f746572206e6f7420666f756e640000000000000000000000000000000000600082015250565b6000611481600f83610cb7565b915061148c8261144b565b602082019050919050565b600060208201905081810360008301526114b081611474565b9050919050565b7f4e487b7100000000000000000000000000000000000000000000000000000000600052603260045260246000fd5b7f4e487b7100000000000000000000000000000000000000000000000000000000600052603160045260246000fd5b600081519050919050565b600082825260208201905092915050565b600061153c82611515565b6115468185611520565b9350611556818560208601610dde565b61155f81610e08565b840191505092915050565b600060a08201905061157f6000830188610ea8565b61158c6020830187610e7e565b6115996040830186610e7e565b81810360608301526115ab8185611531565b905081810360808301526115bf8184610e19565b9050969550505050505056fea2646970667358221220ab2e0ec622aba20195286a0665d1a9dc46e9cba6adbde6ce1df48d8ffa93e18464736f6c63430008140033a2646970667358221220b8d88ff8b9f6cb260ea37ef61a6f5972cdb3b357b034a069daa990de538d339c64736f6c63430008140033",
  "linkReferences": {},
  "deployedLinkReferences": {}
}