{
  "_format": "hh-sol-artifact-1",
  "contractName": "VotingContract",
  "sourceName": "contracts/VoteContract.sol",
  "abi": [
    {
      "anonymous": false,
      "inputs": [
        {
          "indexed": false,
          "internalType": "address",
          "name": "voter",
          "type": "address"
        },
        {
          "indexed": false,
          "internalType": "uint256",
          "name": "pollIndex",
          "type": "uint256"
        },
        {
          "indexed": false,
          "internalType": "uint256",
          "name": "optionIndex",
          "type": "uint256"
        }
      ],
      "name": "VoteCasted",
      "type": "event"
    },
    {
      "anonymous": false,
      "inputs": [
        {
          "indexed": false,
          "internalType": "address",
          "name": "voter",
          "type": "address"
        },
        {
          "indexed": false,
          "internalType": "uint256",
          "name": "pollIndex",
          "type": "uint256"
        },
        {
          "indexed": false,
          "internalType": "uint256",
          "name": "optionIndex",
          "type": "uint256"
        }
      ],
      "name": "VoteChanged",
      "type": "event"
    },
    {
      "anonymous": false,
      "inputs": [
        {
          "indexed": false,
          "internalType": "address",
          "name": "voter",
          "type": "address"
        },
        {
          "indexed": false,
          "internalType": "uint256",
          "name": "pollIndex",
          "type": "uint256"
        },
        {
          "indexed": false,
          "internalType": "uint256",
          "name": "optionIndex",
          "type": "uint256"
        }
      ],
      "name": "VoteRemoved",
      "type": "event"
    },
    {
      "inputs": [
        {
          "internalType": "string",
          "name": "_name",
          "type": "string"
        },
        {
          "internalType": "string",
          "name": "_description",
          "type": "string"
        },
        {
          "internalType": "uint256",
          "name": "_duration",
          "type": "uint256"
        },
        {
          "internalType": "string[]",
          "name": "_optionNames",
          "type": "string[]"
        },
        {
          "internalType": "enum VotingContract.PollType",
          "name": "_pollType",
          "type": "uint8"
        },
        {
          "internalType": "string",
          "name": "_poll_metadata",
          "type": "string"
        }
      ],
      "name": "createPoll",
      "outputs": [],
      "stateMutability": "nonpayable",
      "type": "function"
    },
    {
      "inputs": [],
      "name": "getAllPolls",
      "outputs": [
        {
          "internalType": "string[]",
          "name": "names",
          "type": "string[]"
        },
        {
          "internalType": "string[]",
          "name": "descriptions",
          "type": "string[]"
        },
        {
          "internalType": "address[][]",
          "name": "options",
          "type": "address[][]"
        },
        {
          "internalType": "uint256[]",
          "name": "endTimes",
          "type": "uint256[]"
        },
        {
          "internalType": "enum VotingContract.PollType[]",
          "name": "pollTypes",
          "type": "uint8[]"
        },
        {
          "internalType": "string[]",
          "name": "pollMetadatas",
          "type": "string[]"
        }
      ],
      "stateMutability": "view",
      "type": "function"
    },
    {
      "inputs": [
        {
          "internalType": "string",
          "name": "_message",
          "type": "string"
        }
      ],
      "name": "getMessageHash",
      "outputs": [
        {
          "internalType": "bytes32",
          "name": "",
          "type": "bytes32"
        }
      ],
      "stateMutability": "pure",
      "type": "function"
    },
    {
      "inputs": [
        {
          "internalType": "uint256",
          "name": "_pollIndex",
          "type": "uint256"
        }
      ],
      "name": "getPoll",
      "outputs": [
        {
          "internalType": "string",
          "name": "name",
          "type": "string"
        },
        {
          "internalType": "string",
          "name": "description",
          "type": "string"
        },
        {
          "internalType": "address[]",
          "name": "options",
          "type": "address[]"
        },
        {
          "internalType": "uint256",
          "name": "endTime",
          "type": "uint256"
        },
        {
          "internalType": "enum VotingContract.PollType",
          "name": "pollType",
          "type": "uint8"
        },
        {
          "internalType": "string",
          "name": "pollMetadata",
          "type": "string"
        }
      ],
      "stateMutability": "view",
      "type": "function"
    },
    {
      "inputs": [
        {
          "internalType": "uint256",
          "name": "",
          "type": "uint256"
        }
      ],
      "name": "polls",
      "outputs": [
        {
          "internalType": "string",
          "name": "description",
          "type": "string"
        },
        {
          "internalType": "string",
          "name": "name",
          "type": "string"
        },
        {
          "internalType": "uint256",
          "name": "endTime",
          "type": "uint256"
        },
        {
          "internalType": "enum VotingContract.PollType",
          "name": "poll_type",
          "type": "uint8"
        },
        {
          "internalType": "string",
          "name": "poll_metadata",
          "type": "string"
        }
      ],
      "stateMutability": "view",
      "type": "function"
    },
    {
      "inputs": [
        {
          "internalType": "address",
          "name": "voter",
          "type": "address"
        },
        {
          "internalType": "uint256",
          "name": "_pollIndex",
          "type": "uint256"
        },
        {
          "internalType": "uint256",
          "name": "_optionIndex",
          "type": "uint256"
        }
      ],
      "name": "recordVote",
      "outputs": [],
      "stateMutability": "nonpayable",
      "type": "function"
    },
    {
      "inputs": [
        {
          "internalType": "address",
          "name": "voter",
          "type": "address"
        },
        {
          "internalType": "uint256",
          "name": "_pollIndex",
          "type": "uint256"
        },
        {
          "internalType": "uint256",
          "name": "_optionIndex",
          "type": "uint256"
        },
        {
          "internalType": "bytes",
          "name": "signature",
          "type": "bytes"
        },
        {
          "internalType": "string",
          "name": "message",
          "type": "string"
        }
      ],
      "name": "verifyAndRecordVote",
      "outputs": [],
      "stateMutability": "nonpayable",
      "type": "function"
    },
    {
      "inputs": [
        {
          "internalType": "string",
          "name": "message",
          "type": "string"
        },
        {
          "internalType": "bytes",
          "name": "signature",
          "type": "bytes"
        }
      ],
      "name": "verifyServerSignature",
      "outputs": [
        {
          "internalType": "bool",
          "name": "",
          "type": "bool"
        },
        {
          "internalType": "address",
          "name": "",
          "type": "address"
        }
      ],
      "stateMutability": "view",
      "type": "function"
    },
    {
      "inputs": [
        {
          "internalType": "uint256",
          "name": "_pollIndex",
          "type": "uint256"
        },
        {
          "internalType": "uint256",
          "name": "_optionIndex",
          "type": "uint256"
        },
        {
          "internalType": "bytes",
          "name": "signature",
          "type": "bytes"
        },
        {
          "internalType": "string",
          "name": "message",
          "type": "string"
        }
      ],
      "name": "vote",
      "outputs": [],
      "stateMutability": "nonpayable",
      "type": "function"
    }
  ],
  "bytecode": "0x608060405273f39fd6e51aad88f6f4ce6ab8827279cfffb922666000806101000a81548173ffffffffffffffffffffffffffffffffffffffff021916908373ffffffffffffffffffffffffffffffffffffffff16021790555034801561006457600080fd5b50614bf6806100746000396000f3fe60806040523480156200001157600080fd5b5060043610620000a05760003560e01c80636d0bcd9e116200006f5780636d0bcd9e1462000147578063ac2f0074146200017e578063b446f3b214620001b8578063d23923c214620001ee578063fafc9246146200020e57620000a0565b806316b752f014620000a55780631a8cbcaa14620000c557806326993f33146200010057806332b633fa1462000120575b600080fd5b620000c36004803603810190620000bd919062001ad8565b6200022e565b005b620000e36004803603810190620000dd919062001b9e565b6200032b565b604051620000f79695949392919062001db8565b60405180910390f35b6200011e600480360381019062000118919062001f65565b620005e1565b005b6200012a62000824565b6040516200013e9695949392919062002486565b60405180910390f35b6200016560048036038101906200015f91906200251d565b62000dd4565b60405162000175929190620025d0565b60405180910390f35b6200019c600480360381019062000196919062001b9e565b62000e53565b604051620001af959493929190620025fd565b60405180910390f35b620001d66004803603810190620001d091906200266f565b62001057565b604051620001e59190620026db565b60405180910390f35b6200020c6004803603810190620002069190620026f8565b62001089565b005b6200022c6004803603810190620002269190620027a8565b620011c8565b005b6000806200023d838562000dd4565b915091508162000284576040517f08c379a00000000000000000000000000000000000000000000000000000000081526004016200027b9062002854565b60405180910390fd5b60008054906101000a900473ffffffffffffffffffffffffffffffffffffffff1673ffffffffffffffffffffffffffffffffffffffff168173ffffffffffffffffffffffffffffffffffffffff161462000315576040517f08c379a00000000000000000000000000000000000000000000000000000000081526004016200030c90620028c6565b60405180910390fd5b62000322878787620011c8565b50505050505050565b606080606060008060606000600188815481106200034e576200034d620028e8565b5b9060005260206000209060090201905080600101816000018260020183600301548460050160009054906101000a900460ff1685600601858054620003939062002946565b80601f0160208091040260200160405190810160405280929190818152602001828054620003c19062002946565b8015620004125780601f10620003e65761010080835404028352916020019162000412565b820191906000526020600020905b815481529060010190602001808311620003f457829003601f168201915b50505050509550848054620004279062002946565b80601f0160208091040260200160405190810160405280929190818152602001828054620004559062002946565b8015620004a65780601f106200047a57610100808354040283529160200191620004a6565b820191906000526020600020905b8154815290600101906020018083116200048857829003601f168201915b50505050509450838054806020026020016040519081016040528092919081815260200182805480156200053057602002820191906000526020600020905b8160009054906101000a900473ffffffffffffffffffffffffffffffffffffffff1673ffffffffffffffffffffffffffffffffffffffff1681526020019060010190808311620004e5575b50505050509350808054620005459062002946565b80601f0160208091040260200160405190810160405280929190818152602001828054620005739062002946565b8015620005c45780601f106200059857610100808354040283529160200191620005c4565b820191906000526020600020905b815481529060010190602001808311620005a657829003601f168201915b505050505090509650965096509650965096505091939550919395565b600180816001815401808255809150500390600052602060002090505060006001808080549050620006149190620029aa565b81548110620006285762000627620028e8565b5b906000526020600020906009020190506000600180805490506200064d9190620029aa565b90508682600001908162000662919062002bb7565b508782600101908162000676919062002bb7565b50854262000685919062002c9e565b8260030181905550838260050160006101000a81548160ff02191690836000811115620006b757620006b662001d38565b5b021790555082826006019081620006cf919062002bb7565b5060005b85518110156200081957600030878381518110620006f657620006f5620028e8565b5b602002602001015185600301548585604051620007139062001800565b6200072395949392919062002cd9565b604051809103906000f08015801562000740573d6000803e3d6000fd5b50905083600201819080600181540180825580915050600190039060005260206000200160009091909190916101000a81548173ffffffffffffffffffffffffffffffffffffffff021916908373ffffffffffffffffffffffffffffffffffffffff16021790555060018460080160008373ffffffffffffffffffffffffffffffffffffffff1673ffffffffffffffffffffffffffffffffffffffff16815260200190815260200160002060006101000a81548160ff021916908315150217905550508080620008109062002d3d565b915050620006d3565b505050505050505050565b606080606080606080600060018054905090508067ffffffffffffffff811115620008545762000853620018dd565b5b6040519080825280602002602001820160405280156200088957816020015b6060815260200190600190039081620008735790505b5096508067ffffffffffffffff811115620008a957620008a8620018dd565b5b604051908082528060200260200182016040528015620008de57816020015b6060815260200190600190039081620008c85790505b5095508067ffffffffffffffff811115620008fe57620008fd620018dd565b5b6040519080825280602002602001820160405280156200093357816020015b60608152602001906001900390816200091d5790505b5094508067ffffffffffffffff811115620009535762000952620018dd565b5b604051908082528060200260200182016040528015620009825781602001602082028036833780820191505090505b5093508067ffffffffffffffff811115620009a257620009a1620018dd565b5b604051908082528060200260200182016040528015620009d15781602001602082028036833780820191505090505b5092508067ffffffffffffffff811115620009f157620009f0620018dd565b5b60405190808252806020026020018201604052801562000a2657816020015b606081526020019060019003908162000a105790505b50915060005b8181101562000dca5760006001828154811062000a4e5762000a4d620028e8565b5b9060005260206000209060090201905080600101805462000a6f9062002946565b80601f016020809104026020016040519081016040528092919081815260200182805462000a9d9062002946565b801562000aee5780601f1062000ac25761010080835404028352916020019162000aee565b820191906000526020600020905b81548152906001019060200180831162000ad057829003601f168201915b505050505089838151811062000b095762000b08620028e8565b5b602002602001018190525080600001805462000b259062002946565b80601f016020809104026020016040519081016040528092919081815260200182805462000b539062002946565b801562000ba45780601f1062000b785761010080835404028352916020019162000ba4565b820191906000526020600020905b81548152906001019060200180831162000b8657829003601f168201915b505050505088838151811062000bbf5762000bbe620028e8565b5b60200260200101819052508060020180548060200260200160405190810160405280929190818152602001828054801562000c5057602002820191906000526020600020905b8160009054906101000a900473ffffffffffffffffffffffffffffffffffffffff1673ffffffffffffffffffffffffffffffffffffffff168152602001906001019080831162000c05575b505050505087838151811062000c6b5762000c6a620028e8565b5b6020026020010181905250806003015486838151811062000c915762000c90620028e8565b5b6020026020010181815250508060050160009054906101000a900460ff1685838151811062000cc55762000cc4620028e8565b5b6020026020010190600081111562000ce25762000ce162001d38565b5b9081600081111562000cf95762000cf862001d38565b5b8152505080600601805462000d0e9062002946565b80601f016020809104026020016040519081016040528092919081815260200182805462000d3c9062002946565b801562000d8d5780601f1062000d615761010080835404028352916020019162000d8d565b820191906000526020600020905b81548152906001019060200180831162000d6f57829003601f168201915b505050505084838151811062000da85762000da7620028e8565b5b602002602001018190525050808062000dc19062002d3d565b91505062000a2c565b5050909192939495565b600080600062000de485620016c2565b9050600062000df4828662001721565b905060008054906101000a900473ffffffffffffffffffffffffffffffffffffffff1673ffffffffffffffffffffffffffffffffffffffff168173ffffffffffffffffffffffffffffffffffffffff1614819350935050509250929050565b6001818154811062000e6457600080fd5b906000526020600020906009020160009150905080600001805462000e899062002946565b80601f016020809104026020016040519081016040528092919081815260200182805462000eb79062002946565b801562000f085780601f1062000edc5761010080835404028352916020019162000f08565b820191906000526020600020905b81548152906001019060200180831162000eea57829003601f168201915b50505050509080600101805462000f1f9062002946565b80601f016020809104026020016040519081016040528092919081815260200182805462000f4d9062002946565b801562000f9e5780601f1062000f725761010080835404028352916020019162000f9e565b820191906000526020600020905b81548152906001019060200180831162000f8057829003601f168201915b5050505050908060030154908060050160009054906101000a900460ff169080600601805462000fce9062002946565b80601f016020809104026020016040519081016040528092919081815260200182805462000ffc9062002946565b80156200104d5780601f1062001021576101008083540402835291602001916200104d565b820191906000526020600020905b8154815290600101906020018083116200102f57829003601f168201915b5050505050905085565b6000816040516020016200106c919062002dcc565b604051602081830303815290604052805190602001209050919050565b600062001097828462000dd4565b50905080620010dd576040517f08c379a0000000000000000000000000000000000000000000000000000000008152600401620010d49062002854565b60405180910390fd5b600060018681548110620010f657620010f5620028e8565b5b906000526020600020906009020190506000816002018681548110620011215762001120620028e8565b5b9060005260206000200160009054906101000a900473ffffffffffffffffffffffffffffffffffffffff1690508073ffffffffffffffffffffffffffffffffffffffff1663bfa9afdf86866040518363ffffffff1660e01b81526004016200118b92919062002e42565b600060405180830381600087803b158015620011a657600080fd5b505af1158015620011bb573d6000803e3d6000fd5b5050505050505050505050565b60018281548110620011df57620011de620028e8565b5b906000526020600020906009020160080160003373ffffffffffffffffffffffffffffffffffffffff1673ffffffffffffffffffffffffffffffffffffffff16815260200190815260200160002060009054906101000a900460ff166200127d576040517f08c379a0000000000000000000000000000000000000000000000000000000008152600401620012749062002ef3565b60405180910390fd5b60018281548110620012945762001293620028e8565b5b9060005260206000209060090201600301544210620012ea576040517f08c379a0000000000000000000000000000000000000000000000000000000008152600401620012e19062002f65565b60405180910390fd5b60018281548110620013015762001300620028e8565b5b906000526020600020906009020160040160008473ffffffffffffffffffffffffffffffffffffffff1673ffffffffffffffffffffffffffffffffffffffff16815260200190815260200160002060009054906101000a900460ff1615620015985780600183815481106200137b576200137a620028e8565b5b906000526020600020906009020160070160008573ffffffffffffffffffffffffffffffffffffffff1673ffffffffffffffffffffffffffffffffffffffff16815260200190815260200160002054146200159257600060018381548110620013e957620013e8620028e8565b5b906000526020600020906009020160070160008573ffffffffffffffffffffffffffffffffffffffff1673ffffffffffffffffffffffffffffffffffffffff168152602001908152602001600020549050600060018481548110620014535762001452620028e8565b5b90600052602060002090600902016002018281548110620014795762001478620028e8565b5b9060005260206000200160009054906101000a900473ffffffffffffffffffffffffffffffffffffffff1690508073ffffffffffffffffffffffffffffffffffffffff16633ccc1f53866040518263ffffffff1660e01b8152600401620014e1919062002f87565b600060405180830381600087803b158015620014fc57600080fd5b505af115801562001511573d6000803e3d6000fd5b505050507fb0321094eaa7c50d0d43dd3eaf4c55b6acc710097665448e0565f58a498980be8585846040516200154a9392919062002fa4565b60405180910390a17ff75b557412ca4429d4ef66a92f3e3aa3becb79b047d943377283ebf79552e3f8858585604051620015879392919062002fa4565b60405180910390a150505b620015d6565b7fcb87df07b1c304492bd875a5c8b98672eca500939412809ea229afef1d745188838383604051620015cd9392919062002fa4565b60405180910390a15b8060018381548110620015ee57620015ed620028e8565b5b906000526020600020906009020160070160008573ffffffffffffffffffffffffffffffffffffffff1673ffffffffffffffffffffffffffffffffffffffff168152602001908152602001600020819055506001808381548110620016585762001657620028e8565b5b906000526020600020906009020160040160008573ffffffffffffffffffffffffffffffffffffffff1673ffffffffffffffffffffffffffffffffffffffff16815260200190815260200160002060006101000a81548160ff021916908315150217905550505050565b60008082604051602001620016d8919062002dcc565b6040516020818303038152906040528051906020012090508060405160200162001703919062003056565b60405160208183030381529060405280519060200120915050919050565b600080600080620017328562001795565b925092509250600186828585604051600081526020016040526040516200175d94939291906200309e565b6020604051602081039080840390855afa15801562001780573d6000803e3d6000fd5b50505060206040510351935050505092915050565b60008060006041845114620017e1576040517f08c379a0000000000000000000000000000000000000000000000000000000008152600401620017d8906200313b565b60405180910390fd5b6020840151925060408401519150606084015160001a90509193909250565b611a63806200315e83390190565b6000604051905090565b600080fd5b600080fd5b600073ffffffffffffffffffffffffffffffffffffffff82169050919050565b60006200184f8262001822565b9050919050565b620018618162001842565b81146200186d57600080fd5b50565b600081359050620018818162001856565b92915050565b6000819050919050565b6200189c8162001887565b8114620018a857600080fd5b50565b600081359050620018bc8162001891565b92915050565b600080fd5b600080fd5b6000601f19601f8301169050919050565b7f4e487b7100000000000000000000000000000000000000000000000000000000600052604160045260246000fd5b6200191782620018cc565b810181811067ffffffffffffffff82111715620019395762001938620018dd565b5b80604052505050565b60006200194e6200180e565b90506200195c82826200190c565b919050565b600067ffffffffffffffff8211156200197f576200197e620018dd565b5b6200198a82620018cc565b9050602081019050919050565b82818337600083830152505050565b6000620019bd620019b78462001961565b62001942565b905082815260208101848484011115620019dc57620019db620018c7565b5b620019e984828562001997565b509392505050565b600082601f83011262001a095762001a08620018c2565b5b813562001a1b848260208601620019a6565b91505092915050565b600067ffffffffffffffff82111562001a425762001a41620018dd565b5b62001a4d82620018cc565b9050602081019050919050565b600062001a7162001a6b8462001a24565b62001942565b90508281526020810184848401111562001a905762001a8f620018c7565b5b62001a9d84828562001997565b509392505050565b600082601f83011262001abd5762001abc620018c2565b5b813562001acf84826020860162001a5a565b91505092915050565b600080600080600060a0868803121562001af75762001af662001818565b5b600062001b078882890162001870565b955050602062001b1a88828901620018ab565b945050604062001b2d88828901620018ab565b935050606086013567ffffffffffffffff81111562001b515762001b506200181d565b5b62001b5f88828901620019f1565b925050608086013567ffffffffffffffff81111562001b835762001b826200181d565b5b62001b918882890162001aa5565b9150509295509295909350565b60006020828403121562001bb75762001bb662001818565b5b600062001bc784828501620018ab565b91505092915050565b600081519050919050565b600082825260208201905092915050565b60005b8381101562001c0c57808201518184015260208101905062001bef565b60008484015250505050565b600062001c258262001bd0565b62001c31818562001bdb565b935062001c4381856020860162001bec565b62001c4e81620018cc565b840191505092915050565b600081519050919050565b600082825260208201905092915050565b6000819050602082019050919050565b62001c908162001842565b82525050565b600062001ca4838362001c85565b60208301905092915050565b6000602082019050919050565b600062001cca8262001c59565b62001cd6818562001c64565b935062001ce38362001c75565b8060005b8381101562001d1a57815162001cfe888262001c96565b975062001d0b8362001cb0565b92505060018101905062001ce7565b5085935050505092915050565b62001d328162001887565b82525050565b7f4e487b7100000000000000000000000000000000000000000000000000000000600052602160045260246000fd5b6001811062001d7b5762001d7a62001d38565b5b50565b600081905062001d8e8262001d67565b919050565b600062001da08262001d7e565b9050919050565b62001db28162001d93565b82525050565b600060c082019050818103600083015262001dd4818962001c18565b9050818103602083015262001dea818862001c18565b9050818103604083015262001e00818762001cbd565b905062001e11606083018662001d27565b62001e20608083018562001da7565b81810360a083015262001e34818462001c18565b9050979650505050505050565b600067ffffffffffffffff82111562001e5f5762001e5e620018dd565b5b602082029050602081019050919050565b600080fd5b600062001e8c62001e868462001e41565b62001942565b9050808382526020820190506020840283018581111562001eb25762001eb162001e70565b5b835b8181101562001f0057803567ffffffffffffffff81111562001edb5762001eda620018c2565b5b80860162001eea898262001aa5565b8552602085019450505060208101905062001eb4565b5050509392505050565b600082601f83011262001f225762001f21620018c2565b5b813562001f3484826020860162001e75565b91505092915050565b6001811062001f4b57600080fd5b50565b60008135905062001f5f8162001f3d565b92915050565b60008060008060008060c0878903121562001f855762001f8462001818565b5b600087013567ffffffffffffffff81111562001fa65762001fa56200181d565b5b62001fb489828a0162001aa5565b965050602087013567ffffffffffffffff81111562001fd85762001fd76200181d565b5b62001fe689828a0162001aa5565b955050604062001ff989828a01620018ab565b945050606087013567ffffffffffffffff8111156200201d576200201c6200181d565b5b6200202b89828a0162001f0a565b93505060806200203e89828a0162001f4e565b92505060a087013567ffffffffffffffff8111156200206257620020616200181d565b5b6200207089828a0162001aa5565b9150509295509295509295565b600081519050919050565b600082825260208201905092915050565b6000819050602082019050919050565b600082825260208201905092915050565b6000620020c78262001bd0565b620020d38185620020a9565b9350620020e581856020860162001bec565b620020f081620018cc565b840191505092915050565b6000620021098383620020ba565b905092915050565b6000602082019050919050565b60006200212b826200207d565b62002137818562002088565b9350836020820285016200214b8562002099565b8060005b858110156200218d57848403895281516200216b8582620020fb565b9450620021788362002111565b925060208a019950506001810190506200214f565b50829750879550505050505092915050565b600081519050919050565b600082825260208201905092915050565b6000819050602082019050919050565b600082825260208201905092915050565b6000620021e98262001c59565b620021f58185620021cb565b9350620022028362001c75565b8060005b83811015620022395781516200221d888262001c96565b97506200222a8362001cb0565b92505060018101905062002206565b5085935050505092915050565b6000620022548383620021dc565b905092915050565b6000602082019050919050565b600062002276826200219f565b620022828185620021aa565b9350836020820285016200229685620021bb565b8060005b85811015620022d85784840389528151620022b6858262002246565b9450620022c3836200225c565b925060208a019950506001810190506200229a565b50829750879550505050505092915050565b600081519050919050565b600082825260208201905092915050565b6000819050602082019050919050565b620023218162001887565b82525050565b600062002335838362002316565b60208301905092915050565b6000602082019050919050565b60006200235b82620022ea565b620023678185620022f5565b9350620023748362002306565b8060005b83811015620023ab5781516200238f888262002327565b97506200239c8362002341565b92505060018101905062002378565b5085935050505092915050565b600081519050919050565b600082825260208201905092915050565b6000819050602082019050919050565b620023ef8162001d93565b82525050565b6000620024038383620023e4565b60208301905092915050565b6000602082019050919050565b60006200242982620023b8565b620024358185620023c3565b93506200244283620023d4565b8060005b83811015620024795781516200245d8882620023f5565b97506200246a836200240f565b92505060018101905062002446565b5085935050505092915050565b600060c0820190508181036000830152620024a281896200211e565b90508181036020830152620024b881886200211e565b90508181036040830152620024ce818762002269565b90508181036060830152620024e481866200234e565b90508181036080830152620024fa81856200241c565b905081810360a08301526200251081846200211e565b9050979650505050505050565b6000806040838503121562002537576200253662001818565b5b600083013567ffffffffffffffff8111156200255857620025576200181d565b5b620025668582860162001aa5565b925050602083013567ffffffffffffffff8111156200258a57620025896200181d565b5b6200259885828601620019f1565b9150509250929050565b60008115159050919050565b620025b981620025a2565b82525050565b620025ca8162001842565b82525050565b6000604082019050620025e76000830185620025ae565b620025f66020830184620025bf565b9392505050565b600060a082019050818103600083015262002619818862001c18565b905081810360208301526200262f818762001c18565b905062002640604083018662001d27565b6200264f606083018562001da7565b818103608083015262002663818462001c18565b90509695505050505050565b60006020828403121562002688576200268762001818565b5b600082013567ffffffffffffffff811115620026a957620026a86200181d565b5b620026b78482850162001aa5565b91505092915050565b6000819050919050565b620026d581620026c0565b82525050565b6000602082019050620026f26000830184620026ca565b92915050565b6000806000806080858703121562002715576200271462001818565b5b60006200272587828801620018ab565b94505060206200273887828801620018ab565b935050604085013567ffffffffffffffff8111156200275c576200275b6200181d565b5b6200276a87828801620019f1565b925050606085013567ffffffffffffffff8111156200278e576200278d6200181d565b5b6200279c8782880162001aa5565b91505092959194509250565b600080600060608486031215620027c457620027c362001818565b5b6000620027d48682870162001870565b9350506020620027e786828701620018ab565b9250506040620027fa86828701620018ab565b9150509250925092565b7f5369676e617475726520766572696669636174696f6e206661696c6564000000600082015250565b60006200283c601d8362001bdb565b9150620028498262002804565b602082019050919050565b600060208201905081810360008301526200286f816200282d565b9050919050565b7f5369676e61747572652063616e6e6f7420626520766572696669656400000000600082015250565b6000620028ae601c8362001bdb565b9150620028bb8262002876565b602082019050919050565b60006020820190508181036000830152620028e1816200289f565b9050919050565b7f4e487b7100000000000000000000000000000000000000000000000000000000600052603260045260246000fd5b7f4e487b7100000000000000000000000000000000000000000000000000000000600052602260045260246000fd5b600060028204905060018216806200295f57607f821691505b60208210810362002975576200297462002917565b5b50919050565b7f4e487b7100000000000000000000000000000000000000000000000000000000600052601160045260246000fd5b6000620029b78262001887565b9150620029c48362001887565b9250828203905081811115620029df57620029de6200297b565b5b92915050565b60008190508160005260206000209050919050565b60006020601f8301049050919050565b600082821b905092915050565b60006008830262002a497fffffffffffffffffffffffffffffffffffffffffffffffffffffffffffffffff8262002a0a565b62002a55868362002a0a565b95508019841693508086168417925050509392505050565b6000819050919050565b600062002a9862002a9262002a8c8462001887565b62002a6d565b62001887565b9050919050565b6000819050919050565b62002ab48362002a77565b62002acc62002ac38262002a9f565b84845462002a17565b825550505050565b600090565b62002ae362002ad4565b62002af081848462002aa9565b505050565b5b8181101562002b185762002b0c60008262002ad9565b60018101905062002af6565b5050565b601f82111562002b675762002b3181620029e5565b62002b3c84620029fa565b8101602085101562002b4c578190505b62002b6462002b5b85620029fa565b83018262002af5565b50505b505050565b600082821c905092915050565b600062002b8c6000198460080262002b6c565b1980831691505092915050565b600062002ba7838362002b79565b9150826002028217905092915050565b62002bc28262001bd0565b67ffffffffffffffff81111562002bde5762002bdd620018dd565b5b62002bea825462002946565b62002bf782828562002b1c565b600060209050601f83116001811462002c2f576000841562002c1a578287015190505b62002c26858262002b99565b86555062002c96565b601f19841662002c3f86620029e5565b60005b8281101562002c695784890151825560018201915060208501945060208101905062002c42565b8683101562002c89578489015162002c85601f89168262002b79565b8355505b6001600288020188555050505b505050505050565b600062002cab8262001887565b915062002cb88362001887565b925082820190508082111562002cd35762002cd26200297b565b5b92915050565b600060a08201905062002cf06000830188620025bf565b818103602083015262002d04818762001c18565b905062002d15604083018662001d27565b62002d24606083018562001d27565b62002d33608083018462001d27565b9695505050505050565b600062002d4a8262001887565b91507fffffffffffffffffffffffffffffffffffffffffffffffffffffffffffffffff820362002d7f5762002d7e6200297b565b5b600182019050919050565b600081905092915050565b600062002da28262001bd0565b62002dae818562002d8a565b935062002dc081856020860162001bec565b80840191505092915050565b600062002dda828462002d95565b915081905092915050565b600081519050919050565b600082825260208201905092915050565b600062002e0e8262002de5565b62002e1a818562002df0565b935062002e2c81856020860162001bec565b62002e3781620018cc565b840191505092915050565b6000604082019050818103600083015262002e5e818562002e01565b9050818103602083015262002e74818462001c18565b90509392505050565b7f43616c6c6572206973206e6f7420612076616c6964206f7074696f6e20666f7260008201527f207468697320706f6c6c00000000000000000000000000000000000000000000602082015250565b600062002edb602a8362001bdb565b915062002ee88262002e7d565b604082019050919050565b6000602082019050818103600083015262002f0e8162002ecc565b9050919050565b7f506f6c6c2068617320656e646564000000000000000000000000000000000000600082015250565b600062002f4d600e8362001bdb565b915062002f5a8262002f15565b602082019050919050565b6000602082019050818103600083015262002f808162002f3e565b9050919050565b600060208201905062002f9e6000830184620025bf565b92915050565b600060608201905062002fbb6000830186620025bf565b62002fca602083018562001d27565b62002fd9604083018462001d27565b949350505050565b7f19457468657265756d205369676e6564204d6573736167653a0a333200000000600082015250565b600062003019601c8362002d8a565b9150620030268262002fe1565b601c82019050919050565b6000819050919050565b620030506200304a82620026c0565b62003031565b82525050565b600062003063826200300a565b91506200307182846200303b565b60208201915081905092915050565b600060ff82169050919050565b620030988162003080565b82525050565b6000608082019050620030b56000830187620026ca565b620030c460208301866200308d565b620030d36040830185620026ca565b620030e26060830184620026ca565b95945050505050565b7f496e76616c6964207369676e6174757265206c656e6774680000000000000000600082015250565b60006200312360188362001bdb565b91506200313082620030eb565b602082019050919050565b60006020820190508181036000830152620031568162003114565b905091905056fe60806040523480156200001157600080fd5b5060405162001a6338038062001a638339818101604052810190620000379190620002dc565b846000806101000a81548173ffffffffffffffffffffffffffffffffffffffff021916908373ffffffffffffffffffffffffffffffffffffffff1602179055508360019081620000889190620005c4565b508260028190555081600381905550806004819055505050505050620006ab565b6000604051905090565b600080fd5b600080fd5b600073ffffffffffffffffffffffffffffffffffffffff82169050919050565b6000620000ea82620000bd565b9050919050565b620000fc81620000dd565b81146200010857600080fd5b50565b6000815190506200011c81620000f1565b92915050565b600080fd5b600080fd5b6000601f19601f8301169050919050565b7f4e487b7100000000000000000000000000000000000000000000000000000000600052604160045260246000fd5b62000177826200012c565b810181811067ffffffffffffffff821117156200019957620001986200013d565b5b80604052505050565b6000620001ae620000a9565b9050620001bc82826200016c565b919050565b600067ffffffffffffffff821115620001df57620001de6200013d565b5b620001ea826200012c565b9050602081019050919050565b60005b8381101562000217578082015181840152602081019050620001fa565b60008484015250505050565b60006200023a6200023484620001c1565b620001a2565b90508281526020810184848401111562000259576200025862000127565b5b62000266848285620001f7565b509392505050565b600082601f83011262000286576200028562000122565b5b81516200029884826020860162000223565b91505092915050565b6000819050919050565b620002b681620002a1565b8114620002c257600080fd5b50565b600081519050620002d681620002ab565b92915050565b600080600080600060a08688031215620002fb57620002fa620000b3565b5b60006200030b888289016200010b565b955050602086015167ffffffffffffffff8111156200032f576200032e620000b8565b5b6200033d888289016200026e565b94505060406200035088828901620002c5565b93505060606200036388828901620002c5565b92505060806200037688828901620002c5565b9150509295509295909350565b600081519050919050565b7f4e487b7100000000000000000000000000000000000000000000000000000000600052602260045260246000fd5b60006002820490506001821680620003d657607f821691505b602082108103620003ec57620003eb6200038e565b5b50919050565b60008190508160005260206000209050919050565b60006020601f8301049050919050565b600082821b905092915050565b600060088302620004567fffffffffffffffffffffffffffffffffffffffffffffffffffffffffffffffff8262000417565b62000462868362000417565b95508019841693508086168417925050509392505050565b6000819050919050565b6000620004a56200049f6200049984620002a1565b6200047a565b620002a1565b9050919050565b6000819050919050565b620004c18362000484565b620004d9620004d082620004ac565b84845462000424565b825550505050565b600090565b620004f0620004e1565b620004fd818484620004b6565b505050565b5b81811015620005255762000519600082620004e6565b60018101905062000503565b5050565b601f82111562000574576200053e81620003f2565b620005498462000407565b8101602085101562000559578190505b62000571620005688562000407565b83018262000502565b50505b505050565b600082821c905092915050565b6000620005996000198460080262000579565b1980831691505092915050565b6000620005b4838362000586565b9150826002028217905092915050565b620005cf8262000383565b67ffffffffffffffff811115620005eb57620005ea6200013d565b5b620005f78254620003bd565b6200060482828562000529565b600060209050601f8311600181146200063c576000841562000627578287015190505b620006338582620005a6565b865550620006a3565b601f1984166200064c86620003f2565b60005b8281101562000676578489015182556001820191506020850194506020810190506200064f565b8683101562000696578489015162000692601f89168262000586565b8355505b6001600288020188555050505b505050505050565b6113a880620006bb6000396000f3fe60806040526004361061008a5760003560e01c806399100fa51161005957806399100fa5146101df578063bfa9afdf1461020a578063c0f2a77714610233578063d270e7ab1461025e578063da58c7d91461028957610091565b806306fdde03146101355780633197cbb6146101605780633ccc1f531461018b578063769e2da5146101b457610091565b3661009157005b600034146100d4576040517f08c379a00000000000000000000000000000000000000000000000000000000081526004016100cb90610a2e565b60405180910390fd5b6000806101256000368080601f016020809104026020016040519081016040528093929190818152602001838380828437600081840152601f19601f820116905080830192505050505050506102c6565b9150915061013381836102f1565b005b34801561014157600080fd5b5061014a610532565b6040516101579190610acd565b60405180910390f35b34801561016c57600080fd5b506101756105c0565b6040516101829190610b08565b60405180910390f35b34801561019757600080fd5b506101b260048036038101906101ad9190610b95565b6105c6565b005b3480156101c057600080fd5b506101c9610955565b6040516101d69190610b08565b60405180910390f35b3480156101eb57600080fd5b506101f461095b565b6040516102019190610b08565b60405180910390f35b34801561021657600080fd5b50610231600480360381019061022c9190610d98565b6102f1565b005b34801561023f57600080fd5b50610248610961565b6040516102559190610b08565b60405180910390f35b34801561026a57600080fd5b5061027361096e565b6040516102809190610e1f565b60405180910390f35b34801561029557600080fd5b506102b060048036038101906102ab9190610e66565b610992565b6040516102bd9190610e1f565b60405180910390f35b606080600080848060200190518101906102e09190610f73565b915091508181935093505050915091565b6002544210610335576040517f08c379a000000000000000000000000000000000000000000000000000000000815260040161032c90611037565b60405180910390fd5b60008054906101000a900473ffffffffffffffffffffffffffffffffffffffff1673ffffffffffffffffffffffffffffffffffffffff166316b752f03360035460045486866040518663ffffffff1660e01b815260040161039a9594939291906110ac565b600060405180830381600087803b1580156103b457600080fd5b505af11580156103c8573d6000803e3d6000fd5b50505050600760003373ffffffffffffffffffffffffffffffffffffffff1673ffffffffffffffffffffffffffffffffffffffff16815260200190815260200160002060009054906101000a900460ff166104d6576005339080600181540180825580915050600190039060005260206000200160009091909190916101000a81548173ffffffffffffffffffffffffffffffffffffffff021916908373ffffffffffffffffffffffffffffffffffffffff1602179055506001600580549050610492919061113c565b600660003373ffffffffffffffffffffffffffffffffffffffff1673ffffffffffffffffffffffffffffffffffffffff168152602001908152602001600020819055505b6001600760003373ffffffffffffffffffffffffffffffffffffffff1673ffffffffffffffffffffffffffffffffffffffff16815260200190815260200160002060006101000a81548160ff0219169083151502179055505050565b6001805461053f9061119f565b80601f016020809104026020016040519081016040528092919081815260200182805461056b9061119f565b80156105b85780601f1061058d576101008083540402835291602001916105b8565b820191906000526020600020905b81548152906001019060200180831161059b57829003601f168201915b505050505081565b60025481565b60008054906101000a900473ffffffffffffffffffffffffffffffffffffffff1673ffffffffffffffffffffffffffffffffffffffff163373ffffffffffffffffffffffffffffffffffffffff1614610654576040517f08c379a000000000000000000000000000000000000000000000000000000000815260040161064b9061121c565b60405180910390fd5b600760008273ffffffffffffffffffffffffffffffffffffffff1673ffffffffffffffffffffffffffffffffffffffff16815260200190815260200160002060009054906101000a900460ff166106e0576040517f08c379a00000000000000000000000000000000000000000000000000000000081526004016106d790611288565b60405180910390fd5b6000600660008373ffffffffffffffffffffffffffffffffffffffff1673ffffffffffffffffffffffffffffffffffffffff168152602001908152602001600020549050600580549050811061076b576040517f08c379a0000000000000000000000000000000000000000000000000000000008152600401610762906112f4565b60405180910390fd5b6000600160058054905061077f919061113c565b905080821461086e5760006005828154811061079e5761079d611314565b5b9060005260206000200160009054906101000a900473ffffffffffffffffffffffffffffffffffffffff16905080600584815481106107e0576107df611314565b5b9060005260206000200160006101000a81548173ffffffffffffffffffffffffffffffffffffffff021916908373ffffffffffffffffffffffffffffffffffffffff16021790555082600660008373ffffffffffffffffffffffffffffffffffffffff1673ffffffffffffffffffffffffffffffffffffffff16815260200190815260200160002081905550505b60058054806108805761087f611343565b5b6001900381819060005260206000200160006101000a81549073ffffffffffffffffffffffffffffffffffffffff02191690559055600660008473ffffffffffffffffffffffffffffffffffffffff1673ffffffffffffffffffffffffffffffffffffffff168152602001908152602001600020600090556000600760008573ffffffffffffffffffffffffffffffffffffffff1673ffffffffffffffffffffffffffffffffffffffff16815260200190815260200160002060006101000a81548160ff021916908315150217905550505050565b60045481565b60035481565b6000600580549050905090565b60008054906101000a900473ffffffffffffffffffffffffffffffffffffffff1681565b600581815481106109a257600080fd5b906000526020600020016000915054906101000a900473ffffffffffffffffffffffffffffffffffffffff1681565b600082825260208201905092915050565b7f43616e6e6f742073656e6420455448207769746820766f746500000000000000600082015250565b6000610a186019836109d1565b9150610a23826109e2565b602082019050919050565b60006020820190508181036000830152610a4781610a0b565b9050919050565b600081519050919050565b60005b83811015610a77578082015181840152602081019050610a5c565b60008484015250505050565b6000601f19601f8301169050919050565b6000610a9f82610a4e565b610aa981856109d1565b9350610ab9818560208601610a59565b610ac281610a83565b840191505092915050565b60006020820190508181036000830152610ae78184610a94565b905092915050565b6000819050919050565b610b0281610aef565b82525050565b6000602082019050610b1d6000830184610af9565b92915050565b6000604051905090565b600080fd5b600080fd5b600073ffffffffffffffffffffffffffffffffffffffff82169050919050565b6000610b6282610b37565b9050919050565b610b7281610b57565b8114610b7d57600080fd5b50565b600081359050610b8f81610b69565b92915050565b600060208284031215610bab57610baa610b2d565b5b6000610bb984828501610b80565b91505092915050565b600080fd5b600080fd5b7f4e487b7100000000000000000000000000000000000000000000000000000000600052604160045260246000fd5b610c0482610a83565b810181811067ffffffffffffffff82111715610c2357610c22610bcc565b5b80604052505050565b6000610c36610b23565b9050610c428282610bfb565b919050565b600067ffffffffffffffff821115610c6257610c61610bcc565b5b610c6b82610a83565b9050602081019050919050565b82818337600083830152505050565b6000610c9a610c9584610c47565b610c2c565b905082815260208101848484011115610cb657610cb5610bc7565b5b610cc1848285610c78565b509392505050565b600082601f830112610cde57610cdd610bc2565b5b8135610cee848260208601610c87565b91505092915050565b600067ffffffffffffffff821115610d1257610d11610bcc565b5b610d1b82610a83565b9050602081019050919050565b6000610d3b610d3684610cf7565b610c2c565b905082815260208101848484011115610d5757610d56610bc7565b5b610d62848285610c78565b509392505050565b600082601f830112610d7f57610d7e610bc2565b5b8135610d8f848260208601610d28565b91505092915050565b60008060408385031215610daf57610dae610b2d565b5b600083013567ffffffffffffffff811115610dcd57610dcc610b32565b5b610dd985828601610cc9565b925050602083013567ffffffffffffffff811115610dfa57610df9610b32565b5b610e0685828601610d6a565b9150509250929050565b610e1981610b57565b82525050565b6000602082019050610e346000830184610e10565b92915050565b610e4381610aef565b8114610e4e57600080fd5b50565b600081359050610e6081610e3a565b92915050565b600060208284031215610e7c57610e7b610b2d565b5b6000610e8a84828501610e51565b91505092915050565b6000610ea6610ea184610cf7565b610c2c565b905082815260208101848484011115610ec257610ec1610bc7565b5b610ecd848285610a59565b509392505050565b600082601f830112610eea57610ee9610bc2565b5b8151610efa848260208601610e93565b91505092915050565b6000610f16610f1184610c47565b610c2c565b905082815260208101848484011115610f3257610f31610bc7565b5b610f3d848285610a59565b509392505050565b600082601f830112610f5a57610f59610bc2565b5b8151610f6a848260208601610f03565b91505092915050565b60008060408385031215610f8a57610f89610b2d565b5b600083015167ffffffffffffffff811115610fa857610fa7610b32565b5b610fb485828601610ed5565b925050602083015167ffffffffffffffff811115610fd557610fd4610b32565b5b610fe185828601610f45565b9150509250929050565b7f506f6c6c2068617320656e646564000000000000000000000000000000000000600082015250565b6000611021600e836109d1565b915061102c82610feb565b602082019050919050565b6000602082019050818103600083015261105081611014565b9050919050565b600081519050919050565b600082825260208201905092915050565b600061107e82611057565b6110888185611062565b9350611098818560208601610a59565b6110a181610a83565b840191505092915050565b600060a0820190506110c16000830188610e10565b6110ce6020830187610af9565b6110db6040830186610af9565b81810360608301526110ed8185611073565b905081810360808301526111018184610a94565b90509695505050505050565b7f4e487b7100000000000000000000000000000000000000000000000000000000600052601160045260246000fd5b600061114782610aef565b915061115283610aef565b925082820390508181111561116a5761116961110d565b5b92915050565b7f4e487b7100000000000000000000000000000000000000000000000000000000600052602260045260246000fd5b600060028204905060018216806111b757607f821691505b6020821081036111ca576111c9611170565b5b50919050565b7f596f7520646f6e27742068617665206163636573730000000000000000000000600082015250565b60006112066015836109d1565b9150611211826111d0565b602082019050919050565b60006020820190508181036000830152611235816111f9565b9050919050565b7f4e6f20766f746520746f2072656d6f7665000000000000000000000000000000600082015250565b60006112726011836109d1565b915061127d8261123c565b602082019050919050565b600060208201905081810360008301526112a181611265565b9050919050565b7f566f746572206e6f7420666f756e640000000000000000000000000000000000600082015250565b60006112de600f836109d1565b91506112e9826112a8565b602082019050919050565b6000602082019050818103600083015261130d816112d1565b9050919050565b7f4e487b7100000000000000000000000000000000000000000000000000000000600052603260045260246000fd5b7f4e487b7100000000000000000000000000000000000000000000000000000000600052603160045260246000fdfea264697066735822122048596549f430905e0febe0e17d9d567e9070375b33b05f66076fdc9cfa23d74464736f6c63430008130033a2646970667358221220fe7154276b1fa27a6ca3995f7cf67f56244e639b8669b5a06ddd9f7a0567c0ec64736f6c63430008130033",
  "linkReferences": {},
  "deployedLinkReferences": {}
}