{
  "_format": "hh-sol-artifact-1",
  "contractName": "VotingContract",
  "sourceName": "contracts/VoteContract.sol",
  "abi": [
    {
      "anonymous": false,
      "inputs": [
        {
          "indexed": false,
          "internalType": "address",
          "name": "voter",
          "type": "address"
        },
        {
          "indexed": false,
          "internalType": "uint256",
          "name": "pollIndex",
          "type": "uint256"
        },
        {
          "indexed": false,
          "internalType": "uint256",
          "name": "optionIndex",
          "type": "uint256"
        }
      ],
      "name": "VoteCasted",
      "type": "event"
    },
    {
      "anonymous": false,
      "inputs": [
        {
          "indexed": false,
          "internalType": "address",
          "name": "voter",
          "type": "address"
        },
        {
          "indexed": false,
          "internalType": "uint256",
          "name": "pollIndex",
          "type": "uint256"
        },
        {
          "indexed": false,
          "internalType": "uint256",
          "name": "optionIndex",
          "type": "uint256"
        }
      ],
      "name": "VoteChanged",
      "type": "event"
    },
    {
      "anonymous": false,
      "inputs": [
        {
          "indexed": false,
          "internalType": "address",
          "name": "voter",
          "type": "address"
        },
        {
          "indexed": false,
          "internalType": "uint256",
          "name": "pollIndex",
          "type": "uint256"
        },
        {
          "indexed": false,
          "internalType": "uint256",
          "name": "optionIndex",
          "type": "uint256"
        }
      ],
      "name": "VoteRemoved",
      "type": "event"
    },
    {
      "inputs": [
        {
          "internalType": "string",
          "name": "_name",
          "type": "string"
        },
        {
          "internalType": "string",
          "name": "_description",
          "type": "string"
        },
        {
          "internalType": "uint256",
          "name": "_duration",
          "type": "uint256"
        },
        {
          "internalType": "string[]",
          "name": "_optionNames",
          "type": "string[]"
        },
        {
          "internalType": "enum VotingContract.PollType",
          "name": "_pollType",
          "type": "uint8"
        },
        {
          "internalType": "string",
          "name": "_poll_metadata",
          "type": "string"
        }
      ],
      "name": "createPoll",
      "outputs": [],
      "stateMutability": "nonpayable",
      "type": "function"
    },
    {
      "inputs": [],
      "name": "getAllPolls",
      "outputs": [
        {
          "internalType": "string[]",
          "name": "names",
          "type": "string[]"
        },
        {
          "internalType": "string[]",
          "name": "descriptions",
          "type": "string[]"
        },
        {
          "internalType": "address[][]",
          "name": "options",
          "type": "address[][]"
        },
        {
          "internalType": "uint256[]",
          "name": "endTimes",
          "type": "uint256[]"
        },
        {
          "internalType": "enum VotingContract.PollType[]",
          "name": "pollTypes",
          "type": "uint8[]"
        },
        {
          "internalType": "string[]",
          "name": "pollMetadatas",
          "type": "string[]"
        }
      ],
      "stateMutability": "view",
      "type": "function"
    },
    {
      "inputs": [
        {
          "internalType": "string",
          "name": "_message",
          "type": "string"
        }
      ],
      "name": "getMessageHash",
      "outputs": [
        {
          "internalType": "bytes32",
          "name": "",
          "type": "bytes32"
        }
      ],
      "stateMutability": "pure",
      "type": "function"
    },
    {
      "inputs": [
        {
          "internalType": "uint256",
          "name": "_pollIndex",
          "type": "uint256"
        }
      ],
      "name": "getPoll",
      "outputs": [
        {
          "internalType": "string",
          "name": "name",
          "type": "string"
        },
        {
          "internalType": "string",
          "name": "description",
          "type": "string"
        },
        {
          "internalType": "address[]",
          "name": "options",
          "type": "address[]"
        },
        {
          "internalType": "uint256",
          "name": "endTime",
          "type": "uint256"
        },
        {
          "internalType": "enum VotingContract.PollType",
          "name": "pollType",
          "type": "uint8"
        },
        {
          "internalType": "string",
          "name": "pollMetadata",
          "type": "string"
        }
      ],
      "stateMutability": "view",
      "type": "function"
    },
    {
      "inputs": [
        {
          "internalType": "uint256",
          "name": "",
          "type": "uint256"
        }
      ],
      "name": "polls",
      "outputs": [
        {
          "internalType": "string",
          "name": "description",
          "type": "string"
        },
        {
          "internalType": "string",
          "name": "name",
          "type": "string"
        },
        {
          "internalType": "uint256",
          "name": "endTime",
          "type": "uint256"
        },
        {
          "internalType": "enum VotingContract.PollType",
          "name": "poll_type",
          "type": "uint8"
        },
        {
          "internalType": "string",
          "name": "poll_metadata",
          "type": "string"
        }
      ],
      "stateMutability": "view",
      "type": "function"
    },
    {
      "inputs": [
        {
          "internalType": "address",
          "name": "voter",
          "type": "address"
        },
        {
          "internalType": "uint256",
          "name": "_pollIndex",
          "type": "uint256"
        },
        {
          "internalType": "uint256",
          "name": "_optionIndex",
          "type": "uint256"
        }
      ],
      "name": "recordVote",
      "outputs": [],
      "stateMutability": "nonpayable",
      "type": "function"
    },
    {
      "inputs": [
        {
          "internalType": "address",
          "name": "voter",
          "type": "address"
        },
        {
          "internalType": "uint256",
          "name": "_pollIndex",
          "type": "uint256"
        },
        {
          "internalType": "uint256",
          "name": "_optionIndex",
          "type": "uint256"
        },
        {
          "internalType": "bytes",
          "name": "signature",
          "type": "bytes"
        },
        {
          "internalType": "string",
          "name": "message",
          "type": "string"
        }
      ],
      "name": "verifyAndRecordVote",
      "outputs": [],
      "stateMutability": "nonpayable",
      "type": "function"
    },
    {
      "inputs": [
        {
          "internalType": "string",
          "name": "message",
          "type": "string"
        },
        {
          "internalType": "bytes",
          "name": "signature",
          "type": "bytes"
        }
      ],
      "name": "verifyServerSignature",
      "outputs": [
        {
          "internalType": "bool",
          "name": "",
          "type": "bool"
        },
        {
          "internalType": "address",
          "name": "",
          "type": "address"
        }
      ],
      "stateMutability": "view",
      "type": "function"
    },
    {
      "inputs": [
        {
          "internalType": "uint256",
          "name": "_pollIndex",
          "type": "uint256"
        },
        {
          "internalType": "uint256",
          "name": "_optionIndex",
          "type": "uint256"
        },
        {
          "internalType": "bytes",
          "name": "signature",
          "type": "bytes"
        },
        {
          "internalType": "string",
          "name": "message",
          "type": "string"
        }
      ],
      "name": "vote",
      "outputs": [],
      "stateMutability": "nonpayable",
      "type": "function"
    }
  ],
  "bytecode": "0x608060405273f39fd6e51aad88f6f4ce6ab8827279cfffb922666000806101000a81548173ffffffffffffffffffffffffffffffffffffffff021916908373ffffffffffffffffffffffffffffffffffffffff16021790555034801561006457600080fd5b50614cea806100746000396000f3fe60806040523480156200001157600080fd5b5060043610620000a05760003560e01c80636d0bcd9e116200006f5780636d0bcd9e1462000147578063ac2f0074146200017e578063b446f3b214620001b8578063d23923c214620001ee578063fafc9246146200020e57620000a0565b806316b752f014620000a55780631a8cbcaa14620000c557806326993f33146200010057806332b633fa1462000120575b600080fd5b620000c36004803603810190620000bd919062001ada565b6200022e565b005b620000e36004803603810190620000dd919062001ba0565b6200032b565b604051620000f79695949392919062001dba565b60405180910390f35b6200011e600480360381019062000118919062001f67565b620005e1565b005b6200012a62000824565b6040516200013e9695949392919062002488565b60405180910390f35b6200016560048036038101906200015f91906200251f565b62000dd4565b60405162000175929190620025d2565b60405180910390f35b6200019c600480360381019062000196919062001ba0565b62000e53565b604051620001af959493929190620025ff565b60405180910390f35b620001d66004803603810190620001d0919062002671565b62001057565b604051620001e59190620026dd565b60405180910390f35b6200020c6004803603810190620002069190620026fa565b62001089565b005b6200022c6004803603810190620002269190620027aa565b620011ca565b005b6000806200023d838562000dd4565b915091508162000284576040517f08c379a00000000000000000000000000000000000000000000000000000000081526004016200027b9062002856565b60405180910390fd5b60008054906101000a900473ffffffffffffffffffffffffffffffffffffffff1673ffffffffffffffffffffffffffffffffffffffff168173ffffffffffffffffffffffffffffffffffffffff161462000315576040517f08c379a00000000000000000000000000000000000000000000000000000000081526004016200030c90620028c8565b60405180910390fd5b62000322878787620011ca565b50505050505050565b606080606060008060606000600188815481106200034e576200034d620028ea565b5b9060005260206000209060090201905080600101816000018260020183600301548460050160009054906101000a900460ff1685600601858054620003939062002948565b80601f0160208091040260200160405190810160405280929190818152602001828054620003c19062002948565b8015620004125780601f10620003e65761010080835404028352916020019162000412565b820191906000526020600020905b815481529060010190602001808311620003f457829003601f168201915b50505050509550848054620004279062002948565b80601f0160208091040260200160405190810160405280929190818152602001828054620004559062002948565b8015620004a65780601f106200047a57610100808354040283529160200191620004a6565b820191906000526020600020905b8154815290600101906020018083116200048857829003601f168201915b50505050509450838054806020026020016040519081016040528092919081815260200182805480156200053057602002820191906000526020600020905b8160009054906101000a900473ffffffffffffffffffffffffffffffffffffffff1673ffffffffffffffffffffffffffffffffffffffff1681526020019060010190808311620004e5575b50505050509350808054620005459062002948565b80601f0160208091040260200160405190810160405280929190818152602001828054620005739062002948565b8015620005c45780601f106200059857610100808354040283529160200191620005c4565b820191906000526020600020905b815481529060010190602001808311620005a657829003601f168201915b505050505090509650965096509650965096505091939550919395565b600180816001815401808255809150500390600052602060002090505060006001808080549050620006149190620029ac565b81548110620006285762000627620028ea565b5b906000526020600020906009020190506000600180805490506200064d9190620029ac565b90508682600001908162000662919062002bb9565b508782600101908162000676919062002bb9565b50854262000685919062002ca0565b8260030181905550838260050160006101000a81548160ff02191690836000811115620006b757620006b662001d3a565b5b021790555082826006019081620006cf919062002bb9565b5060005b85518110156200081957600030878381518110620006f657620006f5620028ea565b5b602002602001015185600301548585604051620007139062001802565b6200072395949392919062002cdb565b604051809103906000f08015801562000740573d6000803e3d6000fd5b50905083600201819080600181540180825580915050600190039060005260206000200160009091909190916101000a81548173ffffffffffffffffffffffffffffffffffffffff021916908373ffffffffffffffffffffffffffffffffffffffff16021790555060018460080160008373ffffffffffffffffffffffffffffffffffffffff1673ffffffffffffffffffffffffffffffffffffffff16815260200190815260200160002060006101000a81548160ff021916908315150217905550508080620008109062002d3f565b915050620006d3565b505050505050505050565b606080606080606080600060018054905090508067ffffffffffffffff811115620008545762000853620018df565b5b6040519080825280602002602001820160405280156200088957816020015b6060815260200190600190039081620008735790505b5096508067ffffffffffffffff811115620008a957620008a8620018df565b5b604051908082528060200260200182016040528015620008de57816020015b6060815260200190600190039081620008c85790505b5095508067ffffffffffffffff811115620008fe57620008fd620018df565b5b6040519080825280602002602001820160405280156200093357816020015b60608152602001906001900390816200091d5790505b5094508067ffffffffffffffff811115620009535762000952620018df565b5b604051908082528060200260200182016040528015620009825781602001602082028036833780820191505090505b5093508067ffffffffffffffff811115620009a257620009a1620018df565b5b604051908082528060200260200182016040528015620009d15781602001602082028036833780820191505090505b5092508067ffffffffffffffff811115620009f157620009f0620018df565b5b60405190808252806020026020018201604052801562000a2657816020015b606081526020019060019003908162000a105790505b50915060005b8181101562000dca5760006001828154811062000a4e5762000a4d620028ea565b5b9060005260206000209060090201905080600101805462000a6f9062002948565b80601f016020809104026020016040519081016040528092919081815260200182805462000a9d9062002948565b801562000aee5780601f1062000ac25761010080835404028352916020019162000aee565b820191906000526020600020905b81548152906001019060200180831162000ad057829003601f168201915b505050505089838151811062000b095762000b08620028ea565b5b602002602001018190525080600001805462000b259062002948565b80601f016020809104026020016040519081016040528092919081815260200182805462000b539062002948565b801562000ba45780601f1062000b785761010080835404028352916020019162000ba4565b820191906000526020600020905b81548152906001019060200180831162000b8657829003601f168201915b505050505088838151811062000bbf5762000bbe620028ea565b5b60200260200101819052508060020180548060200260200160405190810160405280929190818152602001828054801562000c5057602002820191906000526020600020905b8160009054906101000a900473ffffffffffffffffffffffffffffffffffffffff1673ffffffffffffffffffffffffffffffffffffffff168152602001906001019080831162000c05575b505050505087838151811062000c6b5762000c6a620028ea565b5b6020026020010181905250806003015486838151811062000c915762000c90620028ea565b5b6020026020010181815250508060050160009054906101000a900460ff1685838151811062000cc55762000cc4620028ea565b5b6020026020010190600081111562000ce25762000ce162001d3a565b5b9081600081111562000cf95762000cf862001d3a565b5b8152505080600601805462000d0e9062002948565b80601f016020809104026020016040519081016040528092919081815260200182805462000d3c9062002948565b801562000d8d5780601f1062000d615761010080835404028352916020019162000d8d565b820191906000526020600020905b81548152906001019060200180831162000d6f57829003601f168201915b505050505084838151811062000da85762000da7620028ea565b5b602002602001018190525050808062000dc19062002d3f565b91505062000a2c565b5050909192939495565b600080600062000de485620016c4565b9050600062000df4828662001723565b905060008054906101000a900473ffffffffffffffffffffffffffffffffffffffff1673ffffffffffffffffffffffffffffffffffffffff168173ffffffffffffffffffffffffffffffffffffffff1614819350935050509250929050565b6001818154811062000e6457600080fd5b906000526020600020906009020160009150905080600001805462000e899062002948565b80601f016020809104026020016040519081016040528092919081815260200182805462000eb79062002948565b801562000f085780601f1062000edc5761010080835404028352916020019162000f08565b820191906000526020600020905b81548152906001019060200180831162000eea57829003601f168201915b50505050509080600101805462000f1f9062002948565b80601f016020809104026020016040519081016040528092919081815260200182805462000f4d9062002948565b801562000f9e5780601f1062000f725761010080835404028352916020019162000f9e565b820191906000526020600020905b81548152906001019060200180831162000f8057829003601f168201915b5050505050908060030154908060050160009054906101000a900460ff169080600601805462000fce9062002948565b80601f016020809104026020016040519081016040528092919081815260200182805462000ffc9062002948565b80156200104d5780601f1062001021576101008083540402835291602001916200104d565b820191906000526020600020905b8154815290600101906020018083116200102f57829003601f168201915b5050505050905085565b6000816040516020016200106c919062002dce565b604051602081830303815290604052805190602001209050919050565b600062001097828462000dd4565b50905080620010dd576040517f08c379a0000000000000000000000000000000000000000000000000000000008152600401620010d49062002856565b60405180910390fd5b600060018681548110620010f657620010f5620028ea565b5b906000526020600020906009020190506000816002018681548110620011215762001120620028ea565b5b9060005260206000200160009054906101000a900473ffffffffffffffffffffffffffffffffffffffff1690508073ffffffffffffffffffffffffffffffffffffffff1663f52fa10a3387876040518463ffffffff1660e01b81526004016200118d9392919062002e44565b600060405180830381600087803b158015620011a857600080fd5b505af1158015620011bd573d6000803e3d6000fd5b5050505050505050505050565b60018281548110620011e157620011e0620028ea565b5b906000526020600020906009020160080160003373ffffffffffffffffffffffffffffffffffffffff1673ffffffffffffffffffffffffffffffffffffffff16815260200190815260200160002060009054906101000a900460ff166200127f576040517f08c379a0000000000000000000000000000000000000000000000000000000008152600401620012769062002f05565b60405180910390fd5b60018281548110620012965762001295620028ea565b5b9060005260206000209060090201600301544210620012ec576040517f08c379a0000000000000000000000000000000000000000000000000000000008152600401620012e39062002f77565b60405180910390fd5b60018281548110620013035762001302620028ea565b5b906000526020600020906009020160040160008473ffffffffffffffffffffffffffffffffffffffff1673ffffffffffffffffffffffffffffffffffffffff16815260200190815260200160002060009054906101000a900460ff16156200159a5780600183815481106200137d576200137c620028ea565b5b906000526020600020906009020160070160008573ffffffffffffffffffffffffffffffffffffffff1673ffffffffffffffffffffffffffffffffffffffff16815260200190815260200160002054146200159457600060018381548110620013eb57620013ea620028ea565b5b906000526020600020906009020160070160008573ffffffffffffffffffffffffffffffffffffffff1673ffffffffffffffffffffffffffffffffffffffff168152602001908152602001600020549050600060018481548110620014555762001454620028ea565b5b906000526020600020906009020160020182815481106200147b576200147a620028ea565b5b9060005260206000200160009054906101000a900473ffffffffffffffffffffffffffffffffffffffff1690508073ffffffffffffffffffffffffffffffffffffffff16633ccc1f53866040518263ffffffff1660e01b8152600401620014e3919062002f99565b600060405180830381600087803b158015620014fe57600080fd5b505af115801562001513573d6000803e3d6000fd5b505050507fb0321094eaa7c50d0d43dd3eaf4c55b6acc710097665448e0565f58a498980be8585846040516200154c9392919062002fb6565b60405180910390a17ff75b557412ca4429d4ef66a92f3e3aa3becb79b047d943377283ebf79552e3f8858585604051620015899392919062002fb6565b60405180910390a150505b620015d8565b7fcb87df07b1c304492bd875a5c8b98672eca500939412809ea229afef1d745188838383604051620015cf9392919062002fb6565b60405180910390a15b8060018381548110620015f057620015ef620028ea565b5b906000526020600020906009020160070160008573ffffffffffffffffffffffffffffffffffffffff1673ffffffffffffffffffffffffffffffffffffffff1681526020019081526020016000208190555060018083815481106200165a5762001659620028ea565b5b906000526020600020906009020160040160008573ffffffffffffffffffffffffffffffffffffffff1673ffffffffffffffffffffffffffffffffffffffff16815260200190815260200160002060006101000a81548160ff021916908315150217905550505050565b60008082604051602001620016da919062002dce565b6040516020818303038152906040528051906020012090508060405160200162001705919062003068565b60405160208183030381529060405280519060200120915050919050565b600080600080620017348562001797565b925092509250600186828585604051600081526020016040526040516200175f9493929190620030b0565b6020604051602081039080840390855afa15801562001782573d6000803e3d6000fd5b50505060206040510351935050505092915050565b60008060006041845114620017e3576040517f08c379a0000000000000000000000000000000000000000000000000000000008152600401620017da906200314d565b60405180910390fd5b6020840151925060408401519150606084015160001a90509193909250565b611b45806200317083390190565b6000604051905090565b600080fd5b600080fd5b600073ffffffffffffffffffffffffffffffffffffffff82169050919050565b6000620018518262001824565b9050919050565b620018638162001844565b81146200186f57600080fd5b50565b600081359050620018838162001858565b92915050565b6000819050919050565b6200189e8162001889565b8114620018aa57600080fd5b50565b600081359050620018be8162001893565b92915050565b600080fd5b600080fd5b6000601f19601f8301169050919050565b7f4e487b7100000000000000000000000000000000000000000000000000000000600052604160045260246000fd5b6200191982620018ce565b810181811067ffffffffffffffff821117156200193b576200193a620018df565b5b80604052505050565b60006200195062001810565b90506200195e82826200190e565b919050565b600067ffffffffffffffff821115620019815762001980620018df565b5b6200198c82620018ce565b9050602081019050919050565b82818337600083830152505050565b6000620019bf620019b98462001963565b62001944565b905082815260208101848484011115620019de57620019dd620018c9565b5b620019eb84828562001999565b509392505050565b600082601f83011262001a0b5762001a0a620018c4565b5b813562001a1d848260208601620019a8565b91505092915050565b600067ffffffffffffffff82111562001a445762001a43620018df565b5b62001a4f82620018ce565b9050602081019050919050565b600062001a7362001a6d8462001a26565b62001944565b90508281526020810184848401111562001a925762001a91620018c9565b5b62001a9f84828562001999565b509392505050565b600082601f83011262001abf5762001abe620018c4565b5b813562001ad184826020860162001a5c565b91505092915050565b600080600080600060a0868803121562001af95762001af86200181a565b5b600062001b098882890162001872565b955050602062001b1c88828901620018ad565b945050604062001b2f88828901620018ad565b935050606086013567ffffffffffffffff81111562001b535762001b526200181f565b5b62001b6188828901620019f3565b925050608086013567ffffffffffffffff81111562001b855762001b846200181f565b5b62001b938882890162001aa7565b9150509295509295909350565b60006020828403121562001bb95762001bb86200181a565b5b600062001bc984828501620018ad565b91505092915050565b600081519050919050565b600082825260208201905092915050565b60005b8381101562001c0e57808201518184015260208101905062001bf1565b60008484015250505050565b600062001c278262001bd2565b62001c33818562001bdd565b935062001c4581856020860162001bee565b62001c5081620018ce565b840191505092915050565b600081519050919050565b600082825260208201905092915050565b6000819050602082019050919050565b62001c928162001844565b82525050565b600062001ca6838362001c87565b60208301905092915050565b6000602082019050919050565b600062001ccc8262001c5b565b62001cd8818562001c66565b935062001ce58362001c77565b8060005b8381101562001d1c57815162001d00888262001c98565b975062001d0d8362001cb2565b92505060018101905062001ce9565b5085935050505092915050565b62001d348162001889565b82525050565b7f4e487b7100000000000000000000000000000000000000000000000000000000600052602160045260246000fd5b6001811062001d7d5762001d7c62001d3a565b5b50565b600081905062001d908262001d69565b919050565b600062001da28262001d80565b9050919050565b62001db48162001d95565b82525050565b600060c082019050818103600083015262001dd6818962001c1a565b9050818103602083015262001dec818862001c1a565b9050818103604083015262001e02818762001cbf565b905062001e13606083018662001d29565b62001e22608083018562001da9565b81810360a083015262001e36818462001c1a565b9050979650505050505050565b600067ffffffffffffffff82111562001e615762001e60620018df565b5b602082029050602081019050919050565b600080fd5b600062001e8e62001e888462001e43565b62001944565b9050808382526020820190506020840283018581111562001eb45762001eb362001e72565b5b835b8181101562001f0257803567ffffffffffffffff81111562001edd5762001edc620018c4565b5b80860162001eec898262001aa7565b8552602085019450505060208101905062001eb6565b5050509392505050565b600082601f83011262001f245762001f23620018c4565b5b813562001f3684826020860162001e77565b91505092915050565b6001811062001f4d57600080fd5b50565b60008135905062001f618162001f3f565b92915050565b60008060008060008060c0878903121562001f875762001f866200181a565b5b600087013567ffffffffffffffff81111562001fa85762001fa76200181f565b5b62001fb689828a0162001aa7565b965050602087013567ffffffffffffffff81111562001fda5762001fd96200181f565b5b62001fe889828a0162001aa7565b955050604062001ffb89828a01620018ad565b945050606087013567ffffffffffffffff8111156200201f576200201e6200181f565b5b6200202d89828a0162001f0c565b93505060806200204089828a0162001f50565b92505060a087013567ffffffffffffffff8111156200206457620020636200181f565b5b6200207289828a0162001aa7565b9150509295509295509295565b600081519050919050565b600082825260208201905092915050565b6000819050602082019050919050565b600082825260208201905092915050565b6000620020c98262001bd2565b620020d58185620020ab565b9350620020e781856020860162001bee565b620020f281620018ce565b840191505092915050565b60006200210b8383620020bc565b905092915050565b6000602082019050919050565b60006200212d826200207f565b6200213981856200208a565b9350836020820285016200214d856200209b565b8060005b858110156200218f57848403895281516200216d8582620020fd565b94506200217a8362002113565b925060208a0199505060018101905062002151565b50829750879550505050505092915050565b600081519050919050565b600082825260208201905092915050565b6000819050602082019050919050565b600082825260208201905092915050565b6000620021eb8262001c5b565b620021f78185620021cd565b9350620022048362001c77565b8060005b838110156200223b5781516200221f888262001c98565b97506200222c8362001cb2565b92505060018101905062002208565b5085935050505092915050565b6000620022568383620021de565b905092915050565b6000602082019050919050565b60006200227882620021a1565b620022848185620021ac565b9350836020820285016200229885620021bd565b8060005b85811015620022da5784840389528151620022b8858262002248565b9450620022c5836200225e565b925060208a019950506001810190506200229c565b50829750879550505050505092915050565b600081519050919050565b600082825260208201905092915050565b6000819050602082019050919050565b620023238162001889565b82525050565b600062002337838362002318565b60208301905092915050565b6000602082019050919050565b60006200235d82620022ec565b620023698185620022f7565b9350620023768362002308565b8060005b83811015620023ad57815162002391888262002329565b97506200239e8362002343565b9250506001810190506200237a565b5085935050505092915050565b600081519050919050565b600082825260208201905092915050565b6000819050602082019050919050565b620023f18162001d95565b82525050565b6000620024058383620023e6565b60208301905092915050565b6000602082019050919050565b60006200242b82620023ba565b620024378185620023c5565b93506200244483620023d6565b8060005b838110156200247b5781516200245f8882620023f7565b97506200246c8362002411565b92505060018101905062002448565b5085935050505092915050565b600060c0820190508181036000830152620024a4818962002120565b90508181036020830152620024ba818862002120565b90508181036040830152620024d081876200226b565b90508181036060830152620024e6818662002350565b90508181036080830152620024fc81856200241e565b905081810360a083015262002512818462002120565b9050979650505050505050565b600080604083850312156200253957620025386200181a565b5b600083013567ffffffffffffffff8111156200255a57620025596200181f565b5b620025688582860162001aa7565b925050602083013567ffffffffffffffff8111156200258c576200258b6200181f565b5b6200259a85828601620019f3565b9150509250929050565b60008115159050919050565b620025bb81620025a4565b82525050565b620025cc8162001844565b82525050565b6000604082019050620025e96000830185620025b0565b620025f86020830184620025c1565b9392505050565b600060a08201905081810360008301526200261b818862001c1a565b9050818103602083015262002631818762001c1a565b905062002642604083018662001d29565b62002651606083018562001da9565b818103608083015262002665818462001c1a565b90509695505050505050565b6000602082840312156200268a57620026896200181a565b5b600082013567ffffffffffffffff811115620026ab57620026aa6200181f565b5b620026b98482850162001aa7565b91505092915050565b6000819050919050565b620026d781620026c2565b82525050565b6000602082019050620026f46000830184620026cc565b92915050565b600080600080608085870312156200271757620027166200181a565b5b60006200272787828801620018ad565b94505060206200273a87828801620018ad565b935050604085013567ffffffffffffffff8111156200275e576200275d6200181f565b5b6200276c87828801620019f3565b925050606085013567ffffffffffffffff81111562002790576200278f6200181f565b5b6200279e8782880162001aa7565b91505092959194509250565b600080600060608486031215620027c657620027c56200181a565b5b6000620027d68682870162001872565b9350506020620027e986828701620018ad565b9250506040620027fc86828701620018ad565b9150509250925092565b7f5369676e617475726520766572696669636174696f6e206661696c6564000000600082015250565b60006200283e601d8362001bdd565b91506200284b8262002806565b602082019050919050565b6000602082019050818103600083015262002871816200282f565b9050919050565b7f5369676e61747572652063616e6e6f7420626520766572696669656400000000600082015250565b6000620028b0601c8362001bdd565b9150620028bd8262002878565b602082019050919050565b60006020820190508181036000830152620028e381620028a1565b9050919050565b7f4e487b7100000000000000000000000000000000000000000000000000000000600052603260045260246000fd5b7f4e487b7100000000000000000000000000000000000000000000000000000000600052602260045260246000fd5b600060028204905060018216806200296157607f821691505b60208210810362002977576200297662002919565b5b50919050565b7f4e487b7100000000000000000000000000000000000000000000000000000000600052601160045260246000fd5b6000620029b98262001889565b9150620029c68362001889565b9250828203905081811115620029e157620029e06200297d565b5b92915050565b60008190508160005260206000209050919050565b60006020601f8301049050919050565b600082821b905092915050565b60006008830262002a4b7fffffffffffffffffffffffffffffffffffffffffffffffffffffffffffffffff8262002a0c565b62002a57868362002a0c565b95508019841693508086168417925050509392505050565b6000819050919050565b600062002a9a62002a9462002a8e8462001889565b62002a6f565b62001889565b9050919050565b6000819050919050565b62002ab68362002a79565b62002ace62002ac58262002aa1565b84845462002a19565b825550505050565b600090565b62002ae562002ad6565b62002af281848462002aab565b505050565b5b8181101562002b1a5762002b0e60008262002adb565b60018101905062002af8565b5050565b601f82111562002b695762002b3381620029e7565b62002b3e84620029fc565b8101602085101562002b4e578190505b62002b6662002b5d85620029fc565b83018262002af7565b50505b505050565b600082821c905092915050565b600062002b8e6000198460080262002b6e565b1980831691505092915050565b600062002ba9838362002b7b565b9150826002028217905092915050565b62002bc48262001bd2565b67ffffffffffffffff81111562002be05762002bdf620018df565b5b62002bec825462002948565b62002bf982828562002b1e565b600060209050601f83116001811462002c31576000841562002c1c578287015190505b62002c28858262002b9b565b86555062002c98565b601f19841662002c4186620029e7565b60005b8281101562002c6b5784890151825560018201915060208501945060208101905062002c44565b8683101562002c8b578489015162002c87601f89168262002b7b565b8355505b6001600288020188555050505b505050505050565b600062002cad8262001889565b915062002cba8362001889565b925082820190508082111562002cd55762002cd46200297d565b5b92915050565b600060a08201905062002cf26000830188620025c1565b818103602083015262002d06818762001c1a565b905062002d17604083018662001d29565b62002d26606083018562001d29565b62002d35608083018462001d29565b9695505050505050565b600062002d4c8262001889565b91507fffffffffffffffffffffffffffffffffffffffffffffffffffffffffffffffff820362002d815762002d806200297d565b5b600182019050919050565b600081905092915050565b600062002da48262001bd2565b62002db0818562002d8c565b935062002dc281856020860162001bee565b80840191505092915050565b600062002ddc828462002d97565b915081905092915050565b600081519050919050565b600082825260208201905092915050565b600062002e108262002de7565b62002e1c818562002df2565b935062002e2e81856020860162001bee565b62002e3981620018ce565b840191505092915050565b600060608201905062002e5b6000830186620025c1565b818103602083015262002e6f818562002e03565b9050818103604083015262002e85818462001c1a565b9050949350505050565b7f43616c6c6572206973206e6f7420612076616c6964206f7074696f6e20666f7260008201527f207468697320706f6c6c00000000000000000000000000000000000000000000602082015250565b600062002eed602a8362001bdd565b915062002efa8262002e8f565b604082019050919050565b6000602082019050818103600083015262002f208162002ede565b9050919050565b7f506f6c6c2068617320656e646564000000000000000000000000000000000000600082015250565b600062002f5f600e8362001bdd565b915062002f6c8262002f27565b602082019050919050565b6000602082019050818103600083015262002f928162002f50565b9050919050565b600060208201905062002fb06000830184620025c1565b92915050565b600060608201905062002fcd6000830186620025c1565b62002fdc602083018562001d29565b62002feb604083018462001d29565b949350505050565b7f19457468657265756d205369676e6564204d6573736167653a0a333200000000600082015250565b60006200302b601c8362002d8c565b9150620030388262002ff3565b601c82019050919050565b6000819050919050565b620030626200305c82620026c2565b62003043565b82525050565b600062003075826200301c565b91506200308382846200304d565b60208201915081905092915050565b600060ff82169050919050565b620030aa8162003092565b82525050565b6000608082019050620030c76000830187620026cc565b620030d660208301866200309f565b620030e56040830185620026cc565b620030f46060830184620026cc565b95945050505050565b7f496e76616c6964207369676e6174757265206c656e6774680000000000000000600082015250565b60006200313560188362001bdd565b91506200314282620030fd565b602082019050919050565b60006020820190508181036000830152620031688162003126565b905091905056fe60806040523480156200001157600080fd5b5060405162001b4538038062001b458339818101604052810190620000379190620002dc565b846000806101000a81548173ffffffffffffffffffffffffffffffffffffffff021916908373ffffffffffffffffffffffffffffffffffffffff1602179055508360019081620000889190620005c4565b508260028190555081600381905550806004819055505050505050620006ab565b6000604051905090565b600080fd5b600080fd5b600073ffffffffffffffffffffffffffffffffffffffff82169050919050565b6000620000ea82620000bd565b9050919050565b620000fc81620000dd565b81146200010857600080fd5b50565b6000815190506200011c81620000f1565b92915050565b600080fd5b600080fd5b6000601f19601f8301169050919050565b7f4e487b7100000000000000000000000000000000000000000000000000000000600052604160045260246000fd5b62000177826200012c565b810181811067ffffffffffffffff821117156200019957620001986200013d565b5b80604052505050565b6000620001ae620000a9565b9050620001bc82826200016c565b919050565b600067ffffffffffffffff821115620001df57620001de6200013d565b5b620001ea826200012c565b9050602081019050919050565b60005b8381101562000217578082015181840152602081019050620001fa565b60008484015250505050565b60006200023a6200023484620001c1565b620001a2565b90508281526020810184848401111562000259576200025862000127565b5b62000266848285620001f7565b509392505050565b600082601f83011262000286576200028562000122565b5b81516200029884826020860162000223565b91505092915050565b6000819050919050565b620002b681620002a1565b8114620002c257600080fd5b50565b600081519050620002d681620002ab565b92915050565b600080600080600060a08688031215620002fb57620002fa620000b3565b5b60006200030b888289016200010b565b955050602086015167ffffffffffffffff8111156200032f576200032e620000b8565b5b6200033d888289016200026e565b94505060406200035088828901620002c5565b93505060606200036388828901620002c5565b92505060806200037688828901620002c5565b9150509295509295909350565b600081519050919050565b7f4e487b7100000000000000000000000000000000000000000000000000000000600052602260045260246000fd5b60006002820490506001821680620003d657607f821691505b602082108103620003ec57620003eb6200038e565b5b50919050565b60008190508160005260206000209050919050565b60006020601f8301049050919050565b600082821b905092915050565b600060088302620004567fffffffffffffffffffffffffffffffffffffffffffffffffffffffffffffffff8262000417565b62000462868362000417565b95508019841693508086168417925050509392505050565b6000819050919050565b6000620004a56200049f6200049984620002a1565b6200047a565b620002a1565b9050919050565b6000819050919050565b620004c18362000484565b620004d9620004d082620004ac565b84845462000424565b825550505050565b600090565b620004f0620004e1565b620004fd818484620004b6565b505050565b5b81811015620005255762000519600082620004e6565b60018101905062000503565b5050565b601f82111562000574576200053e81620003f2565b620005498462000407565b8101602085101562000559578190505b62000571620005688562000407565b83018262000502565b50505b505050565b600082821c905092915050565b6000620005996000198460080262000579565b1980831691505092915050565b6000620005b4838362000586565b9150826002028217905092915050565b620005cf8262000383565b67ffffffffffffffff811115620005eb57620005ea6200013d565b5b620005f78254620003bd565b6200060482828562000529565b600060209050601f8311600181146200063c576000841562000627578287015190505b620006338582620005a6565b865550620006a3565b601f1984166200064c86620003f2565b60005b8281101562000676578489015182556001820191506020850194506020810190506200064f565b8683101562000696578489015162000692601f89168262000586565b8355505b6001600288020188555050505b505050505050565b61148a80620006bb6000396000f3fe6080604052600436106100955760003560e01c806399100fa51161005957806399100fa5146101bd578063c0f2a777146101e8578063d270e7ab14610213578063da58c7d91461023e578063f52fa10a1461027b576100e8565b80630649370b146100ea57806306fdde03146101135780633197cbb61461013e5780633ccc1f5314610169578063769e2da514610192576100e8565b366100e857600034146100dd576040517f08c379a00000000000000000000000000000000000000000000000000000000081526004016100d490610c1e565b60405180910390fd5b6100e6336102a4565b005b005b3480156100f657600080fd5b50610111600480360381019061010c9190610cb0565b6102a4565b005b34801561011f57600080fd5b506101286104e0565b6040516101359190610d5c565b60405180910390f35b34801561014a57600080fd5b5061015361056e565b6040516101609190610d97565b60405180910390f35b34801561017557600080fd5b50610190600480360381019061018b9190610cb0565b610574565b005b34801561019e57600080fd5b506101a7610903565b6040516101b49190610d97565b60405180910390f35b3480156101c957600080fd5b506101d2610909565b6040516101df9190610d97565b60405180910390f35b3480156101f457600080fd5b506101fd61090f565b60405161020a9190610d97565b60405180910390f35b34801561021f57600080fd5b5061022861091c565b6040516102359190610dc1565b60405180910390f35b34801561024a57600080fd5b5061026560048036038101906102609190610e08565b610940565b6040516102729190610dc1565b60405180910390f35b34801561028757600080fd5b506102a2600480360381019061029d919061100b565b61097f565b005b60025442106102e8576040517f08c379a00000000000000000000000000000000000000000000000000000000081526004016102df906110e2565b60405180910390fd5b60008054906101000a900473ffffffffffffffffffffffffffffffffffffffff1673ffffffffffffffffffffffffffffffffffffffff1663fafc9246826003546004546040518463ffffffff1660e01b815260040161034993929190611102565b600060405180830381600087803b15801561036357600080fd5b505af1158015610377573d6000803e3d6000fd5b50505050600760008273ffffffffffffffffffffffffffffffffffffffff1673ffffffffffffffffffffffffffffffffffffffff16815260200190815260200160002060009054906101000a900460ff16610485576005819080600181540180825580915050600190039060005260206000200160009091909190916101000a81548173ffffffffffffffffffffffffffffffffffffffff021916908373ffffffffffffffffffffffffffffffffffffffff16021790555060016005805490506104419190611168565b600660008373ffffffffffffffffffffffffffffffffffffffff1673ffffffffffffffffffffffffffffffffffffffff168152602001908152602001600020819055505b6001600760008373ffffffffffffffffffffffffffffffffffffffff1673ffffffffffffffffffffffffffffffffffffffff16815260200190815260200160002060006101000a81548160ff02191690831515021790555050565b600180546104ed906111cb565b80601f0160208091040260200160405190810160405280929190818152602001828054610519906111cb565b80156105665780601f1061053b57610100808354040283529160200191610566565b820191906000526020600020905b81548152906001019060200180831161054957829003601f168201915b505050505081565b60025481565b60008054906101000a900473ffffffffffffffffffffffffffffffffffffffff1673ffffffffffffffffffffffffffffffffffffffff163373ffffffffffffffffffffffffffffffffffffffff1614610602576040517f08c379a00000000000000000000000000000000000000000000000000000000081526004016105f990611248565b60405180910390fd5b600760008273ffffffffffffffffffffffffffffffffffffffff1673ffffffffffffffffffffffffffffffffffffffff16815260200190815260200160002060009054906101000a900460ff1661068e576040517f08c379a0000000000000000000000000000000000000000000000000000000008152600401610685906112b4565b60405180910390fd5b6000600660008373ffffffffffffffffffffffffffffffffffffffff1673ffffffffffffffffffffffffffffffffffffffff1681526020019081526020016000205490506005805490508110610719576040517f08c379a000000000000000000000000000000000000000000000000000000000815260040161071090611320565b60405180910390fd5b6000600160058054905061072d9190611168565b905080821461081c5760006005828154811061074c5761074b611340565b5b9060005260206000200160009054906101000a900473ffffffffffffffffffffffffffffffffffffffff169050806005848154811061078e5761078d611340565b5b9060005260206000200160006101000a81548173ffffffffffffffffffffffffffffffffffffffff021916908373ffffffffffffffffffffffffffffffffffffffff16021790555082600660008373ffffffffffffffffffffffffffffffffffffffff1673ffffffffffffffffffffffffffffffffffffffff16815260200190815260200160002081905550505b600580548061082e5761082d61136f565b5b6001900381819060005260206000200160006101000a81549073ffffffffffffffffffffffffffffffffffffffff02191690559055600660008473ffffffffffffffffffffffffffffffffffffffff1673ffffffffffffffffffffffffffffffffffffffff168152602001908152602001600020600090556000600760008573ffffffffffffffffffffffffffffffffffffffff1673ffffffffffffffffffffffffffffffffffffffff16815260200190815260200160002060006101000a81548160ff021916908315150217905550505050565b60045481565b60035481565b6000600580549050905090565b60008054906101000a900473ffffffffffffffffffffffffffffffffffffffff1681565b6005818154811061095057600080fd5b906000526020600020016000915054906101000a900473ffffffffffffffffffffffffffffffffffffffff1681565b60025442106109c3576040517f08c379a00000000000000000000000000000000000000000000000000000000081526004016109ba906110e2565b60405180910390fd5b60008054906101000a900473ffffffffffffffffffffffffffffffffffffffff1673ffffffffffffffffffffffffffffffffffffffff166316b752f08460035460045486866040518663ffffffff1660e01b8152600401610a289594939291906113f3565b600060405180830381600087803b158015610a4257600080fd5b505af1158015610a56573d6000803e3d6000fd5b50505050600760008473ffffffffffffffffffffffffffffffffffffffff1673ffffffffffffffffffffffffffffffffffffffff16815260200190815260200160002060009054906101000a900460ff16610b64576005839080600181540180825580915050600190039060005260206000200160009091909190916101000a81548173ffffffffffffffffffffffffffffffffffffffff021916908373ffffffffffffffffffffffffffffffffffffffff1602179055506001600580549050610b209190611168565b600660008573ffffffffffffffffffffffffffffffffffffffff1673ffffffffffffffffffffffffffffffffffffffff168152602001908152602001600020819055505b6001600760008573ffffffffffffffffffffffffffffffffffffffff1673ffffffffffffffffffffffffffffffffffffffff16815260200190815260200160002060006101000a81548160ff021916908315150217905550505050565b600082825260208201905092915050565b7f43616e6e6f742073656e6420455448207769746820766f746500000000000000600082015250565b6000610c08601983610bc1565b9150610c1382610bd2565b602082019050919050565b60006020820190508181036000830152610c3781610bfb565b9050919050565b6000604051905090565b600080fd5b600080fd5b600073ffffffffffffffffffffffffffffffffffffffff82169050919050565b6000610c7d82610c52565b9050919050565b610c8d81610c72565b8114610c9857600080fd5b50565b600081359050610caa81610c84565b92915050565b600060208284031215610cc657610cc5610c48565b5b6000610cd484828501610c9b565b91505092915050565b600081519050919050565b60005b83811015610d06578082015181840152602081019050610ceb565b60008484015250505050565b6000601f19601f8301169050919050565b6000610d2e82610cdd565b610d388185610bc1565b9350610d48818560208601610ce8565b610d5181610d12565b840191505092915050565b60006020820190508181036000830152610d768184610d23565b905092915050565b6000819050919050565b610d9181610d7e565b82525050565b6000602082019050610dac6000830184610d88565b92915050565b610dbb81610c72565b82525050565b6000602082019050610dd66000830184610db2565b92915050565b610de581610d7e565b8114610df057600080fd5b50565b600081359050610e0281610ddc565b92915050565b600060208284031215610e1e57610e1d610c48565b5b6000610e2c84828501610df3565b91505092915050565b600080fd5b600080fd5b7f4e487b7100000000000000000000000000000000000000000000000000000000600052604160045260246000fd5b610e7782610d12565b810181811067ffffffffffffffff82111715610e9657610e95610e3f565b5b80604052505050565b6000610ea9610c3e565b9050610eb58282610e6e565b919050565b600067ffffffffffffffff821115610ed557610ed4610e3f565b5b610ede82610d12565b9050602081019050919050565b82818337600083830152505050565b6000610f0d610f0884610eba565b610e9f565b905082815260208101848484011115610f2957610f28610e3a565b5b610f34848285610eeb565b509392505050565b600082601f830112610f5157610f50610e35565b5b8135610f61848260208601610efa565b91505092915050565b600067ffffffffffffffff821115610f8557610f84610e3f565b5b610f8e82610d12565b9050602081019050919050565b6000610fae610fa984610f6a565b610e9f565b905082815260208101848484011115610fca57610fc9610e3a565b5b610fd5848285610eeb565b509392505050565b600082601f830112610ff257610ff1610e35565b5b8135611002848260208601610f9b565b91505092915050565b60008060006060848603121561102457611023610c48565b5b600061103286828701610c9b565b935050602084013567ffffffffffffffff81111561105357611052610c4d565b5b61105f86828701610f3c565b925050604084013567ffffffffffffffff8111156110805761107f610c4d565b5b61108c86828701610fdd565b9150509250925092565b7f506f6c6c2068617320656e646564000000000000000000000000000000000000600082015250565b60006110cc600e83610bc1565b91506110d782611096565b602082019050919050565b600060208201905081810360008301526110fb816110bf565b9050919050565b60006060820190506111176000830186610db2565b6111246020830185610d88565b6111316040830184610d88565b949350505050565b7f4e487b7100000000000000000000000000000000000000000000000000000000600052601160045260246000fd5b600061117382610d7e565b915061117e83610d7e565b925082820390508181111561119657611195611139565b5b92915050565b7f4e487b7100000000000000000000000000000000000000000000000000000000600052602260045260246000fd5b600060028204905060018216806111e357607f821691505b6020821081036111f6576111f561119c565b5b50919050565b7f596f7520646f6e27742068617665206163636573730000000000000000000000600082015250565b6000611232601583610bc1565b915061123d826111fc565b602082019050919050565b6000602082019050818103600083015261126181611225565b9050919050565b7f4e6f20766f746520746f2072656d6f7665000000000000000000000000000000600082015250565b600061129e601183610bc1565b91506112a982611268565b602082019050919050565b600060208201905081810360008301526112cd81611291565b9050919050565b7f566f746572206e6f7420666f756e640000000000000000000000000000000000600082015250565b600061130a600f83610bc1565b9150611315826112d4565b602082019050919050565b60006020820190508181036000830152611339816112fd565b9050919050565b7f4e487b7100000000000000000000000000000000000000000000000000000000600052603260045260246000fd5b7f4e487b7100000000000000000000000000000000000000000000000000000000600052603160045260246000fd5b600081519050919050565b600082825260208201905092915050565b60006113c58261139e565b6113cf81856113a9565b93506113df818560208601610ce8565b6113e881610d12565b840191505092915050565b600060a0820190506114086000830188610db2565b6114156020830187610d88565b6114226040830186610d88565b818103606083015261143481856113ba565b905081810360808301526114488184610d23565b9050969550505050505056fea26469706673582212200e7257ab15932d837fcccdf2aa50c8471360e8af35fdd4d6e2e44edb060c3e5264736f6c63430008130033a2646970667358221220d3d403d92701601622e629a6cbd30639342aac64671d296e09f54621f61ac17c64736f6c63430008130033",
  "linkReferences": {},
  "deployedLinkReferences": {}
}